:1000000000800020BD010000B98801007188010056
:1000100071880100718801007188010071880100F8
:10002000718801007188010071880100B9880100A0
:10003000B98801007188010081A8010085A801002C
:10004000B9880100B9880100B9880100B9880100A8
:10005000B9880100B9880100B9880100B988010098
:10006000B9880100B9880100B9880100B988010088
:10007000B9880100B9880100B9880100B988010078
:10008000B9880100B9880100B9880100B988010068
:10009000B9880100B9880100B9880100B988010058
:1000A000214501002D450100B9880100B9880100F2
:1000B000B9880100B9880100B9880100B988010038
:1000C000B9880100B9880100B9880100B988010028
:1000D000B9880100B9880100B9880100B988010018
:1000E000B9880100B9880100B9880100B988010008
:1000F000B9880100B9880100B9880100B9880100F8
:10010000B9880100B9960100B9880100B9880100D9
:10011000B9880100B9880100B9880100B9880100D7
:10012000B9880100B9880100B9880100B9880100C7
:10013000B9880100B9880100B9880100B9880100B7
:10014000B9880100B9880100B9880100B9880100A7
:10015000E1AA0100F5AA010009AB01001DAB0100F5
:10016000B98801002D9A0100B9880100B988010001
:10017000B9880100B9880100B9880100B988010077
:10018000B9880100B9880100B9880100B988010067
:10019000B9880100B9880100B9880100B988010057
:1001A000B9880100B9880100B9880100B988010047
:1001B000B9880100B9880100B9880100564B4CF29A
:1001C000205210B51A804DF628121A8000BF00BFC9
:1001D00018F076FB514B4FF010621A60504A9A604B
:1001E000504ADA60504A136813F4807304D14F49BF
:1001F0000B604FF4A85313604D4B1A78110703D5C9
:100200001A7842F008021A704A4B4B492A221A7097
:100210004A4A4B4B8B4204D252F8040F43F8040B6A
:10022000F8E7484B484900228B4202D243F8042B9E
:10023000FAE74649464A002352F8230041F82300D2
:1002400001336F2BF8D1434B434A802103F8011B44
:100250009342FBD1414B3D4A1A60414B8A221A70AE
:10026000A3F5805324225A70A0221A709A7992071B
:10027000FCD59A79D406FCD43A4A937903F00C035E
:10028000082B384BF9D103221A7140225A719A79FE
:100290009006FCD5334A9179324B4906FBD5324A58
:1002A000324911600221516020221A709A7902F0BD
:1002B0000C020C2AFAD12E4B2E4A1A602E4B2F4AD2
:1002C0001A6000225A60072243F8042C2C4AC3F813
:1002D0000C2D62B618F04AFE144B1B68DA0705D5E0
:1002E000284818F02FFE284B284A1A60284B1B7804
:1002F0005B0609D5244C254B22689A4204D121483B
:1003000018F020FE0023236018F0E0FA1FF0ACF98B
:100310001BF064F8FEE700BF0E200540308004406B
:10032000823F04000100002B10D0034014D0034092
:1003300002D0074000E00740C8A1FF1F9C830200D5
:100340006089FF1FC8A1FF1FBCE4FF1F0082FF1FC1
:100350000000000000E400E05FE400E008ED00E0E1
:100360000050064000400640448004400000030165
:1003700004800440C010050014E000E0FF76010096
:1003800000002020394C71631CE00340A5C3945A3F
:1003900000F00740FFFFFFFFFFFFFFFFFFFFFFFF32
:1003A000FFFFFFFFFFFFFFFFFFFFFFFFFFFFFFFF5D
:1003B000FFFFFFFFFFFFFFFFFFFFFFFFFFFFFFFF4D
:1003C000FFFFFFFFFFFFFFFFFFFFFFFFFFFFFFFF3D
:1003D000FFFFFFFFFFFFFFFFFFFFFFFFFFFFFFFF2D
:1003E000FFFFFFFFFFFFFFFFFFFFFFFFFFFFFFFF1D
:1003F000FFFFFFFFFFFFFFFFFFFFFFFFFFFFFFFF0D
:10040000FFFFFFFFFFFFFFFFFFFFFFFFDEF9FFFF23
:1004100010B5054C237833B9044B13B10448AFF33E
:1004200000800123237010BDC8A1FF1F0000000041
:1004300098830200084B10B51BB108490848AFF378
:1004400000800848036803B910BD074B002BFBD0A0
:10045000BDE81040184700BF00000000CCA1FF1FFE
:1004600098830200C8A1FF1F000000000020704711
:10047000704700BF704700BF0B4B0C491A680868F3
:1004800084B00192019A121A642A02D9084A012002
:1004900010601A68039203981B680293029A054B36
:1004A00008601A6004B07047A4E2FF1F8CDCFF1FD5
:1004B00068CBFF1F3CBBFF1F0B4B0C491A68086839
:1004C00084B00192019A121A642A02D9084A0120C2
:1004D00010601A68039203981B680293029A054BF6
:1004E00008601A6004B07047A4E2FF1F94DCFF1F8D
:1004F00084CBFF1F3CBBFF1F0B4B0C491A680868DD
:1005000084B00192019A121A642A02D9084A012081
:1005100010601A68039203981B680293029A054BB5
:1005200008601A6004B07047A4E2FF1F10DCFF1FD0
:10053000E8BAFF1F3CBBFF1F027C02F0080202F07A
:10054000FF0332B1C36A406A181A48BF6FF0004017
:1005500070471846704700BF704700BF704700BF24
:1005600008B502220449052018F026FC18F094FD75
:10057000024B186008BD00BF8105000000DCFF1FB2
:1005800008B503220549052018F016FC18F084FD73
:10059000034B044A1B68C01A106008BD61050000C7
:1005A00000DCFF1F78CBFF1F10300AF097BC00BFA4
:1005B00000B583B002AB012203F8011D10301946CB
:1005C0000AF08CFC03B05DF804FB00BF00B583B0FB
:1005D00001220DF1070110300AF0D2F801280CBFFA
:1005E0009DF807004FF0FF3003B05DF804FB00BF3B
:1005F00010300AF0C9BB00BF2DE9F0410F46164686
:10060000804616F089FF044616F076FF054616F080
:1006100063FFA4F2BC739BB27F2B02D8EAB20C2A10
:100620002BD90023A8F8003016F026FF044616F058
:1006300033FF054616F040FFE3B2172B02D8EBB2AA
:100640003B2B0BD900233B8016F036FF10F0010F37
:1006500014BF642300233370BDE8F081C3B23B2B89
:10066000F0D8E4026B0104F4FF2403F4FF532343A6
:10067000C0F3460003439BB2E5E7C0B21F28D0D8C1
:100680006D0105F4FF55284340EA43239BB2C9E7B7
:1006900018F052BC10300AF043B900BF0A4B0B48A7
:1006A0001B6870B50A4D0B4C2A6821680A4E80FB06
:1006B00003E0DB17C3EBA01346F82230013101320F
:1006C0002A60216070BD00BFF8CBFF1FD34D6210C0
:1006D000B8DCFF1F08DDFF1F28A7FF1F2DE9F04131
:1006E00018F0DAFC174B184A1968184B184D194EB8
:1006F00004461C6052F821001EF038FB16491EF01B
:1007000089FB07462868201A1EF030FB134B8046F1
:1007100018681EF02BFB014640461EF07BFB01468D
:1007200038461EF02BFC0E4B0E4A1B782C60012124
:10073000306011700BB9BDE8F081BDE8F041FFF702
:10074000ADBF00BF8C8AFF1F448AFF1FF8CBFF1F7D
:10075000F0B9FF1FC8B6FF1FE5B63046888AFF1FF5
:100760008CCBFF1FF4CBFF1F70B5044608460D4627
:1007700020F0A6F823680246294620465B68BDE8BB
:100780007040184738B505461AF0E8F9044628467F
:100790001AF00AFA204438BD38B5044608460D461A
:1007A00020F08EF82368024629465B682046984769
:1007B000054620461AF0F8F9284438BD002AF0B55D
:1007C000144FDFF858E014BF4FF060554FF06455F8
:1007D000002602E0172C08D0264637F8022F9EFB91
:1007E000F2F2914206F10104F4D31A0701D545F063
:1007F0008065094A5B0752F8262007D5130903F4E0
:10080000706322F4704245F000751A431543056089
:10081000F0BD00BF1268020044680200006CDC02F8
:100820002DE9F0410E2017F0A5FF80460F2017F0AC
:10083000A1FF0746102017F09DFF104C104D0646F3
:100840000121104818F072FE414620461AF024FAA1
:100850002846012118F06AFE394620461AF01CFA93
:100860002846012118F062FE314620461AF014FA9B
:1008700001210548BDE8F04118F058BEE497FF1F7C
:10088000704202006C420200C8690200F0B50446E2
:100890009BB0002900F09280CB6A13F400470D460C
:1008A0000AD1B64B1E68012E0ED0022E00F04181F7
:1008B000002E5AD01BB0F0BDB1490A68C3F30E0335
:1008C00013440B601BB0F0BD08681DF0F9FD042651
:1008D00002460B46009620461AF0E6F923683B21B3
:1008E0001B68204698470A223B46296A20461AF090
:1008F00093F923683B211B68204698470A223B4610
:10090000696A20461AF088F923683B211B68204653
:100910009847A96A3B460A2220461AF07DF92368C7
:100920003B211B682046984768691DF0C9FD0226D7
:1009300002460B46009620461AF0B6F923683B2182
:100940001B6820469847298B20461AF0A5F9236892
:100950003B211B6820469847698B20461AF09CF97A
:1009600020461AF021F91BB0F0BD08681DF0A8FD63
:10097000042702460B46009720461AF095F9236893
:100980003B211B68204698470A2233466968204667
:100990001AF042F923683B211B68204698470A2237
:1009A0003346A96820461AF037F923683B211B68B3
:1009B0002046984733460A22E968ADE76F4B1B682B
:1009C000012B00F0A781022B00F0F880002B40F0F3
:1009D000AB806C49FFF7C8FE16F04EFD0A220146B7
:1009E00002A81AF033FC02A906A81AF011FC664905
:1009F00006A81AF0CBFC054616F04EFD0A22014669
:100A00000AA81AF023FC0AA928461AF0B7FC5F4985
:100A10001AF0BCFC054616F05FFD0A2201460EA83E
:100A20001AF014FC0EA928461AF0A8FC58491AF02E
:100A3000ADFC054616F060FD0A22014612A81AF028
:100A400005FC12A928461AF099FC51491AF09EFC9F
:100A5000054616F061FD0A22014616A81AF0F6FBBB
:100A600016A928461AF08AFC01462046FFF78AFE9E
:100A700016A81AF079FB12A81AF076FB0EA81AF045
:100A800073FB0AA81AF070FB06A81AF06DFB02A807
:100A90001AF06AFB3F490EA81AF0A6FB3E4A3F4BEC
:100AA00012680AA853F822100A221AF0CFFB0AA9EA
:100AB0000EA81AF063FC3A491AF068FC394B0A2276
:100AC0001968054612A81AF0C1FB12A928461AF0A7
:100AD00055FC35491AF05AFC344B35491B68B1FBBB
:100AE000F3F10A22054616A81AF0C4FB16A92846F7
:100AF0001AF044FC2F491AF049FC01462046FFF742
:100B000041FE16A81AF030FB12A81AF02DFB0AA815
:100B10001AF02AFB0EA81AF027FB27492046FFF7F8
:100B200023FE20461AF040F8154B00221A601BB035
:100B3000F0BD08681DF0C4FC042702460B46009770
:100B400020461AF0B1F823683B211B6820469847DD
:100B5000E8691DF0B5FC009602460B4620461AF0E7
:100B6000A3F823683B211B682046984768691DF05D
:100B7000A7FC009602460B46DDE600BF0CDDFF1F1A
:100B8000B0DCFF1F74420200704F0200BC4802003C
:100B9000884202008C4202008C8AFF1F448AFF1F99
:100BA000A0420200888AFF1FBC4202009CDCFF1F9B
:100BB00040420F00CC420200D0420200AD49FFF794
:100BC000D3FD16F059FC0A22014602A81AF03EFB9A
:100BD00002A906A81AF01CFBA74906A81AF0D6FB22
:100BE000054616F059FC0A2201460AA81AF02EFB07
:100BF0000AA928461AF0C2FBA0491AF0C7FB05460D
:100C000016F06AFC0A2201460EA81AF01FFB0EA974
:100C100028461AF0B3FB9A491AF0B8FB054616F0BD
:100C20006BFC0A22014612A81AF010FB12A92846F2
:100C30001AF0A4FB92491AF0A9FB054616F06CFCC9
:100C40000A22014616A81AF001FB16A928461AF036
:100C500095FB01462046FFF795FD16A81AF084FA89
:100C600012A81AF081FA0EA81AF07EFA0AA81AF051
:100C70007BFA06A81AF078FA02A81AF075FA0EA8FC
:100C800080491AF0B1FA804A804B12680AA853F8DA
:100C900022100A221AF0DAFA0AA90EA81AF06EFB3C
:100CA0007B491AF073FB7B4B0A221968054612A890
:100CB0001AF0CCFA12A928461AF060FB76491AF00D
:100CC00065FB764B76491B68B1FBF3F10A220546BA
:100CD00016A81AF0CFFA16A928461AF04FFB714948
:100CE0001AF054FB01462046FFF74CFD16A81AF0F7
:100CF0003BFA12A81AF038FA0AA81AF035FA0EA828
:100D00001AF032FA68492046FFF72EFD204619F006
:100D10004BFF09E75749FFF727FD16F0ADFB0A2205
:100D2000014602A81AF092FA02A906A81AF070FA6F
:100D3000514906A81AF02AFB054616F0ADFB0A2217
:100D400001460AA81AF082FA0AA928461AF016FBE8
:100D50004A491AF01BFB054616F0BEFB0A22014663
:100D60000EA81AF073FA0EA928461AF007FB444998
:100D70001AF00CFB054616F0BFFB0A22014612A82A
:100D80001AF064FA12A928461AF0F8FA3C491AF047
:100D9000FDFA054616F0C0FB0A22014616A81AF015
:100DA00055FA16A928461AF0E9FA0146204619F024
:100DB000D5FE204619F0F8FE16A81AF0D5F912A8AB
:100DC0001AF0D2F90EA81AF0CFF90AA81AF0CCF945
:100DD00006A81AF0C9F902A81AF0C6F90EA82949FE
:100DE0001AF002FA284A294B12680AA853F822106E
:100DF0000A221AF02BFA0AA90EA81AF0BFFA2449FF
:100E00001AF0C4FA234B0A221968054612A81AF0F0
:100E10001DFA12A928461AF0B1FA1F491AF0B6FABB
:100E20001E4B1F491B68B1FBF3F10A22054616A8A9
:100E30001AF020FA16A928461AF0A0FA19491AF051
:100E4000A5FA01462046FFF79DFC16A81AF08CF97A
:100E500012A81AF089F90AA81AF086F90EA81AF051
:100E600083F912492046FFF77FFC204619F09CFECB
:100E70005AE600BF74420200704F0200BC480200F4
:100E8000884202008C4202008C8AFF1F448AFF1FA6
:100E9000A0420200888AFF1FBC4202009CDCFF1FA8
:100EA00040420F00CC4202004843020018430200B7
:100EB00038B518F0F1F842F20F75044619F090FABF
:100EC000002802DB18F0E8F8044618F0E5F8001BEB
:100ED000A842F3D938BD00BF70B5724E724D734948
:100EE00006F110042046062209F0F8FF29462046A4
:100EF000012209F0F3FF20460B226D4909F0EEFFB5
:100F000029462046012209F0E9FF20460B226949C3
:100F100009F0E4FF29462046012209F0DFFF2046C0
:100F20000B22654909F0DAFF29462046012209F023
:100F3000D5FF20460722614909F0D0FF2946204607
:100F4000012209F0CBFF204607225D4909F0C6FFC8
:100F500029462046012209F0C1FF204607225949AF
:100F600009F0BCFF29462046012209F0B7FF2046C0
:100F70000822554909F0B2FF29462046012209F00E
:100F8000ADFF20460822514909F0A8FF2946204616
:100F9000012209F0A3FF204608224D4909F09EFFD7
:100FA00029462046012209F099FF20460822494996
:100FB00009F094FF29462046012209F08FFF2046C0
:100FC0000822454909F08AFF29462046012209F0F6
:100FD00085FF20460822414909F080FF2946204626
:100FE000012209F07BFF20460B223D4909F076FFE4
:100FF00029462046012209F071FF20460B2239497B
:1010000009F06CFF29462046012209F067FF2046BF
:101010000B22354909F062FF29462046012209F0DA
:101020005DFF20460822314909F058FF2946204635
:10103000012209F053FF204608222D4909F04EFFF6
:1010400029462046012209F049FF20460822294965
:1010500009F044FF29462046012209F03FFF2046BF
:101060000E22254909F03AFF29462046012209F0BF
:1010700035FF20460D22214909F030FF2946204640
:10108000012209F02BFF20460B221D4909F026FF03
:1010900020462946012209F021FF3046BDE8704074
:1010A00019F082BD58DCFF1F884302008043020014
:1010B0008C43020098430200A4430200B0430200A4
:1010C000B8430200C0430200C8430200D4430200F8
:1010D000E0430200EC430200F84302000444020033
:1010E000104402001C440200284402003444020060
:1010F000404402004C44020058440200684402008C
:10110000784402002DE9F041AC4BAD4FAD4C39694C
:101110001B68AD4D82B004F11006C91A20460023A9
:101120000A2219F079FD29460122304609F0D6FE3F
:10113000386E1DF0C5F94FF002080B460246CDF897
:101140000080204619F0B0FD29460122304609F002
:10115000C5FE786E1DF0B4F9CDF800800B4602464E
:10116000204619F0A1FD29460122304609F0B6FEBD
:10117000B86E1DF0A5F9CDF800800B46024620465A
:1011800019F092FD29460122304609F0A7FE386B7E
:101190001DF096F9CDF800800B460246204619F066
:1011A00083FD29460122304609F098FE786B1DF038
:1011B00087F9CDF800800B460246204619F074FDF1
:1011C00029460122304609F089FEB86B1DF078F9F6
:1011D000CDF800800B460246204619F065FD2946F1
:1011E0000122304609F07AFE386F1DF069F9CDF81A
:1011F00000800B460246204619F056FD2946012282
:10120000304609F06BFE786F1DF05AF9CDF800807A
:101210000B460246204619F047FD2946012230467A
:1012200009F05CFEB86F1DF04BF9CDF800800B465D
:101230000246204619F038FD29460122304609F0C1
:101240004DFE386D1DF03CF9CDF800800B4602468E
:10125000204619F029FD29460122304609F03EFEBC
:10126000786D1DF02DF9CDF800800B460246204622
:1012700019F01AFD29460122304609F02FFEB86DFB
:101280001DF01EF9CDF800800B460246204619F0ED
:101290000BFD29460122304609F020FED7F88000D8
:1012A0001DF00EF9CDF800800B460246204619F0DD
:1012B000FBFC29460122304609F010FED7F88400D5
:1012C0001DF0FEF8CDF800800B460246204619F0CE
:1012D000EBFC29460122304609F000FED7F88800D1
:1012E0001DF0EEF8CDF800800B460246204619F0BE
:1012F000DBFC29460122304609F0F0FD386C1DF078
:10130000DFF8CDF800800B460246204619F0CCFCF1
:1013100029460122304609F0E1FD786C1DF0D0F835
:10132000CDF800800B460246204619F0BDFC294648
:101330000122304609F0D2FDB86C1DF0C1F8CDF89D
:1013400000800B460246204619F0AEFC29460122D9
:10135000304609F0C3FD786A1DF0B2F8CDF8008080
:101360000B460246204619F09FFC294601223046D2
:1013700009F0B4FDB86A1DF0A3F8CDF800800B4663
:101380000246204619F090FC29460122304609F019
:10139000A5FDF86A1DF094F8CDF800800B460246D2
:1013A000204619F081FC30462946012209F096FDBD
:1013B000204602B0BDE8F04119F0F6BBF0CBFF1FAC
:1013C00034BAFF1F58DCFF1F88430200F0B5444BBE
:1013D0001B68012B83B05DD0022B08D01B21414834
:1013E00019F06AF8404819F0DFFB03B0F0BD3F4D3B
:1013F0003F4C284615F0C0FD284615F0D1FEB42616
:10140000284615F043FE3246002120461EF036FDE8
:10141000384B26601B680193019B2361284615F019
:101420006BFDB5F900001DF0A1FC2063B5F90200C9
:101430001DF09CFC6063B5F904001DF097FCA968E1
:10144000EA682B69A063286BD5F834E0AF6B21679D
:10145000EE69296A6267A3676A6A206400232648E6
:10146000C4F844E0C4F88410C4F888202365636598
:10147000A365A764C4F8806015F05CFA60621E483A
:1014800015F07EFA1D49A0621B4815F079FBE06259
:1014900003B0F0BD164C1A482146282214F0CAFCAD
:1014A00021460822164814F0C5FC21462E22144875
:1014B00014F0C0FC21461A22114814F0BBFC21464E
:1014C00014220F4814F0B6FC21460E220C4814F0EA
:1014D000B1FC0B4814F0A0FE1DF048FC606284E7EC
:1014E00090DCFF1F844402000C98FF1FC0DCFF1F2C
:1014F00034BAFF1FA4E2FF1FFCB9FF1F00507D4458
:10150000D4CBFF1FF0B5424D4249434E05F11004C4
:1015100099B01222204609F0E1FC15F0ADFF0A2235
:101520000146684619F092FE694604A819F070FE5B
:101530003A4904A819F02AFF074615F0ADFF0A2220
:10154000014608A819F082FE08A9384619F016FFCE
:10155000334919F01BFF074615F0BEFF0A2201466A
:101560000CA819F073FE0CA9384619F007FF314694
:1015700019F00CFF074615F0BFFF0A22014610A81C
:1015800019F064FE10A9384619F0F8FE314619F03A
:10159000FDFE064615F0C0FF0A22014614A819F008
:1015A00055FE14A9304619F0E9FE0146284619F007
:1015B000D5FA284619F0F8FA14A819F0D5FD10A8A4
:1015C00019F0D2FD0CA819F0CFFD08A819F0CCFD38
:1015D00004A819F0C9FD684619F0C6FD20460B2283
:1015E000104909F07BFC204601220F4909F076FCE6
:1015F00020460B220D4909F071FC00220C492046BF
:1016000009F06CFC284619F0CFFA19B0F0BD00BF04
:1016100058DCFF1F7442020088420200704F020033
:10162000BC480200A044020088430200AC4402000F
:10163000DC79020070B5800182B0C5B272B63F4C51
:101640003F490423012201A8FFF7B8F8E37A019A81
:10165000BBB172B6E37AD807194606D53948E168B6
:1016600006683140A161016019469B0706D53648DE
:1016700023690668E17A3340E36103604E0755D47D
:1016800062B62368D968914207D030481860304963
:10169000DA6042F080401861196001210A2017F0D9
:1016A000E1FC0021092017F0DDFC23684FF0004128
:1016B0000622D9625A63DA6A002AFCDA4FF0004245
:1016C000996BDA625D63DA6A002AFCDA9D6B4FF08F
:1016D00000410022D962EDB25A63DA6A002AFCDACC
:1016E000E27A9E6B1549134682B1D00703D5194B98
:1016F000896919601346920703D5174AE169E37AAD
:1017000011605B0702D5154B226A1A60012109207E
:1017100017F0A8FC00210A2017F0A4FC62B605F01F
:101720000F00F6B246EA002002B070BD0C496369B2
:101730000868034023620B60A2E700BFF48AFF1F22
:1017400040420F0080E100E084E100E001403F0002
:1017500000003F8000E100E004E100E008E100E07B
:1017600088E100E02DE9F04196B0684658223D49F5
:1017700016F0EAFD142400250220FFF75BFF054464
:10178000142017F0ABFC013CF6D128461DF0EEFA10
:1017900035491DF03FFB35491DF0F0FB3449074644
:1017A0001DF0EAFC00284DD1324938461DF0D0FC2E
:1017B00000284BD1029E384631461DF0C9FC002856
:1017C0004AD0012400E02C46651C38465DF835609F
:1017D00031461DF0BDFC0028F5D116AB03EBC50565
:1017E00003EBC40455F8545C54F8540C29461DF01E
:1017F00007FA3146804638461DF002FA0146404657
:101800001DF008FB3146074654F8580C1DF0F8F956
:10181000014638461DF0B2FB29461DF0F3F9164982
:101820001DF0ACFB1DF0D2FC00EB80001DF09EFA19
:10183000002104461DF08CFC60B9104920461DF0C3
:10184000A5FC58B1642016B0BDE8F081204616B062
:10185000BDE8F0810020F6E70125BEE720461DF037
:10186000B5FCF0E7143E02000AD7A3400000A047F1
:1018700066668640CDCC4C400000A0400000C842C7
:1018800070B5012182B02148214C224D17F04EFE47
:101890000120FFF7CFFE0146204619F0FDF928464A
:1018A000012117F043FE0020FFF7C4FE0146204649
:1018B00019F0F2F92846012117F038FE164B186886
:1018C0001CF0FEFD022602460B460096204619F04B
:1018D000EBF92846012117F029FE142016F04AFFE3
:1018E0000146204619F0D8F92846012117F01EFEBE
:1018F000152016F03FFF0146204619F0CDF90748A4
:10190000012102B0BDE8704017F010BE6C42020029
:10191000E497FF1F70420200C8B6FF1FC8690200AB
:1019200030B5334B5B6BB3F57A7F83B0044633D36A
:10193000304B1B68019301981DF014FA2E4B05469D
:1019400018681DF00FFA014628461DF059F92B4979
:101950001DF014FB2A4B20601868012831D00228A2
:101960003DD008B103B030BDFFF764FE60600120D8
:10197000FFF760FEA0600220FFF75CFE214BE060F5
:101980001B686361052017F073FB2083042017F0A8
:101990006FFB608303B030BD17F07EFB1DF0E2F9F2
:1019A000194B054618681DF0DDF9014628461DF063
:1019B00027F916491DF0E2FA114B2060186801283A
:1019C000CDD10E2016F0D6FE20620F2016F0D2FEEA
:1019D0006062102016F0CEFE0A4BA062D0E70C48E1
:1019E00014F058F80A4814F095F8064BE061C7E780
:1019F000AC8AFF1FA4E2FF1F0CDCFF1F00007A442B
:101A00000CDDFF1FC8B6FF1F80CBFF1F00247449E9
:101A100010DDFF1FF0B5104C104B85B000220127E0
:101A20004026802105468DE8420020461146029757
:101A300013F0F2FC00221146204613F00BFF204663
:101A400013F062FA284617F049FB204605B0BDE8BE
:101A5000F04013F07FB800BFF0BAFF1F6C3E0200E9
:101A600070B50D4C0D4B84B000220126402580211D
:101A700020468DE86200114613F0CEFC002220467D
:101A8000114613F0E7FE204613F03EFA204604B05C
:101A9000BDE8704013F05EB8F0BAFF1F146002009A
:101AA00070B50D4C0D4B84B00022012640258021DD
:101AB00020468DE86200114613F0AEFC002220465D
:101AC000114613F0C7FE204613F01EFA204604B05C
:101AD000BDE8704013F03EB8F0BAFF1F1464020076
:101AE00010B5012184B00446184813F0B7FE012157
:101AF000164813F0B9FE00220120402180230290F5
:101B0000019100931146124B104813F085FC0C22F2
:101B100026210E4813F09EFE0E4B1B788BB90E4902
:101B20000A48FEF739FE00221146084813F092FEDB
:101B3000064813F0E9F9204604B0BDE8104017F05C
:101B4000CDBA06490148FEF727FEECE7F0BAFF1FC1
:101B50001458020074A2FF1F084502000445020049
:101B600010B501210446124813F078FE28222621E0
:101B70000F4813F06FFE0F4B1B68A3B904220E49E8
:101B80000B4818F0D5FF0A4819F00EF8002211464C
:101B9000074813F05FFE064813F0B6F92046BDE88B
:101BA000104017F09BBA05490148FEF7F5FDEDE737
:101BB000F0BAFF1F90DCFF1F084502000445020039
:101BC00010B501210446124813F048FE0C2264218E
:101BD0000F4813F03FFE0F4B1B78A3B904220E49A8
:101BE0000B4818F0A5FF0A4818F0DEFF0022114646
:101BF000074813F02FFE064813F086F92046BDE88B
:101C0000104017F06BBA05490148FEF7C5FDEDE736
:101C1000F0BAFF1F04DCFF1F084502000445020064
:101C200010B5012184B00446174813F017FE28228E
:101C30006421154813F00EFE144B1B78FBB91449B0
:101C40001148FEF7A9FD13210A2201238DE80E0099
:101C50000D48104B36226C2113F0DEFB002211469A
:101C6000094813F0F7FD084813F04EF9204617F025
:101C700035FA054804B0BDE8104012F06BBF0649C4
:101C80000148FEF789FDDEE7F0BAFF1FBCDCFF1F4D
:101C900008450200F45302000445020070B5574E97
:101CA000574D584906F110042046042209F016F950
:101CB00029462046012209F011F920460F225249F7
:101CC00009F00CF929462046012209F007F92046BF
:101CD00011224E4909F002F929462046012209F055
:101CE000FDF820460F224A4909F0F8F82946204617
:101CF000012209F0F3F820460F22464909F0EEF8D8
:101D000029462046012209F0E9F8204605224249E9
:101D100009F0E4F829462046012209F0DFF82046C0
:101D200005223E4909F0DAF829462046012209F049
:101D3000D5F8204607223A4909F0D0F8294620462E
:101D4000012209F0CBF820460322364909F0C6F8F3
:101D500029462046012209F0C1F820460A223249CC
:101D600009F0BCF829462046012209F0B7F82046C0
:101D700008222E4909F0B2F829462046012209F02E
:101D8000ADF820460F222A4909F0A8F82946204636
:101D9000012209F0A3F820460A22264909F09EF8FC
:101DA00029462046012209F099F820460D222249B1
:101DB00009F094F829462046012209F08FF82046C0
:101DC0000E221E4909F08AF829462046012209F010
:101DD00085F820460E221A4909F080F82946204647
:101DE000012209F07BF820460922164909F076F80D
:101DF0003046BDE8704018F0D7BE00BF58DCFF1F6A
:101E0000884302005C4502006445020074450200FC
:101E10008845020098450200A8450200B04502002E
:101E2000B8450200C0450200C4450200D04502008A
:101E3000DC450200EC450200F845020008460200BD
:101E400018460200284602002DE9F041744B754CFB
:101E50001B68754D84B004F11006039307460023F8
:101E6000039920460A2218F0D7FE2946012230465F
:101E700009F034F838681CF023FB4FF002080B46D9
:101E80000246CDF80080204618F00EFF29460122B8
:101E9000304609F023F878681CF012FBCDF800807A
:101EA0000B460246204618F0FFFE29460122304626
:101EB00009F014F8B8681CF003FBCDF800800B465D
:101EC0000246204618F0F0FE29460122304609F06D
:101ED00005F8F8681CF0F4FACDF800800B460246CD
:101EE000204618F0E1FE29460122304608F0F6FFB0
:101EF00038691CF0E5FACDF800800B460246204612
:101F000018F0D2FE29460122304608F0E7FF786932
:101F10001CF0D6FACDF800800B460246204618F099
:101F2000C3FE29460122304608F0D8FFB8691CF0EC
:101F3000C7FACDF800800B460246204618F0B4FEE2
:101F400029460122304608F0C9FFF969204618F0F9
:101F5000A3FE29460122304608F0C0FF386A1CF073
:101F6000AFFACDF800800B460246204618F09CFEE2
:101F700029460122304608F0B1FF786A1CF0A0FA29
:101F8000CDF800800B460246204618F08DFE29460B
:101F90000122304608F0A2FFB86A1CF091FACDF891
:101FA00000800B460246204618F07EFE294601229C
:101FB000304608F093FF796B204618F06DFE2946F5
:101FC0000122304608F08AFFB96B204618F064FE03
:101FD00029460122304608F081FF142016F0CAFB82
:101FE0000146204618F058FE29460122304608F0E6
:101FF00075FF152016F0BEFB0146204618F04CFE7A
:1020000001222946304608F069FFF96B204618F096
:1020100043FE204618F0C8FD04B0BDE8F08100BFC3
:10202000A4E2FF1F58DCFF1F884302002DE9F041A6
:10203000354E364FB46B3868201A1CF097FE344981
:102040001CF0E8FE33491CF0E5FE33491CF096FF16
:102050001DF0BCF8804620461CF088FE2C491CF080
:10206000D9FE2C491CF0D6FE2B491CF087FF2B49CA
:102070001CF084FF2A4BB8F1090F0546186027DCD5
:10208000284BF66AD3F80080274B18681CF06EFEC8
:1020900031461CF0B5FD2549044628461DF058F888
:1020A00000282CD1414620461CF068FF204B2149D6
:1020B000186020461CF0AEFE1F49204C1CF05EFF4D
:1020C00000211CF09FFD1DF081F82060BDE8F0812B
:1020D0001B4BF66AA3F12400014653F8042D5A6005
:1020E0008B42FAD1416A066030461CF089FD0F49E7
:1020F0001CF044FF0B4B3C6080461860C4E711495C
:1021000020461CF03BFFD1E718DCFF1F98DCFF1FC7
:1021100000002043D00F49400010244700007A44BB
:102120007CA2FF1F7CCBFF1FA88AFF1FCDCCCC3D1C
:102130006CCBFF1F0000C8420000B44278A2FF1F12
:1021400064CBFF1F00003041184B2DE9F0411E68A1
:10215000002E28DD164A174B1268044653F8220059
:102160000D461CF003FE14491CF054FE13491CF0EC
:1021700051FE134B804618681CF0F8FD04EB8606F0
:10218000043D0746236854F8040FC01A1CF0EEFD06
:1021900039461CF03FFE014640461CF0EFFEA642C9
:1021A00045F8040FEED10020BDE8F08184A2FF1FA6
:1021B0008C8AFF1F448AFF1FD00F49406666664025
:1021C000888AFF1F70B50A4E3368002B0EDD041F8E
:1021D000002554F8040F1CF073F919F089FA1CF06B
:1021E000BBFC336820600135AB42F2DC002070BDDF
:1021F00084A2FF1F08B516460C46054608461B4933
:10220000FEF7B2FA31462046FEF7C6FAD5F86C342E
:102210004BB15B7B3BB9EB7903B1FEE72046144938
:10222000FEF7BAFAF9E713492046FEF79DFAD5F80A
:102230006C34B3B1597B00231022204618F0ECFC1B
:102240000D492046FEF790FAD5F86C345BB1197C45
:1022500000231022204618F0DFFC204618F0A4FCD2
:10226000DBE72A21E7E71946F2E700BF3446020020
:102270004C4602003C4602004846020070B5384811
:102280008AB008F081F8374B1B68012B52D0022B23
:102290004AD0A3B3344E741E00252B46324A33492C
:1022A0008DF8045001A88DF805508DF8065008F0FF
:1022B00005FA50B32E212C481EF08AF8002844D08D
:1022C000431EB34216D310F8012CA2F130010929A4
:1022D00010D8392A0BD1302003F80109A34209D0C4
:1022E0001A78A2F13001092904D8392AF4D0013230
:1022F0001A70D1E71E4A1F491C48FFF77BFF1E4B8F
:10230000194C0FCB07C42380C4E740F202221649C0
:10231000134808F0DBF998B14FF08041104808F0FD
:1023200007FAB8B10AB070BD144B0F4C0FCB07C4FD
:102330002380AFE7124B0C4C0FCB07C42380A9E7D7
:10234000104A0C490948FFF755FF0F4A0949074849
:10235000FFF750FF0D4A07490448FFF74BFF00BF46
:1023600050A2FF1F0CDDFF1F908AFF1F8CA2FF1FD2
:10237000604602000C98FF1FB4460200C4460200EB
:10238000D44602008C46020078460200A0460200B5
:1023900010B52948047C8EB0002C39D004A9103027
:1023A000282209F061FE04A82E211EF011F8002851
:1023B0003DD004222149013015F0C6FF40F20162F0
:1023C00004A91F4808F082F9044658B3FEF770FDCF
:1023D00004A9684618F008FF69461A4818F08EFFED
:1023E000684618F0C1FE0921174818F065F804A8DE
:1023F0001EF066FA014604A818F05EF81D21134885
:1024000018F05AF8124818F0CFFB20460EB010BD55
:102410001621104818F050F80D4818F0C5FB20465A
:102420000EB010BD0C4A0A490C48FFF7E3FE0C4AF7
:1024300007490A48FFF7DEFE40A2FF1FFC460200E4
:10244000ACCBFF1FA0DCFF1F144702002047020097
:102450000C98FF1FE4460200004702008CA2FF1FF9
:102460007846020030B5014683B0054600221F4879
:1024700008F02CF9002833D00A211D481D4C18F013
:102480001BF81D4818F090FB28461EF019FA01466B
:10249000284618F011F8184818F086FB2546237CCA
:1024A0001B070BD40A21124818F006F8124818F03E
:1024B0007BFB0E4807F068FF03B030BDEA6A6B6A29
:1024C0009A42EFD001220DF10701084808F058F9AF
:1024D00001280CBF9DF80700FF2018F071F8DEE717
:1024E000064A05490648FFF785FE00BF68DCFF1F66
:1024F0004C47020058DCFF1F0C98FF1F40470200AA
:102500008CA2FF1F30B5124D8BB000240023104A5F
:1025100010498DF8044001A88DF805408DF806405B
:1025200008F0CCF868B16B79392B02D001336B71AC
:10253000ECE72B79392B06D0013330222B716A71ED
:10254000E4E70BB030BD044A04490248FFF752FEED
:10255000E48AFF1F8CA2FF1F604602000C98FF1F39
:1025600010B51C21044618F043FF204610BD00BFE3
:102570002DE9F043624A634B10681B68624C634D5F
:10258000634EDFF80C828DB000FB03F01CF0EEFB15
:10259000604A614B1268074653F822001CF0E6FBC4
:1025A0005E491CF0EBFC5E491CF034FC01463846E9
:1025B0001CF0E4FC1CF00AFE20605A485A4F00242C
:1025C00013F060F90123594A049302930193039293
:1025D00028230094214628464FF0FF3213F0DCFAFE
:1025E0003246534928461BF001FE5248524D13F023
:1025F00019FE2146482251481DF040FC504A514BDB
:102600001268514853F82220504BC4711A600223BB
:1026100003724F4BC0F87834292380F87D344D4B3A
:1026200080F84844324680F8494480F84A44C0F86B
:102630006C4480F8814480F8884480F89844C0F85D
:10264000703445491BF0D2FD444B454A1C714FF490
:102650007A791C731C745C749C74C3F808901F60B6
:10266000404B14711C71C3F808901C731C745C748B
:102670009C742146C2F808901473147454749474B2
:1026800040461F60176018F0AFFD3246404636499D
:102690001BF0ACFD2B680793DDF81CC02B6808937A
:1026A00008982B680993DDF824E0304B2A680A92D9
:1026B0002F49304A1F60C3F808901C711C731C74AA
:1026C0005C749C742C4B2D4CC2F800C008600A9AB4
:1026D0002B48C4F800E004211A602A4C12F022FAB8
:1026E0002B680B93284B0B9A1A60204614F054FF6A
:1026F0003246204625491BF079FD0DB0BDE8F08338
:10270000888AFF1F848AFF1F84A2FF1FD4CBFF1F6C
:102710003C8AFF1F8C8AFF1F448AFF1F00007A44F7
:10272000D00F494010DDFF1FF83D0200C02709000F
:102730005D050000FCB9FF1FA4E2FF1FC0DCFF1F06
:10274000E08AFF1FAC8AFF1F8CA2FF1F9CDCFF1FCB
:1027500001100138086A02005905000040A2FF1F5D
:102760009CCBFF1FE8A1FF1F69B1010058DCFF1FD0
:1027700010DCFF1F3CBBFF1F8CDCFF1F94DCFF1F26
:10278000F0BAFF1F20A2FF1F94CBFF1F9D75010011
:10279000A0DCFF1FFFFFFFFF2DE9F0476C4D6D4CE4
:1027A0006D4E6E4F642382B080462B6016F074FC31
:1027B0005FFA88F82060A24606F58059404615F079
:1027C000D9FF1BF06BFE00220023E7E90223E6E9B4
:1027D000020116F061FC22682B68801A9842F8D337
:1027E00013444E45CAF80030E8D1012423464FF483
:1027F00000725B495B48009415F07AF84FF400735F
:10280000594A57495748009415F02EF84FF4007371
:10281000554A5349534815F03DF84BA1D1E9000101
:102820004FF40072CDE900014D494E4815F0DCFA35
:1028300006460F464D48214613F010F821464B48F6
:1028400013F012F800225A21484813F003F83046DA
:102850003946002200231CF00DF9002869D000221F
:10286000434B304639461BF0CDFC1CF02DF9014698
:102870003E48DFF8EC80DFF8049118F00DFA0022F2
:1028800073213A4812F0E6FF3A493848FDF76CFFE9
:1028900000221146354812F0DDFF012519E0002025
:1028A00035491BF0ADFC1CF00FF9394604B2304637
:1028B0001CF00AF900B201210B460090019122465A
:1028C00029B22A481D4412F08DFC802D08F1100811
:1028D0002CD000220023D8E904011BF093FCD8E996
:1028E00006231BF08FFC0022234B1BF03DFED9E991
:1028F00000231BF063FF002200231BF083FC002257
:10290000002306460F461CF0A1F8002204461A4B8D
:1029100048B9304639461CF0B7F832463B460028E5
:10292000BDD03220C7E700203224C4E702B0BDE8A2
:10293000F08700220E4B304639461BF061FC1CF03C
:10294000C3F894E7AFF30080000000000088C340A4
:10295000CCB6FF1F98CBFF1FF8CBFF1F38BBFF1F64
:1029600000CCFF1F20A2FF1F40BBFF1FF0BAFF1FBC
:102970000000E03F5847020000004940A08AFF1FC6
:1029800070B5184C82B00122222305460E4620461F
:10299000019200930F2268230A2112F023FC0022E7
:1029A0001C23204601920093122262230D2112F073
:1029B00019FC20461822172112F04CFF28461DF062
:1029C0007FFF29460246204618F0B2F8204612F052
:1029D0009BFA304616F082FB204602B0BDE87040FC
:1029E00012F0B8B8F0BAFF1F2DE9F043514CDFF8F0
:1029F0008091DFF88081504F8BB0642016F06EFB21
:102A000022780023C9F80030C8F800303B60002A63
:102A10006FD0FFF725F83B68002B5CD000244FF007
:102A20000A0E464E8DF8054003948DF804E0029698
:102A300001AB93E8070004AB83E807008DF810E0D2
:102A40008DF811400596069493E8070007AB83E8DC
:102A500007003B4DC9F8004005F58E690ECB48468E
:102A6000C8F800403C6085F88CE485F88D44C5F8D2
:102A70009064C5F894440AF0F5FA95F87D34C5F8E9
:102A80006C948BB12F4B304800220C211A7017F038
:102A900013FD2E4818F088F82D484FF47A710BB0CA
:102AA000BDE8F043FFF76CBF49460122284609F014
:102AB00085FC0028E6D005F5896007F065FC29460D
:102AC00005F5896007F02EFE0028DBD0214B1D6044
:102AD0000BB0BDE8F08340F6D8640320FEF7AAFDF2
:102AE000A0421D489ADD10F02FF93B68002B95D1CC
:102AF000F3E719480EF0DCFA01230A211748237086
:102B00000BF084FC034650B90E4A15490F48137068
:102B1000FDF742FE13490D48FDF73EFE79E7124AE4
:102B20000E490D4810F0E4FA10490848FDF734FE4C
:102B3000F0E700BF74CBFF1F68CBFF1F80F0FA02E5
:102B40008CA2FF1F74A2FF1FB04702000C98FF1F4A
:102B5000C047020048DDFF1F308BFF1F5CDDFF1FF9
:102B600098470200A44702005C4702006447020045
:102B7000E8BAFF1F84CBFF1F2DE9F0430A208BB07A
:102B800015F0C4FDBF4DC048C04CC14FDFF8909355
:102B90004FF4E13117F07EFEBB4815F0B9F940F271
:102BA000EE282E6804E0B3F5FA6F15D818F038FC5B
:102BB00018F036FC237843B13B78DB0705D52B684A
:102BC000D9F800209B1A0E2B06D82B6822789B1B65
:102BD000002AE8D14345E9D9AE48AF4C15F09EF93B
:102BE0000221102016F052FA10230E220F21AB48BA
:102BF00012F050FEFA2016F071FAA84812F04AFFBF
:102C0000812800F01B820123A549A2482370FDF70B
:102C1000C3FD2478002C00F004820021142016F05B
:102C200035FA0021152016F031FA0221012016F0A4
:102C30002DFA0221084616F029FA0221032016F087
:102C400025FA0221002016F021FA0221052016F0B3
:102C50001DFA0221042016F019FA032291490120DD
:102C600016F0AAF803229049022016F0A5F80322D4
:102C700010468E4916F0A0F802228D49002016F069
:102C80009BF802228B49052016F096F801210A20B4
:102C900016F0FCF90121092016F0F8F901210A20AB
:102CA00016F0E0F90121092016F0DCF901233C229D
:102CB0000221814811F0C6FF7F4811F04BFF7F4889
:102CC00014F044FC14F03AFC02280BD07C497A48FA
:102CD000FDF762FD7A496F48FDF75EFD4FF4FA702B
:102CE00016F0FCF96420FEF795FE16F0D5F9754B49
:102CF000754E186000250A2705F0C2FA8DF8047099
:102D00008DF805500395029601AB93E8070004ABDC
:102D100083E807008DF810708DF811500596069520
:102D200093E8070007AB83E80700684C04F58E685A
:102D30000ECB404684F88C7484F88D54C4F89064AB
:102D4000C4F894540AF08EF994F87D34C4F86C8475
:102D5000002B00F019815E4D5E494E4800232B7018
:102D6000FDF71AFD5C4805F0FBF9012200235B49E1
:102D70006846FDF723FD0099574805F053FA0320F4
:102D8000FEF758FC40F6D864A042554BD4BF002251
:102D9000012203201A70FEF74DFCA04203DD2B78C0
:102DA000002B40F0E7806420FEF79AFE0C214D488E
:102DB00013F09EF90446002800F0B4804A493548D3
:102DC000FDF7EAFC494B01221A60494C6420FEF7EA
:102DD000C7FE204615F06AFA0346002845D0204673
:102DE00015F064FAC82016F079F9204615F05EFA5D
:102DF000206A4049404C1BF003FF40491CF00AF890
:102E00004FF078511CF006F800211BF0FBFE3C4906
:102E10001CF000F839491CF0B1F81CF0D7F9394B17
:102E20002060012238491B481A70FDF7B5FC374B6A
:102E300004221A606420FEF7C3FE354E354D364C31
:102E40006420FEF7EDFE002333602B6023600A2030
:102E500016F044F92368304A002BF8D00023336081
:102E60002B6013600BB0BDE8F083264A2B4909485C
:102E70001370FDF791FC4FF4E131034817F00AFDA0
:102E8000D8E700BFA4E2FF1FE497FF1F2CE4FF1F59
:102E900044E4FF1F0C98FF1FBCDCFF1F10DDFF1F69
:102EA000E047020079040000B9040000F9040000C2
:102EB000DD06000081050000F0BAFF1F910600004A
:102EC000F4470200F0B9FF1F80F0FA028CA2FF1F46
:102ED00074A2FF1F90480200F48AFF1F00093D0002
:102EE00080A2FF1FD4CBFF1F2448020090DCFF1FED
:102EF00018DCFF1F00000842A88AFF1F0000C8421C
:102F00000000B44204DCFF1F6C48020014DCFF1F09
:102F1000E8BAFF1F84CBFF1F68CBFF1F7C4802006D
:102F2000B4E4FF1F6A4813F0A1FE054628B36949BF
:102F30006948FDF731FC694B6548022201211A609E
:102F400013F074FF2146624813F084FF2146604865
:102F500013F094FF21465E4813F0AEFF76216048DF
:102F600013F0DAFB00283FF430AF5E495A48FDF712
:102F700013FC2AE7FFF738FD15E75B495648FDF7D4
:102F80000BFC564B1D6020E741460122204609F00C
:102F900015FA00283FF4DFAE04F5896007F0F4F974
:102FA000214604F5896007F0BDFB00283FF4D3AE4D
:102FB0004E4B4F4D4F4948481C6001262E70FDF77F
:102FC000EBFB4D4AD4F86C04092109F027FE4B4B6A
:102FD000D4F86C04E2791A6010B1077E002F53D048
:102FE000474809F0ADF9064630461BF0BBFE45499F
:102FF0001BF010FF33460746434A207913601BF04D
:10300000B5FE39461BF006FF3B4B40491A78086075
:1030100012F0C00219D0402A49D000203C4B186061
:10302000A0E621460E2016F031F821460F2016F0BA
:103030002DF82146102016F029F8EEE50023354939
:1030400025482370FDF7A8FBE3E5587ADA799C79E7
:103050009F7A59791E7A00F00300920004F003036E
:10306000400001F00F0142EA832340EAD7100844F0
:1030700043EA96130133073803FA00F01BF072FE9F
:1030800020491BF0C7FEC9E7314609F0FDFF58B1E2
:10309000204609F055F90646D4F86C0420B13946AB
:1030A00009F0F2FF00289FD100270023A4E7D97977
:1030B0005A7A187A531C01F03F0203EB024303EBE8
:1030C000002080021BF04EFE0E491BF0A3FEA5E778
:1030D000C0DCFF1F344802000C98FF1F90DCFF1F6C
:1030E000FCB9FF1F484802005848020048DDFF1F96
:1030F00074A2FF1F104802002CBBFF1F70CBFF1FE4
:103100008CA2FF1FBD37063A90CBFF1FE4A1FF1F23
:10311000ECBAFF1FCC47020070B5314C82B020469C
:10312000012112F09BFB13222E49204617F000FDCF
:10313000204617F039FD2046012112F095FB20466C
:10314000022112F08BFB284A284B16681D6828497B
:1031500000222046642303FB06F3013593FBF5F5BB
:1031600017F0E6FC204617F01FFD012220462149FA
:1031700017F0DEFC2946204617F08EFD022220467D
:103180001D4917F0D5FC1D4B18681BF099F9022654
:103190000B4602460096204617F086FD204617F0A3
:1031A00003FD00221146204612F054FB144BED01A2
:1031B00083FB0523ED17C5EB6313012108221BB226
:1031C0002046019100920021342212F00BF8204693
:1031D00011F09AFE204602B0BDE8704011F0BABC72
:1031E000F0BAFF1FAC48020008DDFF1F84A2FF1FDA
:1031F000DC790200244D0200C0480200C8B6FF1F5F
:103200001F85EB5170B5234C82B00126282305465B
:103210000A222046009301968023002111F0E2FF4C
:103220002046022112F01AFB2046002112F01CFB5E
:1032300000221949204617F07BFC204617F0B4FC09
:1032400008221649204617F073FC204617F0ACFC04
:103250003146204612F002FB0A221149204617F09F
:1032600067FC28461DF02CFB29460246204617F035
:103270005FFC204617F098FC00222046114612F011
:10328000E9FA204611F040FE204602B0BDE8704049
:1032900011F060BCF0BAFF1FDC790200C4480200E4
:1032A000D04802002DE9F04F8FB002AFFFF72AF9A6
:1032B00065480AF023F840F601226449644807F0A3
:1032C00005FA002800F0B783142262496048DFF84D
:1032D000C09107F003FE12225F495D4807F0FEFD32
:1032E00014F0CAF80A22014607F1200017F0AEFFD9
:1032F00007F12001594817F031FC07F1200017F0C1
:1033000033FF01225649524807F0E8FD14F0C4F893
:103310000A22014607F1200017F098FF07F120016B
:103320004E4817F01BFC07F1200017F01DFF01228B
:103330004C49474807F0D2FD14F0CEF80A22014666
:1033400007F1200017F082FF07F12001434817F032
:1033500005FC07F1200017F007FF012242493C4815
:1033600007F0BCFD14F0C8F80A22014607F120005E
:1033700017F06CFF07F12001384817F0EFFB07F159
:10338000200017F0F1FE01223749314807F0A6FD71
:1033900014F0C2F80A22014607F1200017F056FF88
:1033A00007F120012D4817F0D9FB07F1200017F095
:1033B000DBFE2A4817F0F8FB10222C49244807F0BE
:1033C0008DFD2B4A2B4B1268244853F8221017F01E
:1033D00063FC292228491E4807F080FD01211F486F
:1033E00017F05AFC1D4817F0DFFB1C222349184830
:1033F00007F074FD224B1948196817F04DFC202284
:103400002049134807F06AFD1F4B1448196817F04C
:1034100043FC124817F0C8FBD9F80020960006F1CB
:103420000A0323F00703ADEB030D02A9ADEB030D77
:1034300002AB002AB961FB6139DD144DD5F800807B
:103440000E4440460C4627E0F9050000E48AFF1FC1
:1034500068DCFF1FDC4802007442020058DCFF1FDA
:10346000704F0200F448020088420200B844020093
:103470008C8AFF1F448AFF1FF8480200244902007B
:10348000408AFF1F44490200888AFF1F28A7FF1FA8
:1034900084A2FF1F55F8040FC8EB00001BF066FC68
:1034A000AF491BF06BFD44F8040BB442F2D1F9694B
:1034B000AC48FEF749FED9F80040002C40F3648286
:1034C000BE69A5004FF0000A06EB0508504656F805
:1034D000041B1BF097FB4645F9D1824620461BF0A2
:1034E00045FCFB69B860014650461D441BF046FD93
:1034F000D7F81C800646002358F8041B18461BF01A
:1035000081FBA8450346F7D1BB69B968043B1D465A
:103510003B61FB69043B7B611BF030FDD7F814A0D5
:103520007E60AB465646F8604FF000080025DA464C
:1035300056F8041F5AF8040F1BF06CFC0146404675
:103540001BF060FB0135A5428046F1DB7E684FF041
:10355000000A002531465BF8040F1BF051FB0146C1
:103560001BF058FC014650461BF04CFB0135A542B0
:103570008246EFDBB86831461BF04CFCD7F80CB044
:1035800059461BF047FC014640461BF039FB5146AB
:103590001BF0F4FC05460146786030461BF03AFC0F
:1035A000014658461BF02CFB2946B86028461BF004
:1035B00031FCD7F8108082464FF0000B00253146D1
:1035C00058F8040F1BF01CFB01461BF023FC0146BE
:1035D00058461BF017FB0135A5428346EFDB5146E9
:1035E0001BF018FC7E69D7F80CB082464FF000083B
:1035F0000025594656F8040F1BF002FB01461BF04C
:1036000009FC014640461BF0FDFA0135A542804603
:10361000EFDB414650461BF0B1FC1AF051FF18F0A9
:103620005DFA044650480D4617F0BEFA0F224F4986
:103630004F4807F053FC4C4817F0B6FA03224D49A7
:103640004B4807F04BFC78681AF03AFF04260B460B
:1036500002460096444817F027FB434817F0A4FAA7
:1036600003224549424807F039FCB8681AF028FFA0
:103670004FF0030ECDF800E00B4602463A4817F033
:1036800013FB394817F090FA32463C49384807F0A6
:1036900025FC22462B46204629461AF065FF1BF0E2
:1036A0005BFA1AF00DFF052402460B4600942E48E3
:1036B00017F0FAFA2C4817F077FAF869FEF782FD4E
:1036C000D9F80040002C40F38A81BE69A5004FF074
:1036D000000A06EB0508504656F8041B1BF092FA48
:1036E0004645F9D1824620461BF040FBFB69F86055
:1036F000014650461D441BF041FCD7F81C8006468D
:10370000002358F8041B18461BF07CFAA845034612
:10371000F7D1BB69F968043B1D463B61FB69043B7B
:103720007B611BF02BFCD7F814A07E60AB4656469D
:10373000B8604FF000080025DA4656F8041F5AF822
:10374000040F1BF067FB014640461BF05BFA013596
:10375000A5428046F1DB7E684FF0000A00250FE0AD
:1037600000007A4428A7FF1F58DCFF1F68490200A9
:1037700068DCFF1F784902007C4902008049020092
:1037800031465BF8040F1BF03BFA01461BF042FB8D
:10379000014650461BF036FA0135A5428246EFDB62
:1037A000F96830461BF036FBD7F808B059461BF0D5
:1037B00031FB014640461BF023FA51461BF0DEFB6D
:1037C00005460146F86030461BF024FB014658468A
:1037D0001BF016FA2946786028461BF01BFBD7F829
:1037E0001080824600254FF0000B314658F8040F38
:1037F0001BF006FA01461BF00DFB014658461BF074
:1038000001FA0135A5428346EFDB51461BF002FB6E
:10381000D7F81480D7F808B082460026002559460C
:1038200058F8040F1BF0ECF901461BF0F3FA0146BF
:1038300030461BF0E7F90135A5420646EFDB31467D
:1038400050461BF09BFB1AF03BFE18F047F904466C
:103850007B480D4617F0A8F913227A497A4807F0F9
:103860003DFB774817F0A0F903227849764807F026
:1038700035FBF8681AF024FE04260B460246009633
:103880006F4817F011FA6E4817F08EF9032270494D
:103890006D4807F023FB78681AF012FE17F0ACFEB3
:1038A0004FF0030ECDF800E00B460246644817F0D7
:1038B000FBF9634817F078F932466649624807F029
:1038C0000DFB22462B46204629461AF04DFE1BF0E2
:1038D00043F91AF0F5FD05240B46024600945848BA
:1038E00017F0E2F9564817F05FF9554817F05CF900
:1038F0000F225949544807F0F1FA514817F054F98A
:10390000D9F80030002B29DDBB69A3F10408FB695D
:1039100000241E1F58F8040F1AF0D2FD03250B4691
:1039200002460095464817F0BFF901224B49464828
:1039300007F0D4FA56F8040F1AF0C2FD17F05CFE37
:10394000009502460B463E4817F0AEF93C4817F08A
:103950002BF9D9F800300134A342DBDC384817F0EA
:1039600023F924223E49384807F0B8FA364806F0D1
:103970000BFD3C48FFF746FC4FF4FA6015F0AEFB38
:103980003437BD46BDE8F08F20461BF0EFF9054601
:10399000014600201BF0F2FA0446214628461BF09F
:1039A00039FA21461BF036FA0146002080461BF00A
:1039B00027F941461BF0E2FA2146054678601BF0E4
:1039C00029FA014620461BF01BF92946B860284613
:1039D0001BF020FA41461BF01DFA824619E62046EC
:1039E0001BF0C4F905460146002006461BF0C6FA46
:1039F0000446014628461BF00DFA21461BF00AFA40
:103A0000014630461BF0FCF831461BF0B7FA05467C
:103A10000146F86020461BF0FDF9014620461BF0E8
:103A2000EFF82946786028461BF0F4F931461BF080
:103A3000F1F9824603E70C4A0C490D48FEF7DAFB20
:103A400058DCFF1F8849020068DCFF1F784902002C
:103A50007C490200804902009C4902008843020020
:103A6000AC490200E48AFF1F404702000C98FF1F88
:103A70008CA2FF1F10B51D4C82B0012228232046C6
:103A8000019200930A228023002111F0ABFB204613
:103A9000022111F0E3FE2046002111F0E5FE002294
:103AA0001349204617F044F8204617F07DF8092204
:103AB0001049204617F03CF8204617F075F8072209
:103AC0000D49204617F034F8204617F06DF8002213
:103AD0002046114611F0BEFE204611F015FA204690
:103AE00002B0BDE8104011F035B800BFF0BAFF1FBA
:103AF000DC790200D4490200E049020008B56420E4
:103B000015F0ECFA0A4B1B6833B90A4B1B7813B15A
:103B1000094B1B7843B908BDFFF7ACFF4FF47A702F
:103B2000BDE8084015F0DABABDE80840FFF7BABBB7
:103B3000D0CBFF1F74A2FF1F40DDFF1F2DE9F04116
:103B40000C4682B0012180463C48164611F086FEA4
:103B500001213A4811F088FE05220A21374811F068
:103B600079FE731EA34260DC01270C2312228DE82C
:103B7000880000217323314811F034FBC4EB041595
:103B800000212E4811F070FEBD4014220A212B485E
:103B900011F060FE08EB05012848FCF7FDFD3946F1
:103BA000264811F061FE23220A21244811F052FE1A
:103BB000002C05DDA5F11E0141442048FCF7ECFD79
:103BC0002E2292FBF6F2002A2BDC01212D23321B40
:103BD000012403FB02F292FBF6F2224405238DE856
:103BE000120012B27821154811F0FCFA3722002198
:103BF000124811F02FFE14221149104816F098FFB8
:103C000032228DE81400802300210C4811F026FA9E
:103C10000A4811F079F9094802B0BDE8F04110F006
:103C200099BFC2F12E0311B2D1E7611CC1EB0111A2
:103C300008EB41010148FCF7AFFD95E7F0BAFF1F23
:103C4000E84902002DE9F04F6E4BADF5BC5D93E8FD
:103C5000030087B000906C488DF8041006F094FBC8
:103C60006A4901F5896006F05DFD002800F0C58015
:103C700000226749674806F029FD002800F0B88057
:103C80000025654C02E0654806F07EFB0022614994
:103C9000624807F02BF8074650B3237C1A07F2D589
:103CA00002A91E225D4808F0DFF902A81CF008FEF8
:103CB00002AB011F194468461CF0F6FB0028E2D154
:103CC000C72DE0DC0DF5BC531833C5EB051203EB33
:103CD0004202A2F5BB52113A0DF107030DF1250086
:103CE00013F8011F02F8011F8342F9D10135CAE719
:103CF000484806F049FB05F1FF3B002D61D00AAFB3
:103D0000CBEB0B1407EB44045E4620461CF0D8FDB9
:103D10000146204616F0D0FB013E414816F044FF14
:103D2000731CA4F11E04F0D1DFF80C91DFF8F880C9
:103D30003C4E0023C9F80030C8F800303360002D35
:103D40004CD05C464FF0000A05E0022015F0C6F9A1
:103D5000D9F800301BBB2A4621463846FFF7EEFE55
:103D6000336833B1013C25D4AC42A8BF2C46C6F819
:103D700000A0D8F80030002BE7D0FDF791FEC4EB8F
:103D8000041007EB4000FEF76DFB274B0220C3F841
:103D900000A015F0A3F9D9F80030002BDBD00023E8
:103DA000C9F80030C8F8003033600DF5BC5D07B0CD
:103DB000BDE8F08FBBF1FF3F08BF0024D7D05C46C1
:103DC000D2E7DFF87490DFF86080164EC9F8007013
:103DD000C8F8007037600DB10AAFB2E71349104858
:103DE000FCF7DAFC4FF47A711048FEF7C9FDD6E70C
:103DF0000F4A0B490548FEF7FDF90E4A08490348EA
:103E0000FEF7F8F9384A0200D4A6FF1F8CA2FF1F64
:103E100088420200F8A1FF1F58DCFF1F68DCFF1F6B
:103E20000C98FF1F68CBFF1F84CBFF1F284A02009E
:103E3000184A0200004A0200E8BAFF1F2DE9F04FBD
:103E4000BB4FBC4D3C68DFF804E3EDB006904FF487
:103E50007A7000FB01F108948EFB0160089C2E68CB
:103E60000593C917A41BC1EB6011769B04928C4289
:103E7000A3F1080A00F20A81AF4AB04B1268079218
:103E80000DF124081B68AD4F03931C461D4607F532
:103E9000C2793E464E45294610D056F804BF5846D2
:103EA0001BF074F9214600B15D4658461BF050F9ED
:103EB0000028EFD04E455C462946EED150461AF018
:103EC00055FF2146834628461AF09AFE0646039877
:103ED00001E057F8040F21461AF092FE59461AF0F5
:103EE00099FF31461BF04AF800211AF08BFE1BF0B7
:103EF0006DF94F45C0EB0A0048F8040FE9D1BDF851
:103F00001430039303F1040A079BDFF840920794EF
:103F1000013B1FFA8AFA1E210DF1280B0EE001F178
:103F2000010889FB07321FFA88F1FB17C3EB621304
:103F30007F294FF0620202FB137317D0602B03F14D
:103F40000107ECDC5BF823205BF827307C48534406
:103F500001F1010852441BB20124009312B209B2CC
:103F60000FFA88F3019411F079F8DAE7039B769958
:103F7000BDF81070079C03EB0108BDF91410059102
:103F80001FFA88F807F11E034FF0010908461BB21B
:103F90000FFA88F219460092CDF80490024668485C
:103FA00011F05CF807F1200B07F11C030FFA8AF2FD
:103FB0000FFA8BFB0FFA83FA51468DE804025B4639
:103FC0005F4811F04BF8A8F1040212B25B468DE88D
:103FD000040251465A4811F041F84946584811F038
:103FE0003DFC0021564811F03FFC7699039A544855
:103FF000CDF8049001EBD17302EB63031FFA83FA4F
:10400000AAF105020A23BDF91010009312B21E2373
:1040100011F0E8F830464B491BF0B8F87E1C36B278
:1040200028B9494920461BF0B1F8002849D0AAF127
:10403000040212B23146424811F00CFC06981BF003
:10404000C5F801463E4816F027FE01213C4811F014
:104050000BFC059A3A48314611F0FCFB28461BF050
:10406000B5F80146364816F017FEA8F10A023146A7
:1040700012B2334811F0EEFB20461BF0A7F80146C0
:104080002F4816F009FE6DB0BDE8F08F2A493C6854
:10409000086809940DF12408421C8EFB0276D4179F
:1040A000C4EB66142646622404FB1622234B0792B7
:1040B0001446069A43F82020D8F800200C602A60A5
:1040C000E0E6AAF1040212B231461D4811F0C2FB2B
:1040D00006981AF0F5F902270B4602460097184891
:1040E00016F0E2FD4946164811F0BEFB059A144849
:1040F000314611F0AFFB28461AF0E2F900970B4663
:1041000002460F4816F0D0FDA8F10A02314612B25D
:104110000B4811F09FFB20461AF0D2F90097024697
:104120000B46074816F0C0FD6DB0BDE8F08F00BF2C
:10413000A4E2FF1F94CBFF1F88A2FF1FD0B6FF1F72
:10414000F0BAFF1F000020410000C8429D82975333
:1041500030B5012183B04248424D11F07FFB01216F
:104160003F4811F081FB40493D48FCF715FB082210
:1041700014213B4811F06EFB0C223C49384816F0E4
:10418000D7FC14220021364811F064FB052238497F
:10419000334816F0CDFC286D1AF092F902240B4634
:1041A000024600942E4816F07FFD2D4816F0FCFCC8
:1041B0001E2200212A4811F04DFB05222D492848D6
:1041C00016F0B6FC686D1AF07BF900940B460246B7
:1041D000234816F069FD224816F0E6FC282200214B
:1041E0001F4811F037FB052223491D4816F0A0FC9B
:1041F000A86D1AF065F9009402460B46184816F0AF
:1042000053FD174816F0D0FC322201238DE80C0034
:1042100000218023124810F021FF3722002110488E
:1042200011F018FB154B1B6813B1154B1B788BB99C
:1042300014490B48FCF798FA00221146084811F07F
:1042400009FB074810F060FE054803B0BDE83040A8
:1042500010F080BC0C490248FCF786FAECE700BF7E
:10426000F0BAFF1F34BAFF1F404A0200544A02004E
:10427000644A02006C4A0200744A020090DCFF1F8C
:1042800074A2FF1F944A02007C4A020030B501214B
:1042900083B03F483F4D11F0E1FA01213C4811F055
:1042A000E3FA3D493A48FCF777FA082214213848E6
:1042B00011F0D0FA39493648FCF76EFA1422002181
:1042C000334811F0C7FA05223549314816F030FC61
:1042D000286E1AF0F5F802240B46024600942C488A
:1042E00016F0E2FC1E220021294811F0B3FA052243
:1042F0002C49274816F01CFC686E1AF0E1F800946F
:104300000B460246224816F0CFFC28220021204806
:1043100011F0A0FA052224491D4816F009FCA86EE8
:104320001AF0CEF8009402460B46194816F0BCFC71
:104330001E491748FCF730FA322201238DE80C00A1
:1043400000218023124810F089FE372200211048F6
:1043500011F080FA164B1B6813B1164B1B788BB902
:1043600015490B48FCF700FA00221146084811F0E5
:1043700071FA074810F0C8FD054803B0BDE83040A9
:1043800010F0E8BB0D490248FCF7EEF9ECE700BF7E
:10439000F0BAFF1F34BAFF1F404A0200AC4A0200C5
:1043A000644A02006C4A0200744A0200244D020072
:1043B00090DCFF1F74A2FF1F944A02007C4A020097
:1043C00030B5012183B04548454D11F047FA012130
:1043D000424811F049FA43494048FCF7DDF9082208
:1043E00014213E4811F036FA3F493C48FCF7D4F915
:1043F00014220021394811F02DFA05223B49374893
:1044000016F096FBD5F880001AF05AF802240B46F5
:1044100002460094314816F047FC304816F0C4FBC1
:104420001E2200212D4811F015FA052230492B4893
:1044300016F07EFBD5F884001AF042F800940B4683
:104440000246264816F030FC244816F0ADFB282220
:104450000021224811F0FEF9052226491F4816F0D6
:1044600067FBD5F888001AF02BF8009402460B463B
:104470001A4816F019FC194816F096FB1E49174801
:10448000FCF78AF9322201238DE80C0000218023F9
:10449000124810F0E3FD37220021104811F0DAF93C
:1044A000164B1B6813B1164B1B788BB915490B487B
:1044B000FCF75AF900221146084811F0CBF90748D9
:1044C00010F022FD054803B0BDE8304010F042BBBB
:1044D0000D490248FCF748F9ECE700BFF0BAFF1FAE
:1044E00034BAFF1F404A0200C04A0200644A020078
:1044F0006C4A0200744A0200244D020090DCFF1F47
:1045000074A2FF1F944A02007C4A020030B50121C8
:1045100083B04348434D11F0A1F90121404811F007
:10452000A3F941493E48FCF737F9082214213C48D9
:1045300011F090F93D493A48FCF72EF91422002178
:10454000374811F087F905223949354816F0F0FA55
:10455000286B19F0B5FF02240B4602460094304840
:1045600016F0A2FB2E4816F01FFB1E2200212C483D
:1045700011F070F905222F49294816F0D9FA686B15
:1045800019F09EFF00940B460246254816F08CFB5E
:10459000234816F009FB28220021214811F05AF97E
:1045A000052225491E4816F0C3FAA86B19F088FFAA
:1045B000009402460B461A4816F076FB184816F08F
:1045C000F3FA1E491648FCF7E7F8322201238DE87A
:1045D0000C0000218023124810F040FD37220021FA
:1045E0000F4811F037F9164B1B6813B1154B1B78A8
:1045F0008BB915490A48FCF7B7F80022114608485C
:1046000011F028F9064810F07FFC054803B0BDE81A
:10461000304010F09FBA0D490148FCF7A5F8ECE7CF
:10462000F0BAFF1F34BAFF1F404A0200CC4A020012
:10463000644A02006C4A0200744A0200244D0200DF
:1046400090DCFF1F74A2FF1F944A02007C4A020004
:1046500030B5012183B04248424D11F0FFF80121ED
:104660003F4811F001F940493D48FCF795F8082210
:1046700014213B4811F0EEF83C493948FCF78CF81E
:1046800014220021364811F0E5F805223849344853
:1046900016F04EFA286F19F013FF02240B4602465B
:1046A00000942F4816F000FB2D4816F07DFA1E22CC
:1046B00000212B4811F0CEF82E492948FCF754F878
:1046C000686F19F0FDFE00940B460246244816F070
:1046D000EBFA234816F068FA28220021204811F04E
:1046E000B9F825491E48FCF73FF8A86F19F0E8FE15
:1046F000009402460B461A4816F0D6FA184816F0EF
:1047000053FA1E491648FCF747F8322201238DE878
:104710000C0000218023124810F0A0FC3722002159
:104720000F4811F097F8164B1B6813B1154B1B7807
:104730008BB915490A48FCF717F8002211460848BA
:1047400011F088F8064810F0DFFB054803B0BDE81B
:10475000304010F0FFB90D490148FCF705F8ECE7CF
:10476000F0BAFF1F34BAFF1F404A0200DC4A0200C1
:10477000644A02006C4A0200744A0200244D02009E
:1047800090DCFF1F74A2FF1F944A02007C4A0200C3
:1047900030B5012183B04348434D11F05FF801214A
:1047A000404811F061F841493E48FBF7F5FF082207
:1047B00014213C4811F04EF83D493A48FBF7ECFF14
:1047C00014220021374811F045F83A493548FBF7E3
:1047D000CBFF286C19F074FE02240B4602460094AD
:1047E000304816F061FA2F4816F0DEF91E2200213B
:1047F0002C4811F02FF805222F492A4816F098F975
:10480000686C19F05DFE00940B460246254816F0D0
:104810004BFA244816F0C8F928220021214811F04B
:1048200019F8052225491F4816F082F9A86C19F0DD
:1048300047FE009402460B461A4816F035FA19480E
:1048400016F0B2F91E491748FBF7A6FF32220123E2
:104850008DE80C0000218023124810F0FFFB372266
:104860000021104810F0F6FF164B1B6813B1164BD1
:104870001B788BB915490B48FBF776FF00221146D0
:10488000084810F0E7FF074810F03EFB054803B06A
:10489000BDE8304010F05EB90D490248FBF764FFF7
:1048A000ECE700BFF0BAFF1F34BAFF1F404A020016
:1048B000EC4A0200644A02006C4A0200744A020098
:1048C000244D020090DCFF1F74A2FF1F944A0200D7
:1048D0007C4A020030B5012183B04348434D10F0BB
:1048E000BDFF0121404810F0BFFF41493E48FBF7A2
:1048F00053FF082214213C4810F0ACFF3D493A48D0
:10490000FBF74AFF14220021374810F0A3FF3A4971
:104910003548FBF729FF686A19F0D2FD02240B46DF
:1049200002460094304816F0BFF934492E48FBF790
:104930001BFF1E2200212C4810F08CFF30492A4812
:10494000FBF712FFA86A19F0BBFD00940B46024664
:10495000254816F0A9F92B492348FBF705FF282223
:104960000021214810F076FF27491F48FBF7FCFE85
:10497000E86A19F0A5FD009402460B461A4816F0A5
:1049800093F922491848FBF7EFFE0121164810F071
:1049900065FF322201238DE80C000021802312489C
:1049A00010F05CFB372200210F4810F053FF184B2A
:1049B0001B6813B1174B1B788BB917490A48FBF7D3
:1049C000D3FE00221146084810F044FF064810F0BC
:1049D0009BFA054803B0BDE8304010F0BBB80F4962
:1049E0000148FBF7C1FEECE7F0BAFF1F34BAFF1F26
:1049F000404A0200FC4A0200084B0200184B020029
:104A00001C4B0200284B0200304B02003C4B0200C2
:104A100090DCFF1F74A2FF1F944A02007C4A020030
:104A200008B5FCF7D3FC134B1B68062B21D8DFE835
:104A300003F0080C1014181C0400BDE80840FFF730
:104A400049BFBDE80840FFF783BBBDE80840FFF75A
:104A50001DBCBDE80840FFF7B3BCBDE80840FFF748
:104A600055BDBDE80840FFF7F3BDBDE80840FFF7BE
:104A70008FBE08BDF8B9FF1F30B5374885B011F0BB
:104A800009F8812863D0344811F044F8334B1B688F
:104A90000393044600230A220399314816F0BCF818
:104AA0000121304815F008FD204619F009FD0225C6
:104AB00002460B4600952A4816F0F6F8284816F0EC
:104AC00073F800233022204600920A211A46FFF78D
:104AD000B5F90021244810F0C7FE01240A238DE80F
:104AE000180000222D2328211F4810F07BFB2246AE
:104AF0002A211D4810F0AEFE08221C491A4816F063
:104B000017F837220021184810F0A4FE2146164855
:104B100010F0AAFE164B1B78A3B916491248FBF7F2
:104B200023FE322201238DE80C00002180230E4851
:104B300010F094FA0C4810F0E7F90B4810F00AF85E
:104B400005B030BD0C490848FBF70EFEE9E70B49FC
:104B50000348FBF721FE96E710DDFF1FA4E2FF1FCD
:104B60000C98FF1F244D0200F0BAFF1F5C4B02009F
:104B700074A2FF1F804B0200684B0200404B0200F2
:104B800070B5012184B00546604810F067FE012130
:104B90005E4810F069FE5E495C48FBF7FDFD5D492B
:104BA0005A48FBF7F9FD5C495848FBF7F5FD5B48AF
:104BB00010F070FF812800F0A480584810F0AAFF80
:104BC0000446002D7DD014220A21504810F042FEE8
:104BD00003214E4810F042FE514920461AF0CCFA0B
:104BE000002863D020461AF0F1FA0146474816F033
:104BF00053F814226421454810F02CFE012143484B
:104C000010F02CFE47494148FBF7AEFD1422642109
:104C10003E4810F01FFE02213C4810F01FFE4249A2
:104C20003A48FBF7A1FD0121384810F017FE012496
:104C3000322280238DE814000021344810F00EFA4F
:104C400037220021314810F005FE21462F4810F090
:104C500005FE21462D4810F007FE372200212B4883
:104C600010F0F8FD314B1B7833B1002D44D13049A1
:104C70002648FBF779FD03E02E492448FBF774FD35
:104C800000221146214810F0E5FD322201238DE873
:104C90000C00002180231D4810F0E0F91B4810F0A3
:104CA00033F91A480FF056FF04B070BD204619F0D2
:104CB00007FC022402460B460094144815F0F4FF4A
:104CC00097E71D4B1D481B6803930A222B46039947
:104CD00015F0A2FF10491948FBF746FD204619F0D0
:104CE000EFFB022602460B460096144815F0DCFF47
:104CF000124815F059FF66E711490448FBF734FDE7
:104D0000BEE710490D48FBF747FD56E7F0BAFF1F15
:104D1000984B0200A84B0200244D020010DDFF1F3B
:104D20000000C842B84B0200BC4B020074A2FF1F37
:104D3000D84B0200F04B0200A4E2FF1F0C98FF1FAB
:104D4000C04B0200404B0200044B186820B1012800
:104D500001D1FFF791BE7047FFF712BF88CBFF1F4D
:104D6000F0B50E2083B013F005FD05460F2013F0BB
:104D700001FD0646102013F0FDFC5F4904465F4824
:104D8000FBF70AFD5E495D48FBF706FD5D495B48A0
:104D9000FBF7EAFC2946594815F07EFF574815F005
:104DA00003FF59495548FBF7DFFC3146534815F0DE
:104DB00073FF524815F0F8FE54495048FBF7D4FCF5
:104DC00021464E4815F068FF4C4815F0EDFE3220A4
:104DD00000FB05F000F50073002BB8BF00F2FF5593
:104DE0004FF0320000FB06F0A8BF1D46AD12002BAD
:104DF00000F50073ACBF193D1A3D002B1F46B8BF2C
:104E000000F2FF57322000FB04F0002B4FEAA727E7
:104E100000F50073ACBF193F1A3F002B1C464FF042
:104E20000106B8BF00F2FF54002B4FF019031A46D9
:104E30004FEAA4244FF0460130480096C5F1190509
:104E4000B8BF04F1FF342DB210F016FA07F1460393
:104E50008DE860001BB219224621284810F0FEF8A8
:104E6000192C38DDA4B2A4F119031BB2C4F132022B
:104E70008DE8480012B20A236921204810F0B2F9E7
:104E800001211E4810F0EAFC01211C4810F0ECFC46
:104E900037220021194810F0DDFC1D4B1B7833BB75
:104EA0001C491648FBF760FC00221146134810F01D
:104EB000D1FC322201238DE80C00002180230F4811
:104EC00010F0CCF80D4810F01FF80C4803B0BDE806
:104ED000F0400FF03FBEC4F1190424B28DE8500039
:104EE0000A2319226921054810F07CF9C8E70A490C
:104EF0000248FBF739FCD7E7084C0200F0BAFF1F65
:104F0000DC790200144C0200184C02001C4C020018
:104F100074A2FF1F384C0200204C020030B5012162
:104F200083B00446774810F099FC0121754810F0D1
:104F30009BFC75497348FBF72FFC0121714810F069
:104F40008DFC002C67D071496E48FBF70DFC704B4F
:104F500070491B686B48B1FBF3F10A22002315F07E
:104F60005BFE6D496748FBF717FC67496548FBF72F
:104F700013FC0121634810F077FC012C00F09B80AA
:104F800066496048FBF7F0FB654A664B12685D486E
:104F900053F8221015F080FE63495A48FBF7FCFBDA
:104FA00059495848FBF7F8FB0121564810F05CFCC2
:104FB000022C71D05D495348FBF7D6FB5C4B51483E
:104FC000196815F069FE01214E4810F04DFC0124CE
:104FD000322280238DE8140000214A4810F03EF868
:104FE0002146484810F03AFC37220021454810F08D
:104FF00031FC50494348FBF7B7FB002211464148BA
:1050000010F028FC3F480FF07FFF3E4803B0BDE89A
:1050100030400FF09FBD21463A4810F025FC012595
:1050200010238DE82800042280232146354810F003
:10503000D9F836493348FBF797FB354B35491B68A0
:105040003048B1FBF3F10A22234615F0E5FD324961
:105050002C48FBF7A1FB2C492A48FBF79DFB29466E
:10506000284810F001FC2D492648FBF77DFB2C4A0F
:105070002C4B1268234853F8221015F00DFE2A49D4
:105080002048FBF789FB20491E48FBF785FB294692
:105090001C4810F0E9FB8DE700211A4810F0E4FBF2
:1050A000102201238DE80C000021802324221548C2
:1050B00010F098F87EE70021124810F0D5FB10237D
:1050C0008DE818001422802300210E4810F08AF881
:1050D00012490C48FBF748FB114A124B1268094869
:1050E00053F8221015F0D8FD0F490648FBF754FB82
:1050F00005490448FBF750FB2146024810F0B4FB79
:1051000058E700BFF0BAFF1FDC790200B44C020080
:105110009CDCFF1F40420F00CC420200C44C020046
:105120008C8AFF1F448AFF1FD84C0200DC4C02000F
:10513000888AFF1FF04C020070B5304C304D82B0B1
:105140002046012110F08AFB2046012110F08CFB43
:1051500014222C49204615F0EBFC204615F024FDC6
:105160002046022110F07AFB29460022204615F045
:10517000DFFC204615F018FD05222046224915F0D7
:10518000D7FC224B2046196815F086FD29460022DF
:10519000204615F0CDFC204615F006FD01263222F2
:1051A00080238DE84400204600210FF057FF314650
:1051B000204610F053FB29460022204615F0B8FC8B
:1051C000204615F0F1FC29460022204615F0B0FCDF
:1051D000204615F0E9FC204614220D4915F0A8FCE4
:1051E00000222046114610F035FB20460FF08CFEC1
:1051F000204602B0BDE870400FF0ACBCF0BAFF1F13
:10520000DC790200084D0200204D0200888AFF1F51
:10521000284D0200F8B5134E134D144F3468114B4E
:105220000A2094B913F05AFFFFF786FF2B68104A43
:1052300073B113682C60012B03F1FF33EEDD34688A
:1052400013600A20074B002CECD000221A60F8BD36
:105250003A680749002AE1D00A683B6001320A60D7
:10526000DCE700BF84CBFF1FE8BAFF1F68CBFF1F3E
:10527000888AFF1F70B52A4C2A4D82B02046012132
:1052800010F0ECFA2046012110F0EEFA20462649F3
:10529000FBF782FA2046022110F0E0FA2946204668
:1052A000FBF77AFA20460222204915F041FC204AF9
:1052B000204B1268204653F8221015F0EDFC032213
:1052C00020461D4915F034FC29462046FBF764FAB8
:1052D0000126322280238DE84400204600210FF071
:1052E000BDFE3146204610F0B9FA29462046FBF7AC
:1052F00053FA29462046FBF74FFA204614220F495D
:1053000015F016FC00222046114610F0A3FA2046A4
:105310000FF0FAFD204602B0BDE870400FF01ABC55
:10532000F0BAFF1FDC790200404D0200544D02002C
:105330008C8AFF1F448AFF1F584D0200284D02002F
:105340002DE9F041254E264F264DDFF8B480346814
:10535000224B0A209CB913F0C1FEFFF78BFF2B688C
:105360001F4A002B2CD03B682C60002B03F1FF332D
:10537000EDDD346813600A20184B002CEBD01A497D
:105380001A4A086812681A4C00FB02F000221A60E0
:1053900019F0ECFC3A68174B054653F8220019F057
:1053A000E5FC154919F0EAFD144919F033FD0146F1
:1053B000284619F0E3FD19F009FF2060BDE8F081EF
:1053C000D8F800200649002AC1D03A68C8F8003051
:1053D0000E2A02F10102BADC0A60B8E784CBFF1F93
:1053E0008C8AFF1FE8BAFF1F888AFF1F848AFF1F6D
:1053F00084A2FF1F448AFF1F00007A44D00F494057
:1054000068CBFF1F70B52B4C2B4D82B0204601217D
:1054100010F024FA2046012110F026FA20462749F0
:10542000FBF7BAF92046022110F018FA2946204667
:10543000FBF7B2F920460222214915F079FB214BF6
:1054400021491B68B1FBF3F1204600230A2215F025
:10545000E3FB032220461D4915F06AFB294620463E
:10546000FBF79AF90126322280238DE8440020467A
:1054700000210FF0F3FD3146204610F0EFF92946E8
:105480002046FBF789F929462046FBF785F9204697
:1054900014220F4915F04CFB00222046114610F053
:1054A000D9F920460FF030FD204602B0BDE870402B
:1054B0000FF050BBF0BAFF1FDC7902005C4D020018
:1054C000544D02009CDCFF1F40420F00CC42020002
:1054D000284D02002DE9F0411B4C1C4D1C4ED4F808
:1054E00000801C4F184B0A20B8F1000F27D113F091
:1054F000F5FD3A68184B53F822302B60FFF782FF16
:10550000164A174913687BB13B68C2F80080013323
:1055100086FB0321DA17C2EBA10202EB420102EB88
:1055200081029B1A3B60DAE70A68002AD7D03A6802
:105530000B60013A002A3A60D1DA3B60CFE70022E3
:105540001A60BDE8F08100BF84CBFF1F9CDCFF1F09
:105550004FECC44EE08AFF1FAC8AFF1FE8BAFF1F62
:1055600068CBFF1F2DE9F0411A4F1B4EDFF870800A
:1055700000243D68174B0120ADB913F0AFFD204664
:10558000FFF7CCFC3368154A8BB1012C35601ED077
:10559000022C19D0002CECD1FFF79CFF3D680D4B7D
:1055A0000120002DE9D000221A60BDE8F081611CC5
:1055B00088FB010510680028DBD0A5EBE17404EB43
:1055C00044040C1B1360D4E7FFF724FED1E7FFF778
:1055D000B7FECEE7E8BAFF1F84CBFF1F68CBFF1FE3
:1055E0005655555500B5002183B0314810F03CF9AF
:1055F00001221E212E4810F02DF901212C4810F017
:1056000033F905222B492A4815F092FA3722002156
:10561000274810F01FF90F222749254815F088FA6E
:10562000264B1B68042B0BD8DFE803F02129313906
:10563000030023491E48FBF797F81520FDF7ACF847
:10564000002211461A4810F005F9322201238DE894
:105650000C000021802316480FF000FD14480FF0C5
:1056600053FC134803B05DF804EB0FF073BA15490F
:105670000F48FBF779F80E20FDF78EF8E0E71249A6
:105680000B48FBF771F80F20FDF786F8D8E70F49B4
:105690000748FBF769F81020FDF77EF8D0E70C49C2
:1056A0000348FBF761F81420FDF776F8C8E700BF60
:1056B000F0BAFF1F744D02007C4D0200FCCBFF1FAF
:1056C0009C4D02008C4D0200904D0200944D020052
:1056D000984D020008B5084B1B6833B1012B03D16C
:1056E000BDE80840FFF77EBF08BDFFF739FBBDE806
:1056F0000840FBF795B800BF88CBFF1F10B500200E
:1057000082B0FBF797FF19F031FB002330220092A3
:105710000A211A46FEF792FB00211F4810F0A4F858
:1057200001240A238DE8180000222D2328211A487D
:105730000FF058FD22462A21174810F08BF8072257
:105740001649154815F0F4F937220021124810F0D7
:1057500081F82146104810F087F8114B1B78B3B937
:10576000152210490C4815F0E3F9322201238DE887
:105770000C000021802308480FF070FC06480FF051
:10578000C3FB054802B0BDE810400FF0E3B906497D
:105790000148FAF7E9FFE8E7F0BAFF1FA04D020061
:1057A00074A2FF1FC04D0200A84D020010B50120D9
:1057B00082B0FBF73FFF19F0D9FA002330220092A4
:1057C0000A211A46FEF73AFB00211F4810F04CF858
:1057D00001240A238DE8180000222D2328211A48CD
:1057E0000FF000FD22462A21174810F033F8072257
:1057F0001649154815F09CF92146134810F034F865
:1058000037220021104810F025F8114B1B78B3B94E
:10581000152210490C4815F08BF9322201238DE82E
:105820000C000021802308480FF018FC06480FF0F8
:105830006BFB054802B0BDE810400FF08BB906497C
:105840000148FAF791FFE8E7F0BAFF1FD84D0200D0
:1058500074A2FF1FF84D0200E04D020030B50A248B
:1058600083B000250020FBF7E5FE0544012013F07E
:1058700035FC013CF6D1884B884883FB0523012188
:10588000ED17C5EBA3050FF0E9FF012183480FF0E9
:10589000EBFF2246142181480FF0DCFF29467F48A8
:1058A00015F0FAF9322303FB05F3002B1A46B8BFB3
:1058B00003F6FF72002BB8BF03F6FF73121301212A
:1058C00043F30F33C2F1320212B20191009305216A
:1058D0000C2372480FF086FCB5F5006FCCBF002397
:1058E000012319228DE80C00052111236B480FF0CC
:1058F000B5FB0A2400250120FBF79CFE054401208E
:1059000013F0ECFB013CF6D1634A6448EB1782FBD1
:105910000525C3EBA505322303FB05F3002B1A462F
:10592000B8BF03F6FF72002BB8BF03F6FF73121364
:10593000012143F30F33C2F1320212B201910093FD
:105940006E210C230FF04EFCB5F5006FCCBF002389
:10595000012319228DE80C006E217B234F480FF0A4
:105960007DFB00224E214D480FF074FF29464B4825
:1059700015F092F9052013F07BFB002840F08180A0
:10598000042013F075FB002870D1002013F070FB89
:10599000002860D11E22232140480FF05BFF404BBE
:1059A000186818F08DFD02240B46024600943B480F
:1059B00015F07AF91E223C2138480FF04BFF394987
:1059C0003648FAF7D1FE012134480FF04DFF2A2264
:1059D0001E2132480FF03EFF152012F0CBFE01468B
:1059E0002E4815F059F92A2246212C480FF032FF93
:1059F000142012F0BFFE0146284815F04DF92A493F
:105A00002648FAF7C9FE3722002124480FF022FF6A
:105A1000264B1B78D3B926492048FAF7A5FE002269
:105A200011461E480FF016FF322201238DE80C00AC
:105A30000021802319480FF011FB18480FF064FA79
:105A4000164803B0BDE830400FF084B81949134838
:105A5000FAF78AFEE3E7082201238DE80C005521BE
:105A600014230F220D480FF0BDFB93E708220123FA
:105A70008DE80C00372114230F2208480FF0B2FBE9
:105A800083E7082201238DE80C00192114230F223B
:105A900002480FF0A7FB73E767666666F0BAFF1F60
:105AA000C8B6FF1F104E0200DC79020074A2FF1F6F
:105AB000304E0200184E020010B5124C2368032B22
:105AC0000DD8DFE803F011150D02FFF74BFD22683A
:105AD0000D4B0C4901321340002B0DDB0B6010BD48
