:1000000000800020BD010000018B0100B98A0100C1
:10001000B98A0100B98A0100B98A0100B98A0100D0
:10002000B98A0100B98A0100B98A0100018B010077
:10003000018B0100B98A0100C9AA0100CDAA010003
:10004000018B0100018B0100018B0100018B01007C
:10005000018B0100018B0100018B0100018B01006C
:10006000018B0100018B0100018B0100018B01005C
:10007000018B0100018B0100018B0100018B01004C
:10008000018B0100018B0100018B0100018B01003C
:10009000018B0100018B0100018B0100018B01002C
:1000A0005D46010069460100018B0100018B0100E2
:1000B000018B0100018B0100018B0100018B01000C
:1000C000018B0100018B0100018B0100018B0100FC
:1000D000018B0100018B0100018B0100018B0100EC
:1000E000018B0100018B0100018B0100018B0100DC
:1000F000018B0100018B0100018B0100018B0100CC
:10010000018B010001990100018B0100018B0100AD
:10011000018B0100018B0100018B0100018B0100AB
:10012000018B0100018B0100018B0100018B01009B
:10013000018B0100018B0100018B0100018B01008B
:10014000018B0100018B0100018B0100018B01007B
:1001500029AD01003DAD010051AD010065AD0100CB
:10016000018B0100759C0100018B0100018B0100D6
:10017000018B0100018B0100018B0100018B01004B
:10018000018B0100018B0100018B0100018B01003B
:10019000018B0100018B0100018B0100018B01002B
:1001A000018B0100018B0100018B0100018B01001B
:1001B000018B0100018B0100018B0100564B4CF2B9
:1001C000205210B51A804DF628121A8000BF00BFC9
:1001D00018F09AFC514B4FF010621A60504A9A6026
:1001E000504ADA60504A136813F4807304D14F49BF
:1001F0000B604FF4A85313604D4B1A78110703D5C9
:100200001A7842F008021A704A4B4B492A221A7097
:100210004A4A4B4B8B4204D252F8040F43F8040B6A
:10022000F8E7484B484900228B4202D243F8042B9E
:10023000FAE74649464A002352F8230041F82300D2
:1002400001336F2BF8D1434B434A802103F8011B44
:100250009342FBD1414B3D4A1A60414B8A221A70AE
:10026000A3F5805324225A70A0221A709A7992071B
:10027000FCD59A79D406FCD43A4A937903F00C035E
:10028000082B384BF9D103221A7140225A719A79FE
:100290009006FCD5334A9179324B4906FBD5324A58
:1002A000324911600221516020221A709A7902F0BD
:1002B0000C020C2AFAD12E4B2E4A1A602E4B2F4AD2
:1002C0001A6000225A60072243F8042C2C4AC3F813
:1002D0000C2D62B618F06EFF144B1B68DA0705D5BB
:1002E000284818F053FF284B284A1A60284B1B78DF
:1002F0005B0609D5244C254B22689A4204D121483B
:1003000018F044FF0023236018F004FC1FF0D0FA1B
:100310001BF088F9FEE700BF0E2005403080044046
:10032000823F04000100002B10D0034014D0034092
:1003300002D0074000E0074088A1FF1FCC850200E3
:100340006089FF1F88A1FF1F14E5FF1F0082FF1FA8
:100350000000000000E400E05FE400E008ED00E0E1
:100360000050064000400640448004400000030165
:1003700004800440C010050014E000E0FF76010096
:1003800000002020F5CF95631CE00340A5C3945ADC
:1003900000F00740FFFFFFFFFFFFFFFFFFFFFFFF32
:1003A000FFFFFFFFFFFFFFFFFFFFFFFFFFFFFFFF5D
:1003B000FFFFFFFFFFFFFFFFFFFFFFFFFFFFFFFF4D
:1003C000FFFFFFFFFFFFFFFFFFFFFFFFFFFFFFFF3D
:1003D000FFFFFFFFFFFFFFFFFFFFFFFFFFFFFFFF2D
:1003E000FFFFFFFFFFFFFFFFFFFFFFFFFFFFFFFF1D
:1003F000FFFFFFFFFFFFFFFFFFFFFFFFFFFFFFFF0D
:10040000FFFFFFFFFFFFFFFFFFFFFFFFDEF9FFFF23
:1004100010B5054C237833B9044B13B10448AFF33E
:1004200000800123237010BD88A1FF1F0000000081
:10043000C8850200084B10B51BB108490848AFF346
:1004400000800848036803B910BD074B002BFBD0A0
:10045000BDE81040184700BF000000008CA1FF1F3E
:10046000C885020088A1FF1F00000000002070471F
:10047000704700BF704700BF0B4B0C491A680868F3
:1004800084B00192019A121A642A02D9084A012002
:1004900010601A68039203981B680293029A054B36
:1004A00008601A6004B07047FCE2FF1FBCDCFF1F4D
:1004B000F8CAFF1FCCBAFF1F0B4B0C491A6808681B
:1004C00084B00192019A121A642A02D9084A0120C2
:1004D00010601A68039203981B680293029A054BF6
:1004E00008601A6004B07047FCE2FF1FC8DCFF1F01
:1004F00018CBFF1FCCBAFF1F0B4B0C491A680868BA
:1005000084B00192019A121A642A02D9084A012081
:1005100010601A68039203981B680293029A054BB5
:1005200008601A6004B07047FCE2FF1F40DCFF1F48
:1005300078BAFF1FCCBAFF1F027C02F0080202F05B
:10054000FF0332B1C36A406A181A48BF6FF0004017
:1005500070471846704700BF704700BF704700BF24
:1005600008B502220449052018F04AFD18F0B8FE2B
:10057000024B186008BD00BF810500001CDCFF1F96
:1005800008B503220549052018F03AFD18F0A8FE29
:10059000034B044A1B68C01A106008BD61050000C7
:1005A0001CDCFF1F0CCBFF1F10300AF035BD00BF55
:1005B00000B583B002AB012203F8011D10301946CB
:1005C0000AF02AFD03B05DF804FB00BF38B5054C06
:1005D000A4F180052046103C1AF0EAFEAC42F9D1A5
:1005E00038BD00BFA0DBFF1F00B583B001220DF1B5
:1005F000070110300AF062F901280CBF9DF80700CE
:100600004FF0FF3003B05DF804FB00BF10300AF07C
:1006100059BC00BF2DE9F0410F461646804617F041
:1006200017F8044617F004F8054616F0F1FFA4F297
:10063000BC739BB27F2B02D8EAB20C2A2BD90023C1
:10064000A8F8003016F0B4FF044616F0C1FF0546C6
:1006500016F0CEFFE3B2172B02D8EBB23B2B0BD92F
:1006600000233B8016F0C4FF10F0010F14BF642379
:1006700000233370BDE8F081C3B23B2BF0D8E40215
:100680006B0104F4FF2403F4FF532343C0F346003B
:1006900003439BB2E5E7C0B21F28D0D86D0105F433
:1006A000FF55284340EA43239BB2C9E718F068BDD1
:1006B00010300AF0D3B900BF0A4B0B481B6870B565
:1006C0000A4D0B4C2A6821680A4E80FB03E0DB17B9
:1006D000C3EBA01346F82230013101322A602160B9
:1006E00070BD00BF10DCFF1FD34D621010DDFF1F77
:1006F00060DDFF1F6CA7FF1F2DE9F04118F0F0FD32
:10070000154A164B164D174E04461C6010681EF015
:1007100051FC15491EF0A2FC07462868201A1EF05D
:1007200049FC124B804618681EF044FC01464046C6
:100730001EF094FC014638461EF044FD0C4B0D4A59
:100740001B782C600121306011700BB9BDE8F0817D
:10075000BDE8F041FFF7B0BF04A2FF1F10DCFF1F90
:1007600034BAFF1F0CB7FF1FE5B63046488AFF1F9B
:1007700024DBFF1F0CDCFF1F70B5044608460D4646
:1007800020F0BEF923680246294620465B68BDE892
:100790007040184738B505461AF004FB0446284651
:1007A0001AF026FB204438BD38B5044608460D46ED
:1007B00020F0A6F92368024629465B682046984740
:1007C000054620461AF014FB284438BD002AF0B52F
:1007D000144FDFF858E014BF4FF060554FF06455E8
:1007E000002602E0172C08D0264637F8022F9EFB81
:1007F000F2F2914206F10104F4D31A0701D545F053
:100800008065094A5B0752F8262007D5130903F4CF
:10081000706322F4704245F000751A431543056079
:10082000F0BD00BF326A0200646A0200006CDC02A4
:100830002DE9F0410E2018F039F880460F2018F00D
:1008400035F80746102018F031F8104C104D0646C8
:100850000121104818F08EFF414620461AF040FB57
:100860002846012118F086FF394620461AF038FB49
:100870002846012118F07EFF314620461AF030FB51
:1008800001210548BDE8F04118F074BFA497FF1F8F
:10089000B0440200AC440200E86B0200F0B504462C
:1008A0009BB0002900F09280CB6A13F400470D46FC
:1008B0000AD1B64B1E68012E0ED0022E00F04181E7
:1008C000002E5AD01BB0F0BDB1490A68C3F30E0325
:1008D00013440B601BB0F0BD08681DF015FF042623
:1008E00002460B46009620461AF002FB23683B2185
:1008F0001B68204698470A223B46296A20461AF080
:10090000AFFA23683B211B68204698470A223B46E2
:10091000696A20461AF0A4FA23683B211B68204626
:100920009847A96A3B460A2220461AF099FA23689A
:100930003B211B682046984768691DF0E5FE0226AA
:1009400002460B46009620461AF0D2FA23683B2155
:100950001B6820469847298B20461AF0C1FA236865
:100960003B211B6820469847698B20461AF0B8FA4D
:1009700020461AF03DFA1BB0F0BD08681DF0C4FE19
:10098000042702460B46009720461AF0B1FA236866
:100990003B211B68204698470A2233466968204657
:1009A0001AF05EFA23683B211B68204698470A220A
:1009B0003346A96820461AF053FA23683B211B6886
:1009C0002046984733460A22E968ADE76F4B1B681B
:1009D000012B00F0A781022B00F0F880002B40F0E3
:1009E000AB806C49FFF7C8FE16F0E2FD0A22014613
:1009F00002A81AF04FFD02A906A81AF02DFD6649BB
:100A000006A81AF0E7FD054616F0E2FD0A220146A7
:100A10000AA81AF03FFD0AA928461AF0D3FD5F493B
:100A20001AF0D8FD054616F0F3FD0A2201460EA87D
:100A30001AF030FD0EA928461AF0C4FD58491AF0E4
:100A4000C9FD054616F0F4FD0A22014612A81AF067
:100A500021FD12A928461AF0B5FD51491AF0BAFD38
:100A6000054616F0F5FD0A22014616A81AF012FDF9
:100A700016A928461AF0A6FD01462046FFF78AFE71
:100A800016A81AF095FC12A81AF092FC0EA81AF0FB
:100A90008FFC0AA81AF08CFC06A81AF089FC02A8A0
:100AA0001AF086FC3F490EA81AF0C2FC3E4B0A22FF
:100AB00019680AA81AF0EEFC0AA90EA81AF082FD1D
:100AC0003A491AF087FD3A4B0A221968054612A8DE
:100AD0001AF0E0FC12A928461AF074FD35491AF004
:100AE00079FD354A354B1268354953F82230B1FB50
:100AF000F3F10A22054616A81AF0E0FC16A92846CA
:100B00001AF060FD2F491AF065FD01462046FFF7F7
:100B100041FE16A81AF04CFC12A81AF049FC0AA8CB
:100B20001AF046FC0EA81AF043FC27492046FFF7AE
:100B300023FE20461AF05CF9154B00221A601BB008
:100B4000F0BD08681DF0E0FD042702460B46009743
:100B500020461AF0CDF923683B211B6820469847B0
:100B6000E8691DF0D1FD009602460B4620461AF0BA
:100B7000BFF923683B211B682046984768691DF030
:100B8000C3FD009602460B46DDE600BF64DDFF1F95
:100B900008DDFF1FB44402009C510200484B0200D4
:100BA000C8440200CC44020004A2FF1FE04402003B
:100BB000488AFF1FFC440200908AFF1F5C8AFF1FC7
:100BC00040420F000C45020010450200AB49FFF700
:100BD000D3FD16F0EDFC0A22014602A81AF05AFCD9
:100BE00002A906A81AF038FCA54906A81AF0F2FCDA
:100BF000054616F0EDFC0A2201460AA81AF04AFC46
:100C00000AA928461AF0DEFC9E491AF0E3FC0546C4
:100C100016F0FEFC0A2201460EA81AF03BFC0EA9B3
:100C200028461AF0CFFC98491AF0D4FC054616F075
:100C3000FFFC0A22014612A81AF02CFC12A9284631
:100C40001AF0C0FC90491AF0C5FC054616F000FDEC
:100C50000A22014616A81AF01DFC16A928461AF009
:100C6000B1FC01462046FFF795FD16A81AF0A0FB3F
:100C700012A81AF09DFB0EA81AF09AFB0AA81AF007
:100C800097FB06A81AF094FB02A81AF091FB0EA895
:100C90007E491AF0CDFB7E4B0A2219680AA81AF089
:100CA000F9FB0AA90EA81AF08DFC7A491AF092FCF9
:100CB000794B0A221968054612A81AF0EBFB12A913
:100CC00028461AF07FFC75491AF084FC744A754B6B
:100CD0001268754953F82230B1FBF3F10A22054638
:100CE00016A81AF0EBFB16A928461AF06BFC6F4900
:100CF0001AF070FC01462046FFF74CFD16A81AF0CA
:100D000057FB12A81AF054FB0AA81AF051FB0EA8C0
:100D10001AF04EFB66492046FFF72EFD20461AF0DA
:100D200067F809E75549FFF727FD16F041FC0A224D
:100D3000014602A81AF0AEFB02A906A81AF08CFB25
:100D40004F4906A81AF046FC054616F041FC0A2257
:100D500001460AA81AF09EFB0AA928461AF032FC9E
:100D600048491AF037FC054616F052FC0A220146A3
:100D70000EA81AF08FFB0EA928461AF023FC424950
:100D80001AF028FC054616F053FC0A22014612A868
:100D90001AF080FB12A928461AF014FC3A491AF0FE
:100DA00019FC054616F054FC0A22014616A81AF052
:100DB00071FB16A928461AF005FC01462046FFF7EC
:100DC000E9FC16A81AF0F4FA12A81AF0F1FA0EA823
:100DD0001AF0EEFA0AA81AF0EBFA06A81AF0E8FAE6
:100DE00002A81AF0E5FA0EA828491AF021FB284BB0
:100DF0000A2219680AA81AF04DFB0AA90EA81AF0CF
:100E0000E1FB24491AF0E6FB234B0A221968054648
:100E100012A81AF03FFB12A928461AF0D3FB1F496B
:100E20001AF0D8FB1E4A1F4B12681F4953F8223094
:100E3000B1FBF3F10A22054616A81AF03FFB16A9EA
:100E400028461AF0BFFB19491AF0C4FB0146204698
:100E5000FFF7A0FC16A81AF0ABFA12A81AF0A8FA2D
:100E60000AA81AF0A5FA0EA81AF0A2FA114920460B
:100E7000FFF782FC204619F0BBFF5DE6B444020098
:100E80009C510200484B0200C8440200CC440200BE
:100E900004A2FF1FE0440200488AFF1FFC44020036
:100EA000908AFF1F5C8AFF1F40420F000C45020022
:100EB000884502005845020038B518F011FA42F290
:100EC0000F75044619F0B0FB002802DB18F008FA91
:100ED000044618F005FA001BA842F3D938BD00BF3C
:100EE00070B5724E724D734906F110042046062209
:100EF0000AF092F82946204601220AF08DF8204691
:100F00000B226D490AF088F82946204601220AF092
:100F100083F820460B2269490AF07EF829462046CC
:100F200001220AF079F820460B2265490AF074F88C
:100F30002946204601220AF06FF82046072261491F
:100F40000AF06AF82946204601220AF065F8204690
:100F500007225D490AF060F82946204601220AF07E
:100F60005BF82046072259490AF056F829462046E0
:100F700001220AF051F82046082255490AF04CF89F
:100F80002946204601220AF047F820460822514906
:100F90000AF042F82946204601220AF03DF8204690
:100FA00008224D490AF038F82946204601220AF065
:100FB00033F82046082249490AF02EF829462046EF
:100FC00001220AF029F82046082245490AF024F8AF
:100FD0002946204601220AF01FF8204608224149EE
:100FE0000AF01AF82946204601220AF015F8204690
:100FF0000B223D490AF010F82946204601220AF04A
:101000000BF820460B2239490AF006F829462046FB
:1010100001220AF001F820460B22354909F0FCFFB5
:1010200029462046012209F0F7FF204608223149CF
:1010300009F0F2FF29462046012209F0EDFF204683
:1010400008222D4909F0E8FF29462046012209F02F
:10105000E3FF20460822294909F0DEFF2946204601
:10106000012209F0D9FF20460E22254909F0D4FFBC
:1010700029462046012209F0CFFF20460D222149B2
:1010800009F0CAFF29462046012209F0C5FF204683
:101090000B221D4909F0C0FF20462946012209F014
:1010A000BBFF3046BDE8704019F0A2BE88DCFF1FD0
:1010B000C8450200C0450200CC450200D8450200E8
:1010C000E4450200F0450200F84502000046020037
:1010D0000846020014460200204602002C46020088
:1010E0003846020044460200504602005C460200B8
:1010F0006846020074460200804602008C460200E8
:1011000098460200A8460200B84602002DE9F041C8
:10111000AC4BAD4FAD4C39691B68AD4D82B004F19D
:101120001006C91A204600230A2219F099FE294602
:101130000122304609F070FF386E1DF0E5FA4FF0DD
:1011400002080B460246CDF80080204619F0D0FE7A
:1011500029460122304609F05FFF786E1DF0D4FA6F
:10116000CDF800800B460246204619F0C1FE294604
:101170000122304609F050FFB86E1DF0C5FACDF8D7
:1011800000800B460246204619F0B2FE2946012295
:10119000304609F041FF386B1DF0B6FACDF80080FB
:1011A0000B460246204619F0A3FE2946012230468E
:1011B00009F032FF786B1DF0A7FACDF800800B46DE
:1011C0000246204619F094FE29460122304609F0D5
:1011D00023FFB86B1DF098FACDF800800B4602464D
:1011E000204619F085FE29460122304609F014FFF9
:1011F000386F1DF089FACDF800800B460246204674
:1012000019F076FE29460122304609F005FF786F75
:101210001DF07AFACDF800800B460246204619F000
:1012200067FE29460122304609F0F6FEB86F1DF030
:101230006BFACDF800800B460246204619F058FEA6
:1012400029460122304609F0E7FE386D1DF05CFAB0
:10125000CDF800800B460246204619F049FE29468B
:101260000122304609F0D8FE786D1DF04DFACDF818
:1012700000800B460246204619F03AFE294601221C
:10128000304609F0C9FEB86D1DF03EFACDF8008079
:101290000B460246204619F02BFE29460122304615
:1012A00009F0BAFED7F880001DF02EFACDF80080C4
:1012B0000B460246204619F01BFE29460122304605
:1012C00009F0AAFED7F884001DF01EFACDF80080C0
:1012D0000B460246204619F00BFE294601223046F5
:1012E00009F09AFED7F888001DF00EFACDF80080BC
:1012F0000B460246204619F0FBFD294601223046E6
:1013000009F08AFE386C1DF0FFF9CDF800800B461D
:101310000246204619F0ECFD29460122304609F02C
:101320007BFE786C1DF0F0F9CDF800800B4602468C
:10133000204619F0DDFD29460122304609F06CFEF9
:10134000B86C1DF0E1F9CDF800800B46024620464E
:1013500019F0CEFD29460122304609F05DFE786A7B
:101360001DF0D2F9CDF800800B460246204619F058
:10137000BFFD29460122304609F04EFEB86A1DF035
:10138000C3F9CDF800800B460246204619F0B0FDA7
:1013900029460122304609F03FFEF86A1DF0B4F9F3
:1013A000CDF800800B460246204619F0A1FD3046DC
:1013B0002946012209F030FE204602B0BDE8F04186
:1013C00019F016BD08DCFF1F18A2FF1F88DCFF1FE5
:1013D000C8450200F0B5444B1B68012B83B05DD0BB
:1013E000022B08D01B21414819F08AF9404819F016
:1013F000FFFC03B0F0BD3F4D3F4C284615F058FEB2
:10140000284615F069FFB426284615F0DBFE324663
:10141000002120461EF052FE384B26601B680193C7
:10142000019B2361284615F003FEB5F900001DF06D
:10143000C1FD2063B5F902001DF0BCFD6063B5F984
:1014400004001DF0B7FDA968EA682B69A063286B4A
:10145000D5F834E0AF6B2167EE69296A6267A3674C
:101460006A6A206400232648C4F844E0C4F8841063
:10147000C4F8882023656365A365A764C4F8806009
:1014800015F0F6FA60621E4815F018FB1D49A062BF
:101490001B4815F011FCE06203B0F0BD164C1A4871
:1014A0002146282214F064FD21460822164814F033
:1014B0005FFD21462E22144814F05AFD21461A22BF
:1014C000114814F055FD214614220F4814F050FD28
:1014D00021460E220C4814F04BFD0B4814F03AFF45
:1014E0001DF068FD606284E7C0DCFF1FC446020097
:1014F000CC97FF1F18DDFF1F18A2FF1FFCE2FF1F84
:1015000040BAFF1F00507D44ECDBFF1FF0B5424D99
:101510004249434E05F1100499B01222204609F0C9
:101520007BFD16F045F80A220146684619F0B2FF25
:10153000694604A819F090FF3A4904A81AF04AF83D
:10154000074616F045F80A22014608A819F0A2FF3E
:1015500008A938461AF036F833491AF03BF807461E
:1015600016F056F80A2201460CA819F093FF0CA9B0
:1015700038461AF027F831461AF02CF8074616F0CC
:1015800057F80A22014610A819F084FF10A938461E
:101590001AF018F831461AF01DF8064616F058F8F9
:1015A0000A22014614A819F075FF14A930461AF052
:1015B00009F80146284619F0F5FB284619F018FCF1
:1015C00014A819F0F5FE10A819F0F2FE0CA819F0F5
:1015D000EFFE08A819F0ECFE04A819F0E9FE684631
:1015E00019F0E6FE20460B22104909F015FD2046B1
:1015F00001220F4909F010FD20460B220D4909F088
:101600000BFD00220C49204609F006FD284619F082
:10161000EFFB19B0F0BD00BF88DCFF1FB44402002F
:10162000C84402009C510200484B0200E046020000
:10163000C8450200EC460200FC7B020070B5800148
:1016400082B0C5B272B63F4C3F490423012201A8C3
:10165000FFF7BCF8E37A019ABBB172B6E37AD80718
:10166000194606D53948E16806683140A161016034
:1016700019469B0706D5364823690668E17A334048
:10168000E36103604E0755D462B62368D96891427E
:1016900007D0304818603049DA6042F08040186165
:1016A000196001210A2017F001FE0021092017F01E
:1016B000FDFD23684FF000410622D9625A63DA6AC1
:1016C000002AFCDA4FF00042996BDA625D63DA6A55
:1016D000002AFCDA9D6B4FF000410022D962EDB286
:1016E0005A63DA6A002AFCDAE27A9E6B15491346DD
:1016F00082B1D00703D5194B896919601346920747
:1017000003D5174AE169E37A11605B0702D5154BEF
:10171000226A1A600121092017F0C8FD00210A2061
:1017200017F0C4FD62B605F00F00F6B246EA0020DD
:1017300002B070BD0C4963690868034023620B6006
:10174000A2E700BFB48AFF1F40420F0080E100E023
:1017500084E100E001403F0000003F8000E100E044
:1017600004E100E008E100E088E100E02DE9F0415B
:1017700096B0684658223D4916F082FE1424002592
:101780000220FFF75BFF0544142017F0CBFD013C5E
:10179000F6D128461DF00EFC35491DF05FFC354999
:1017A0001DF010FD344907461DF00AFE00284DD1FA
:1017B000324938461DF0F0FD00284BD1029E3846D4
:1017C00031461DF0E9FD00284AD0012400E02C46F6
:1017D000651C38465DF8356031461DF0DDFD00289A
:1017E000F5D116AB03EBC50503EBC40455F8545C07
:1017F00054F8540C29461DF027FB314680463846E4
:101800001DF022FB014640461DF028FC31460746EC
:1018100054F8580C1DF018FB014638461DF0D2FC58
:1018200029461DF013FB16491DF0CCFC1DF0F2FDFE
:1018300000EB80001DF0BEFB002104461DF0ACFD56
:1018400060B9104920461DF0C5FD58B1642016B09E
:10185000BDE8F081204616B0BDE8F0810020F6E733
:101860000125BEE720461DF0D5FDF0E754400200FB
:101870000AD7A3400000A04766668640CDCC4C4006
:101880000000A0400000C84270B5012182B021488C
:10189000214C224D17F06EFF0120FFF7CFFE0146CD
:1018A000204619F01DFB2846012117F063FF002098
:1018B000FFF7C4FE0146204619F012FB284601211D
:1018C00017F058FF164B18681CF01EFF0226024640
:1018D0000B460096204619F00BFB2846012117F015
:1018E00049FF142016F0E2FF0146204619F0F8FAED
:1018F0002846012117F03EFF152016F0D7FF0146BC
:10190000204619F0EDFA0748012102B0BDE8704009
:1019100017F030BFAC440200A497FF1FB044020090
:101920000CB7FF1FE86B0200354A364B126830B522
:1019300053F82230B3F57A7F83B0044633D3324B69
:101940001B68019301981DF031FB304B0546186868
:101950001DF02CFB014628461DF076FA2C491DF09F
:1019600031FC2C4B20601868012831D002283DD072
:1019700008B103B030BDFFF761FE60600120FFF7E2
:101980005DFEA0600220FFF759FE234BE0601B685C
:101990006361052017F090FC2083042017F08CFC75
:1019A000608303B030BD17F09BFC1DF0FFFA1B4BAA
:1019B000054618681DF0FAFA014628461DF044FA5B
:1019C00017491DF0FFFB134B206018680128CDD18B
:1019D0000E2016F06BFF20620F2016F067FF60628A
:1019E000102016F063FF0C4BA062D0E70D4814F0F6
:1019F000EFF80C4814F02CF9074BE061C7E700BF83
:101A0000908AFF1F5C8AFF1FFCE2FF1F3CDCFF1F68
:101A100000007A4464DDFF1F0CB7FF1F14CBFF1FCB
:101A20000024744968DDFF1F30B5012085B017F030
:101A300043FC244C10B92368002B35D0032017F049
:101A40003BFC214D10B92B68002B34D0012017F03E
:101A500033FCB0FA80F35B090320236017F02CFC01
:101A60002268B0FA80F35B092B604AB1174B184A21
:101A70001B680293029B12689B1AB3F5FA7F0FD87A
:101A800060B9124B134A1B680393039B12689B1A9D
:101A9000B3F5FA7F02D9104B01221A6005B030BDB0
:101AA0000E4B01221A60EBE7084A094B12680092BC
:101AB000009A1A60C2E7054A064B12680192019A21
:101AC0001A60C3E70CA2FF1FC4DCFF1FFCE2FF1F6C
:101AD00000CBFF1F24DCFF1F78BAFF1FF8CAFF1FCF
:101AE000F0B51D4C1D4B85B00125002240278021FB
:101AF00006468DE8820020461146029513F02AFD25
:101B000037222046322113F043FF2946204613F0A6
:101B100043FF2946204613F045FF2A461049204638
:101B200019F02AF90223009320460E4B4FF0804211
:101B300019F0DEF900221146204613F029FF204655
:101B400013F080FA304617F0EDFB204605B0BDE8F3
:101B5000F04013F09DB800BF80BAFF1FAC400200F8
:101B6000444702003333F33F70B50D4C0D4B84B046
:101B7000002201264025802120468DE86200114682
:101B800013F0E8FC00222046114613F001FF204626
:101B900013F058FA204604B0BDE8704013F078B84E
:101BA00080BAFF1F3462020070B50D4C0D4B84B03B
:101BB000002201264025802120468DE86200114642
:101BC00013F0C8FC00222046114613F0E1FE204627
:101BD00013F038FA204604B0BDE8704013F058B84E
:101BE00080BAFF1F3466020010B5012184B004469C
:101BF000184813F0D1FE0121164813F0D3FE00223D
:101C00000120402180230290019100931146124B44
:101C1000104813F09FFC0C2226210E4813F0B8FE4A
:101C20000E4B1B788BB90E490A48FEF7BDFD00220A
:101C30001146084813F0ACFE064813F003FA20469C
:101C400004B0BDE8104017F06DBB06490148FEF72F
:101C5000ABFDECE780BAFF1F345A020000A2FF1F61
:101C60004C4702004847020010B5012104461248C3
:101C700013F092FE282226210F4813F089FE0F4B05
:101C80001B68A3B904220E490B4819F075F80A48DD
:101C900019F0AEF800221146074813F079FE064805
:101CA00013F0D0F92046BDE8104017F03BBB0549C2
:101CB0000148FEF779FDEDE780BAFF1FC0DCFF1F8A
:101CC0004C4702004847020010B501210446124863
:101CD00013F062FE0C2264210F4813F059FE0F4BE3
:101CE0001B78A3B904220E490B4819F045F80A489D
:101CF00019F07EF800221146074813F049FE064805
:101D000013F0A0F92046BDE8104017F00BBB0549C1
:101D10000148FEF749FDEDE780BAFF1F20DCFF1FF9
:101D20004C4702004847020010B5012184B0044628
:101D3000174813F031FE28226421154813F028FEBD
:101D4000144B1B78FBB914491148FEF72DFD1321E4
:101D50000A2201238DE80E000D48104B36226C211B
:101D600013F0F8FB00221146094813F011FE084851
:101D700013F068F9204617F0D5FA054804B0BDE81D
:101D8000104012F085BF06490148FEF70DFDDEE761
:101D900080BAFF1F14DDFF1F4C47020014560200DB
:101DA0004847020070B5574E574D584906F1100488
:101DB0002046042209F030F929462046012209F084
:101DC0002BF920460F22524909F026F929462046D0
:101DD000012209F021F9204611224E4909F01CF98F
:101DE00029462046012209F017F920460F224A49C8
:101DF00009F012F929462046012209F00DF9204682
:101E00000F22464909F008F929462046012209F027
:101E100003F920460522424909F0FEF829462046EA
:101E2000012209F0F9F8204605223E4909F0F4F8AC
:101E300029462046012209F0EFF8204607223A49B8
:101E400009F0EAF829462046012209F0E5F8204683
:101E50000322364909F0E0F829462046012209F01C
:101E6000DBF820460A22324909F0D6F829462046F6
:101E7000012209F0D1F8204608222E4909F0CCF8B9
:101E800029462046012209F0C7F820460F222A4998
:101E900009F0C2F829462046012209F0BDF8204683
:101EA0000A22264909F0B8F829462046012209F0FD
:101EB000B3F820460D22224909F0AEF82946204603
:101EC000012209F0A9F820460E221E4909F0A4F8C3
:101ED00029462046012209F09FF820460E221A4981
:101EE00009F09AF829462046012209F095F8204683
:101EF0000922164909F090F83046BDE8704018F004
:101F000077BF00BF88DCFF1FC8450200A047020062
:101F1000A8470200B8470200CC470200DC47020095
:101F2000EC470200F4470200FC47020004480200AC
:101F3000084802001448020020480200304802000D
:101F40003C4802004C4802005C4802006C48020019
:101F50002DE9F041744B754C1B68754D84B004F14C
:101F60001006039307460023039920460A2218F01F
:101F700077FF29460122304609F04EF838681CF0F8
:101F8000C3FB4FF002080B460246CDF80080204606
:101F900018F0AEFF29460122304609F03DF8786876
:101FA0001CF0B2FBCDF800800B460246204618F02C
:101FB0009FFF29460122304609F02EF8B8681CF030
:101FC000A3FBCDF800800B460246204618F090FF98
:101FD00029460122304609F01FF8F8681CF094FBEE
:101FE000CDF800800B460246204618F081FF2946B6
:101FF0000122304609F010F838691CF085FBCDF855
:1020000000800B460246204618F072FF2946012246
:10201000304609F001F878691CF076FBCDF80080B5
:102020000B460246204618F063FF2946012230463F
:1020300008F0F2FFB8691CF067FBCDF800800B4692
:102040000246204618F054FF29460122304608F087
:10205000E3FFF969204618F043FF29460122304684
:1020600008F0DAFF386A1CF04FFBCDF800800B4611
:102070000246204618F03CFF29460122304608F06F
:10208000CBFF786A1CF040FBCDF800800B4602467F
:10209000204618F02DFF29460122304608F0BCFFEB
:1020A000B86A1CF031FBCDF800800B460246204692
:1020B00018F01EFF29460122304608F0ADFF796B6B
:1020C000204618F00DFF29460122304608F0A4FFF3
:1020D000B96B204618F004FF29460122304608F06B
:1020E0009BFF142016F0E2FB0146204618F0F8FE94
:1020F00029460122304608F08FFF152016F0D6FB46
:102100000146204618F0ECFE01222946304608F030
:1021100083FFF96B204618F0E3FE204618F068FEB6
:1021200004B0BDE8F08100BFFCE2FF1F88DCFF1FA8
:10213000C84502002DE9F041354E364FB46B386882
:10214000201A1CF037FF34491CF088FF33491CF07B
:1021500085FF33491DF036F81DF05CF980462046B6
:102160001CF028FF2C491CF079FF2C491CF076FF4D
:102170002B491DF027F82B491DF024F82A4BB8F104
:10218000090F0546186027DC284BF66AD3F8008053
:10219000274B18681CF00EFF31461CF055FE2549F0
:1021A000044628461DF0F8F800282CD14146204668
:1021B0001DF008F8204B2149186020461CF04EFF06
:1021C0001F49204C1CF0FEFF00211CF03FFE1DF0BB
:1021D00021F92060BDE8F0811B4BF66AA3F12400D1
:1021E000014653F8042D5A608B42FAD1416A0660C9
:1021F00030461CF029FE0F491CF0E4FF0B4B3C60FD
:1022000080461860C4E7114920461CF0DBFFD1E787
:1022100048DCFF1FD0DCFF1F00002043D00F4940E7
:102220000010244700007A4410A2FF1F10CBFF1FAC
:10223000588AFF1FCDCCCC3DFCCAFF1F0000C8420E
:102240000000B44208A2FF1FF4CAFF1F0000304183
:10225000174B2DE9F0411E68002E25DD154B044675
:1022600018680D461CF0A6FE13491CF0F7FE134932
:102270001CF0F4FE124B074618681CF09BFE04EBA2
:102280008606043D8046236854F8040FC01A1CF0EB
:1022900091FE41461CF0E2FE014638461CF092FFDA
:1022A000A64245F8040FEED10020BDE8F08100BF42
:1022B000CCA2FF1F04A2FF1FD00F494066666640F4
:1022C000488AFF1F70B50A4E3368002B0EDD041FCD
:1022D000002554F8040F1CF017FA19F02DFB1CF020
:1022E0005FFD336820600135AB42F2DC002070BD39
:1022F000CCA2FF1F08B516460C46054608461B49EA
:10230000FEF73AFA31462046FEF74EFAD5F86C341D
:102310004BB15B7B3BB9EB7903B1FEE72046144937
:10232000FEF742FAF9E713492046FEF725FAD5F8F9
:102330006C34B3B1597B00231022204618F090FD75
:102340000D492046FEF718FAD5F86C345BB1197CBC
:1023500000231022204618F083FD204618F048FD87
:10236000DBE72A21E7E71946F2E700BF78480200D9
:1023700090480200804802008C48020070B538483E
:102380008AB008F09FF8374B1B68012B52D0022B04
:102390004AD0A3B3344E741E00252B46324A33492B
:1023A0008DF8045001A88DF805508DF8065008F0FE
:1023B00023FA50B32E212C481EF02AF9002844D0CD
:1023C000431EB34216D310F8012CA2F130010929A3
:1023D00010D8392A0BD1302003F80109A34209D0C3
:1023E0001A78A2F13001092904D8392AF4D001322F
:1023F0001A70D1E71E4A1F491C48FFF77BFF1E4B8E
:10240000194C0FCB07C42380C4E740F202221649BF
:10241000134808F0F9F998B14FF08041104808F0DE
:1024200025FAB8B10AB070BD144B0F4C0FCB07C4DE
:102430002380AFE7124B0C4C0FCB07C42380A9E7D6
:10244000104A0C490948FFF755FF0F4A0949074848
:10245000FFF750FF0D4A07490448FFF74BFF00BF45
:10246000E4DCFF1F64DDFF1F948AFF1FD0A2FF1F63
:10247000A4480200CC97FF1FF84802000849020058
:1024800018490200D0480200BC480200E44802009B
:1024900010B52948047C8EB0002C39D004A9103026
:1024A000282209F07FFE04A82E211EF0B1F8002892
:1024B0003DD004222149013015F0E2FF40F20162D3
:1024C00004A91F4808F0A0F9044658B3FEF7F4FC2D
:1024D00004A9684618F0ACFF69461A4819F032F8AA
:1024E000684618F065FF0921174818F009F904A893
:1024F0001EF006FB014604A818F002F91D2113483E
:1025000018F0FEF8124818F073FC20460EB010BD0B
:102510001621104818F0F4F80D4818F069FC204610
:102520000EB010BD0C4A0A490C48FFF7E3FE0C4AF6
:1025300007490A48FFF7DEFED4DCFF1F40490200CE
:10254000C4DBFF1F2CDCFF1F584902006449020056
:10255000CC97FF1F2849020044490200D0A2FF1F68
:10256000BC48020030B5014683B0054600221F4832
:1025700008F04AF9002833D00A211D481D4C18F0F4
:10258000BFF81D4818F034FC28461EF0B9FA014681
:10259000284618F0B5F8184818F02AFC2546237C80
:1025A0001B070BD40A21124818F0AAF8124818F099
:1025B0001FFC0E4807F086FF03B030BDEA6A6B6A65
:1025C0009A42EFD001220DF10701084808F076F990
:1025D00001280CBF9DF80700FF2018F015F9DEE771
:1025E000064A05490648FFF785FE00BF98DCFF1F35
:1025F0009049020088DCFF1FCC97FF1F844902002E
:10260000D0A2FF1F30B5124D8BB000240023104A1A
:1026100010498DF8044001A88DF805408DF806405A
:1026200008F0EAF868B16B79392B02D001336B718D
:10263000ECE72B79392B06D0013330222B716A71EC
:10264000E4E70BB030BD044A04490248FFF752FEEC
:10265000A48AFF1FD0A2FF1FA4480200CC97FF1F2F
:1026600010B51C21044618F0E7FF204610BD00BF3E
:102670002DE9F0437C4C7D497D4EDFF898827D4DFD
:102680007D4F8FB0204618F0D3FE04F110007B4937
:1026900018F0CEFE04F12000794918F0C9FE04F1CB
:1026A0003000784918F0C4FE04F14000764918F073
:1026B000BFFE04F15000754918F0BAFE04F1600045
:1026C000734918F0B5FE04F17000724918F0B0FEBD
:1026D0007149324600201BF0ADFE704A704B106805
:1026E0001B6800FB03F01CF065FC6E4B0446186889
:1026F0001CF060FC6C491CF065FD6C491CF0AEFCE4
:10270000014620461CF05EFD1CF084FEC8F8000067
:1027100016F04AF96648DFF80082002413F050F9F9
:102720000123644A049302930193039228230094A3
:10273000214628464FF0FF3213F0CCFA32465E496C
:1027400028461BF077FE5D485D4D13F009FE2146DB
:1027500048225C481DF0B2FC5B485C4BC0F8783402
:102760002923022180F87D34594BC471324680F808
:10277000484480F8494480F84A44C0F86C4480F8E2
:10278000814480F8884480F898440172C0F870341D
:1027900050491BF04FFE504B504A1C714FF47A7950
:1027A0001C731C745C749C74C3F80890C3F800809C
:1027B0004B4B14711C71C3F808901C731C745C742F
:1027C0009C742146C2F80890147314745474947461
:1027D0003846C3F80080C2F8008018F029FE32465F
:1027E000384640491BF026FE2B68079307992B6853
:1027F0000893DDF820E02B680993099A2B680A9367
:10280000394B0A98C3F80080C3F808901C711C73F8
:102810001C745C749C74354B2F68196034490B9799
:10282000344B0B9FC1F800E02C6833490C941A60BC
:10283000324C334B0C9A08600421324827601A60EE
:10284000314C12F00DFA2B680D93304B0D9A1A6033
:10285000204614F03DFF324620462D491BF0EAFD8C
:102860000FB0BDE8F08300BF30DBFF1F9C490200C2
:102870003C8AFF1FECDBFF1F2CDCFF1FA44902007A
:10288000AC490200B4490200BC490200C44902003C
:10289000CC490200D8490200CD050000488AFF1F3C
:1028A000448AFF1F04A2FF1F00007A44D00F494052
:1028B00068DDFF1FC02709005D05000040BAFF1F4B
:1028C000FCE2FF1F18DDFF1FD0A2FF1F011001381F
:1028D000286C020059050000D4DCFF1FB4DBFF1F89
:1028E000A8A1FF1FB1B3010088DCFF1FCCBAFF1FF6
:1028F00040DCFF1FC8DCFF1FBCDCFF1F00CBFF1F3D
:1029000024DCFF1F80BAFF1FE0A1FF1F2CDBFF1F8D
:10291000D5760100CCA2FF1F38400200FFFFFFFF69
:102920002DE9F0476C4D6D4C6D4E6E4F642382B0B7
:1029300080462B6016F0D4FC5FFA88F82060A2462F
:1029400006F58059404615F0B1FF1BF0CBFE002282
:102950000023E7E90223E6E9020116F0C1FC226840
:102960002B68801A9842F8D313444E45CAF80030B9
:10297000E8D1012423464FF400725B495B48009480
:1029800015F052F84FF40073594A574957480094CC
:1029900015F006F84FF40073554A5349534815F0A3
:1029A00015F84BA1D1E900014FF40072CDE9000107
:1029B0004D494E4815F0B4FA06460F464D4821469B
:1029C00012F0EAFF21464B4812F0ECFF00225A2198
:1029D000484812F0DDFF30463946002200231CF043
:1029E0006DF9002869D00022434B304639461BF070
:1029F0002DFD1CF08DF901463E48DFF8EC80DFF834
:102A0000049118F06DFA002273213A4812F0C0FFC9
:102A10003A493848FDF7B0FE00221146354812F019
:102A2000B7FF012519E0002035491BF00DFD1CF012
:102A30006FF9394604B230461CF06AF900B2012140
:102A40000B4600900191224629B22A481D4412F0FB
:102A500067FC802D08F110082CD000220023D8E953
:102A600004011BF0F3FCD8E906231BF0EFFC002265
:102A7000234B1BF09DFED9E900231BF0C3FF00226E
:102A800000231BF0E3FC0022002306460F461CF047
:102A900001F9002204461A4B48B9304639461CF069
:102AA00017F932463B460028BDD03220C7E7002048
:102AB0003224C4E702B0BDE8F08700220E4B304656
:102AC00039461BF0C1FC1CF023F994E7AFF30080FA
:102AD000000000000088C34010B7FF1FB0DBFF1FDD
:102AE00018CBFF1FC8BAFF1F20CBFF1FE0A1FF1F9D
:102AF000D0BAFF1F80BAFF1F0000E03FE449020088
:102B000000004940508AFF1F70B5184C82B0012266
:102B1000222305460E462046019200930F22682389
:102B20000A2112F0FDFB00221C2320460192009393
:102B3000122262230D2112F0F3FB204618221721E6
:102B400012F026FF28461DF0DBFF294602462046EC
:102B500018F012F9204612F075FA304616F0E2FB32
:102B6000204602B0BDE8704012F092B880BAFF1F54
:102B70002DE9F043524CDFF88491DFF88481514F06
:102B80008BB0642016F0CEFB22780023C9F8003009
:102B9000C8F800303B60002A6FD0FEF7E5FF3B68C5
:102BA000002B5CD000244FF00A0E474E8DF80540F4
:102BB00003948DF804E0029601AB93E8070004ABA0
:102BC00083E807008DF810E08DF811400596069413
:102BD00093E8070007AB83E807003C4DC9F80040C5
:102BE00005F58E690ECB4846C8F800403C6085F874
:102BF0008CE485F88D44C5F89064C5F894440AF0D7
:102C0000CFFA95F87D34C5F86C948BB1304B3148D0
:102C100000220C211A7017F073FD2F4818F0E8F805
:102C20002E484FF47A710BB0BDE8F043FFF76CBF4C
:102C300049460122284609F05FFC0028E6D005F548
:102C4000896007F03FFC294605F5896007F008FE1A
:102C50000028DBD0224B1D600BB0BDE8F08340F6AE
:102C6000D8640320FEF7EAFCA0421E489ADD10F06B
:102C700009F93B68002B95D1F3E71A480EF0B6FA34
:102C800001230A21184823700BF05EFC034668B943
:102C90000F4A164910481370FDF786FD0B211448A2
:102CA00017F02EFD0C4818F0A3F876E7114A0E49EC
:102CB0000C4810F0BBFA10490748FDF775FDEDE729
:102CC00008CBFF1FF8CAFF1F80F0FA02D0A2FF1F37
:102CD00000A2FF1F3C4A0200CC97FF1F4C4A020093
:102CE000A0DDFF1FF08AFF1FB4DDFF1F244A020092
:102CF000304A0200E8490200F049020078BAFF1F9A
:102D000018CBFF1F2DE9F0430A208BB015F09AFD78
:102D1000084D0948094C0A4FDFF828904FF4E1317B
:102D200017F0DCFE044815F08FF940F2EE282E680B
:102D30000FE000BFFCE2FF1FA497FF1F84E4FF1F0A
:102D40009CE4FF1F0CE5FF1FB3F5FA6F15D818F0D0
:102D50008BFC18F089FC237843B13B78DB0705D561
:102D60002B68D9F800209B1A0E2B06D82B682278E6
:102D70009B1B002AE8D14345E9D9B94815F06AF907
:102D8000002015F057FEB74B0C280246A8BF0C22B6
:102D900001201A6015F04EFEB34B002814BF024606
:102DA000012202201A6015F045FE002800F0398249
:102DB00064280346A8BF6423AC4AAD4C13600221CB
:102DC000102016F087FA10230E220F21A94812F0C6
:102DD000FFFDFA2016F0A6FAA64812F0F9FE8128A7
:102DE00000F018820123A4499D482370FDF7DCFC04
:102DF0002478002C00F001820021142016F06AFAD9
:102E00000021152016F066FA0221012016F062FA60
:102E10000221084616F05EFA0221032016F05AFA43
:102E20000221002016F056FA0221052016F052FA6F
:102E30000221042016F04EFA03229049012016F0D8
:102E4000DFF803228E49022016F0DAF8032210463A
:102E50008C4916F0D5F802228B49002016F0D0F8E4
:102E600002228A49052016F0CBF801210A2016F02B
:102E700031FA0121092016F02DFA01210A2016F05D
:102E800015FA0121092016F011FA01233C22022132
:102E90007F4811F075FF7E4811F0FAFE7D4814F06E
:102EA000F1FB14F0E7FB02280BD07B497848FDF7D3
:102EB0007BFC79496A48FDF777FC4FF4FA7016F00D
:102EC00031FA6420FEF70CFE16F00AFA734B744ECA
:102ED000186000250A2705F071FA8DF804708DF846
:102EE00005500395029601AB93E8070004AB83E815
:102EF00007008DF810708DF811500596069593E82F
:102F0000070007AB83E80700664C04F58E680ECB1C
:102F1000404684F88C7484F88D54C4F89064C4F8E6
:102F200094540AF03DF994F87D34C4F86C84002B75
:102F300000F016815C4D5D49494800232B70FDF778
:102F400033FC5B4805F0AAF9012200235949684681
:102F5000FDF73CFC0099564805F002FA0320FEF705
:102F60006DFB40F6D864A042534BD4BF002201222F
:102F700003201A70FEF762FBA04203DD2B78002BC2
:102F800040F0E4806420FEF72FFE0C214B4813F044
:102F90004DF90446002800F0B18049493048FDF75A
:102FA00003FC484B01221A60474C6420FEF75CFE8C
:102FB000204615F017FA0346002845D0204615F0A4
:102FC00011FAC82016F0AEF9204615F00BFA206A67
:102FD0003E493F4C1BF038FF3E491CF03FF84FF094
:102FE00078511CF03BF800211BF030FF3A491CF0EF
:102FF00035F838491CF0E6F81CF00CFA374B206025
:103000000122374916481A70FDF7CEFB354B0422D2
:103010001A606420FEF758FE334E344D344C642061
:10302000FEF782FE002333602B6023600A2016F037
:1030300079F923682E4A002BF8D0002333602B60E7
:1030400013600BB0BDE8F083244A2A49044813708A
:10305000FDF7AAFB4FF4E131274817F03FFDD8E711
:10306000CC97FF1F908AFF1F04A2FF1F488AFF1FF3
:1030700014DDFF1F68DDFF1F6C4A020079040000A9
:10308000B9040000F9040000F90600008105000001
:1030900080BAFF1FAD060000804A020034BAFF1F4D
:1030A00080F0FA02D0A2FF1F00A2FF1F1C4B0200FB
:1030B000B48AFF1F00093D0014A2FF1FECDBFF1FB5
:1030C000B04A0200C0DCFF1F48DCFF1F00000842BE
:1030D000588AFF1F0000C8420000B44220DCFF1FD6
:1030E000F84A020044DCFF1F78BAFF1F18CBFF1F0D
:1030F000F8CAFF1F084B0200A497FF1F6B4813F08C
:1031000051FE054628B36A496A48FDF74DFB6A4BF4
:103110006648022201211A6013F024FF2146634809
:1031200013F034FF2146614813F044FF21465F4805
:1031300013F05EFF7621614813F08CFB00283FF40A
:1031400033AF5F495B48FDF72FFB2DE7FFF710FD1D
:1031500018E75C495748FDF727FB574B1D6023E7ED
:1031600041460122204609F0C7F900283FF4E2AEAB
:1031700004F5896007F0A6F9214604F5896007F097
:103180006FFB00283FF4D6AE4F4B504D5049494895
:103190001C6001262E70FDF707FB4E4AD4F86C0424
:1031A000092109F0D9FD4C4BD4F86C04E2791A607E
:1031B00010B1077E002F55D0484809F05FF9064648
:1031C00030461BF0F3FE46491BF048FF33460746E6
:1031D000444A207913601BF0EDFE39461BF03EFF98
:1031E0003C4B41491A78086012F0C0021BD0402ABB
:1031F0004BD000203D4B1860A3E621460E2016F070
:1032000069F821460F2016F065F82146102016F0C7
:1032100061F8F1E50023364926482370FDF7C4FA2A
:10322000E6E50123C8E5587ADA799C799F7A5979DD
:103230001E7A00F00300920004F00303400001F046
:103240000F0142EA832340EAD710084443EA961369
:103250000133073803FA00F01BF0A8FE20491BF0E9
:10326000FDFEC7E7314609F0ADFF58B1204609F031
:1032700005F90646D4F86C0420B1394609F0A2FFDE
:1032800000289DD100270023A2E7D9795A7A187A1D
:10329000531C01F03F0203EB024303EB00208002CA
:1032A0001BF084FE0E491BF0D9FEA3E718DDFF1FBB
:1032B000C04A0200CC97FF1FC0DCFF1F40BAFF1FAF
:1032C000D44A0200E44A0200A0DDFF1F00A2FF1F53
:1032D0009C4A0200BCBAFF1F04CBFF1FD0A2FF1FF5
:1032E000BD37063A28DBFF1FA4A1FF1F7CBAFF1FD2
:1032F000584A020070B5314C82B02046012112F0CC
:103300004BFB13222E49204617F036FD204617F0BE
:103310006FFD2046012112F045FB2046022112F0EC
:103320003BFB284A284B16681D6828490022204686
:10333000642303FB06F3013593FBF5F517F01CFD41
:10334000204617F055FD01222046214917F014FDB3
:103350002946204617F0C4FD022220461D4917F0D9
:103360000BFD1D4B18681BF0CFF902260B460246D9
:103370000096204617F0BCFD204617F039FD0022CC
:103380001146204612F004FB144BED0183FB05238C
:10339000ED17C5EB6313012108221BB220460191F2
:1033A00000920021342211F0BBFF204611F04AFEAA
:1033B000204602B0BDE8704011F06ABC80BAFF1F21
:1033C000384B020060DDFF1FCCA2FF1FFC7B020018
:1033D000B04F02004C4B02000CB7FF1F1F85EB5192
:1033E00070B5234C82B00126282305460A222046C8
:1033F000009301968023002111F092FF20460221C4
:1034000012F0CAFA2046002112F0CCFA0022194923
:10341000204617F0B1FC204617F0EAFC08221649B6
:10342000204617F0A9FC204617F0E2FC3146204662
:1034300012F0B2FA0A221149204617F09DFC2846E4
:103440001DF05EFB29460246204617F095FC2046FB
:1034500017F0CEFC00222046114612F099FA2046C1
:1034600011F0F0FD204602B0BDE8704011F010BC34
:1034700080BAFF1FFC7B0200504B02005C4B020035
:103480002DE9F04F8FB002AFFFF7BCF8644809F0A8
:10349000D3FF40F601226349634807F0B5F90028DD
:1034A00000F0B383142261495F48DFF8B89107F058
:1034B000B3FD12225E495C4807F0AEFD14F078F8C7
:1034C0000A22014607F1200017F0E4FF07F120016E
:1034D000584817F067FC07F1200017F069FF012238
:1034E0005549514807F098FD14F072F80A22014638
:1034F00007F1200017F0CEFF07F120014D4817F02B
:1035000051FC07F1200017F053FF01224B494648B8
:1035100007F082FD14F07CF80A22014607F1200032
:1035200017F0B8FF07F12001424817F03BFC07F104
:10353000200017F03DFF012241493B4807F06CFD98
:1035400014F076F80A22014607F1200017F0A2FFD6
:1035500007F12001374817F025FC07F1200017F08C
:1035600027FF01223649304807F056FD14F070F865
:103570000A22014607F1200017F08CFF07F1200115
:103580002C4817F00FFC07F1200017F011FF294815
:1035900017F02EFC10222B49234807F03DFD2A4B43
:1035A0002448196817F09CFC292228491E4807F076
:1035B00033FD01211F4817F093FC1E4817F018FC3B
:1035C0001C222349184807F027FD224B1948196887
:1035D00017F086FC20222049134807F01DFD1F4BE1
:1035E0001448196817F07CFC124817F001FCD9F850
:1035F0000020960006F10A0323F00703ADEB030D4C
:1036000002A9ADEB030D02AB002AB961FB6138DD05
:10361000134DD5F800800E4440460C4626E000BF0E
:1036200015060000A48AFF1F98DCFF1F684B0200EC
:10363000B444020088DCFF1F9C510200804B020052
:10364000C8440200F846020004A2FF1F844B020097
:10365000B04B0200408AFF1FD04B0200488AFF1F78
:103660006CA7FF1FCCA2FF1F55F8040FC8EB00008A
:103670001BF0A0FCAF491BF0A5FD44F8040BB442BD
:10368000F2D1F969AC48FEF7E3FDD9F80040002C0F
:1036900040F36482BE69A5004FF0000A06EB0508FE
:1036A000504656F8041B1BF0D1FB4645F9D1824623
:1036B00020461BF07FFCFB69B860014650461D4464
:1036C0001BF080FDD7F81C800646002358F8041B29
:1036D00018461BF0BBFBA8450346F7D1BB69B96888
:1036E000043B1D463B61FB69043B7B611BF06AFDAB
:1036F000D7F814A07E60AB465646F8604FF000083D
:103700000025DA4656F8041F5AF8040F1BF0A6FCF1
:10371000014640461BF09AFB0135A5428046F1DB8D
:103720007E684FF0000A002531465BF8040F1BF05D
:103730008BFB01461BF092FC014650461BF086FBBA
:103740000135A5428246EFDBB86831461BF086FCA6
:10375000D7F80CB059461BF081FC014640461BF0DF
:1037600073FB51461BF02EFD05460146786030463E
:103770001BF074FC014658461BF066FB2946B860F6
:1037800028461BF06BFCD7F8108082464FF0000BE8
:103790000025314658F8040F1BF056FB01461BF07C
:1037A0005DFC014658461BF051FB0135A54283469E
:1037B000EFDB51461BF052FC7E69D7F80CB0824615
:1037C0004FF000080025594656F8040F1BF03CFB4B
:1037D00001461BF043FC014640461BF037FB013518
:1037E000A5428046EFDB414650461BF0EBFC1AF049
:1037F0008BFF18F097FA044650480D4617F0F8FA78
:103800000F224F494F4807F007FC4C4817F0F0FAD9
:1038100003224D494B4807F0FFFB78681AF074FF0C
:1038200004260B4602460096444817F061FB4348C5
:1038300017F0DEFA03224549424807F0EDFBB8686D
:103840001AF062FF4FF0030ECDF800E00B4602467F
:103850003A4817F04DFB394817F0CAFA32463C494E
:10386000384807F0D9FB22462B46204629461AF055
:103870009FFF1BF095FA1AF047FF052402460B46FE
:1038800000942E4817F034FB2C4817F0B1FAF86971
:10389000FEF718FDD9F80040002C40F38A81BE697C
:1038A000A5004FF0000A06EB0508504656F8041B29
:1038B0001BF0CCFA4645F9D1824620461BF07AFB34
:1038C000FB69F860014650461D441BF07BFCD7F8AD
:1038D0001C800646002358F8041B18461BF0B6FA55
:1038E000A8450346F7D1BB69F968043B1D463B6117
:1038F000FB69043B7B611BF065FCD7F814A07E607C
:10390000AB465646B8604FF000080025DA4656F838
:10391000041F5AF8040F1BF0A1FB014640461BF0A0
:1039200095FA0135A5428046F1DB7E684FF0000A2A
:1039300000250FE000007A446CA7FF1F88DCFF1F02
:10394000F44B020098DCFF1F044C0200084C0200FC
:103950000C4C020031465BF8040F1BF075FA01466F
:103960001BF07CFB014650461BF070FA0135A54266
:103970008246EFDBF96830461BF070FBD7F808B0E1
:1039800059461BF06BFB014640461BF05DFA514661
:103990001BF018FC05460146F86030461BF05EFB44
:1039A000014658461BF050FA2946786028461BF01D
:1039B00055FBD7F81080824600254FF0000B3146AA
:1039C00058F8040F1BF040FA01461BF047FB014674
:1039D00058461BF03BFA0135A5428346EFDB5146C2
:1039E0001BF03CFBD7F81480D7F808B082460026BD
:1039F0000025594658F8040F1BF026FA01461BF023
:103A00002DFB014630461BF021FA0135A542064642
:103A1000EFDB314650461BF0D5FB1AF075FE18F06F
:103A200081F904467B480D4617F0E2F913227A49E2
:103A30007A4807F0F1FA774817F0DAF90322784963
:103A4000764807F0E9FAF8681AF05EFE04260B469D
:103A5000024600966F4817F04BFA6E4817F0C8F907
:103A6000032270496D4807F0D7FA78681AF04CFEC7
:103A700017F0E6FE4FF0030ECDF800E00B460246CD
:103A8000644817F035FA634817F0B2F932466649D0
:103A9000624807F0C1FA22462B46204629461AF012
:103AA00087FE1BF07DF91AF02FFE05240B46024617
:103AB0000094584817F01CFA564817F099F95548E1
:103AC00017F096F90F225949544807F0A5FA5148C2
:103AD00017F08EF9D9F80030002B29DDBB69A3F16E
:103AE0000408FB6900241E1F58F8040F1AF00CFE8E
:103AF00003250B4602460095464817F0F9F90122C6
:103B00004B49464807F088FA56F8040F1AF0FCFDB6
:103B100017F096FE009502460B463E4817F0E8F96E
:103B20003C4817F065F9D9F800300134A342DBDCDA
:103B3000384817F05DF924223E49384807F06CFAFE
:103B4000364806F0BFFC3C48FFF74AFC4FF4FA60E9
:103B500015F0E8FB3437BD46BDE8F08F20461BF07A
:103B600029FA0546014600201BF02CFB044621469D
:103B700028461BF073FA21461BF070FA014600201C
:103B800080461BF061F941461BF01CFB21460546AF
:103B900078601BF063FA014620461BF055F9294670
:103BA000B86028461BF05AFA41461BF057FA824685
:103BB00019E620461BF0FEF90546014600200646A0
:103BC0001BF000FB0446014628461BF047FA21463D
:103BD0001BF044FA014630461BF036F931461BF023
:103BE000F1FA05460146F86020461BF037FA014617
:103BF00020461BF029F92946786028461BF02EFA4A
:103C000031461BF02BFA824603E70C4A0C490D485B
:103C1000FEF770FB88DCFF1F144C020098DCFF1FCE
:103C2000044C0200084C02000C4C0200284C02001C
:103C3000C8450200384C0200A48AFF1F84490200D4
:103C4000CC97FF1FD0A2FF1F10B51D4C82B00122E0
:103C500028232046019200930A228023002111F09C
:103C60005FFB2046022111F097FE2046002111F053
:103C700099FE00221349204617F07EF8204617F0DF
:103C8000B7F809221049204617F076F8204617F0B9
:103C9000AFF807220D49204617F06EF8204617F0BE
:103CA000A7F800222046114611F072FE204611F0BE
:103CB000C9F9204602B0BDE8104010F0E9BF00BFCE
:103CC00080BAFF1FFC7B0200604C02006C4C0200BB
:103CD00008B5642015F026FB0A4B1B6833B90A4B64
:103CE0001B7813B1094B1B7843B908BDFFF7ACFF34
:103CF0004FF47A70BDE8084015F014BBBDE80840E9
:103D0000FFF7BEBBE8DBFF1F00A2FF1F98DDFF1F10
:103D10002DE9F0410C4682B0012180463C48164610
:103D200011F03AFE01213A4811F03CFE05220A2129
:103D3000374811F02DFE731EA34260DC01270C23CF
:103D400012228DE8880000217323314811F0E8FA2F
:103D5000C4EB041500212E4811F024FEBD401422AE
:103D60000A212B4811F014FE08EB05012848FCF746
:103D70001BFD3946264811F015FE23220A2124484E
:103D800011F006FE002C05DDA5F11E01414420487E
:103D9000FCF70AFD2E2292FBF6F2002A2BDC012111
:103DA0002D23321B012403FB02F292FBF6F2224484
:103DB00005238DE8120012B27821154811F0B0FAEF
:103DC00037220021124811F0E3FD14221149104856
:103DD00016F0D2FF32228DE81400802300210C4817
:103DE00011F0DAF90A4811F02DF9094802B0BDE8DE
:103DF000F04110F04DBFC2F12E0311B2D1E7611CAA
:103E0000C1EB011108EB41010148FCF7CDFC95E73E
:103E100080BAFF1F744C02002DE9F04F6E4BADF5D8
:103E2000BC5D93E8030087B000906C488DF80410E7
:103E300006F048FB6A4901F5896006F011FD00288B
:103E400000F0C58000226749674806F0DDFC0028C5
:103E500000F0B8800025654C02E0654806F032FBB2
:103E600000226149624806F0DFFF074650B3237C19
:103E70001A07F2D502A91E225D4808F093F902A89C
:103E80001CF03EFE02AB011F194468461CF02CFCDE
:103E90000028E2D1C72DE0DC0DF5BC531833C5EB8B
:103EA000051203EB4202A2F5BB52113A0DF10703D2
:103EB0000DF1250013F8011F02F8011F8342F9D10B
:103EC0000135CAE7484806F0FDFA05F1FF3B002D31
:103ED00061D00AAFCBEB0B1407EB44045E462046DF
:103EE0001CF00EFE0146204616F00AFC013E414839
:103EF00016F07EFF731CA4F11E04F0D1DFF80C91C4
:103F0000DFF8F8803C4E0023C9F80030C8F80030D4
:103F10003360002D4CD05C464FF0000A05E00220D3
:103F200015F000FAD9F800301BBB2A462146384666
:103F3000FFF7EEFE336833B1013C25D4AC42A8BF95
:103F40002C46C6F800A0D8F80030002BE7D0FDF7CB
:103F50002BFEC4EB041007EB4000FEF703FB274BDE
:103F60000220C3F800A015F0DDF9D9F80030002BCD
:103F7000DBD00023C9F80030C8F8003033600DF5FD
:103F8000BC5D07B0BDE8F08FBBF1FF3F08BF002468
:103F9000D7D05C46D2E7DFF87490DFF86080164E29
:103FA000C9F80070C8F8007037600DB10AAFB2E709
:103FB00013491048FCF7F8FB4FF47A711048FEF7EC
:103FC000A3FDD6E70F4A0B490548FEF793F90E4AC1
:103FD00008490348FEF78EF9C44C020018A7FF1FDA
:103FE000D0A2FF1FC8440200B8A1FF1F88DCFF1F3A
:103FF00098DCFF1FCC97FF1FF8CAFF1F18CBFF1FCD
:10400000B44C0200A44C02008C4C020078BAFF1F92
:104010002DE9F04FBB4FBC4D3C68DFF804E3EDB039
:1040200006904FF47A7000FB01F108948EFB01605A
:10403000089C2E680593C917A41BC1EB6011769BE1
:1040400004928C42A3F1080A00F20A81AF4AB04BF5
:10405000126807920DF124081B68AD4F03931C46AC
:104060001D4607F5C2793E464E45294610D056F802
:1040700004BF58461BF0AEF9214600B15D465846D4
:104080001BF08AF90028EFD04E455C462946EED158
:1040900050461AF08FFF2146834628461AF0D4FE78
:1040A0000646039801E057F8040F21461AF0CCFEAB
:1040B00059461AF0D3FF31461BF084F800211AF05C
:1040C000C5FE1BF0A7F94F45C0EB0A0048F8040FE6
:1040D000E9D1BDF81430039303F1040A079BDFF81C
:1040E00040920794013B1FFA8AFA1E210DF1280B1A
:1040F0000EE001F1010889FB07321FFA88F1FB1776
:10410000C3EB62137F294FF0620202FB137317D0D7
:10411000602B03F10107ECDC5BF823205BF8273010
:104120007C48534401F1010852441BB2012400931E
:1041300012B209B20FFA88F3019411F02DF8DAE700
:10414000039B7699BDF81070079C03EB0108BDF93D
:10415000141005911FFA88F807F11E034FF00109AA
:1041600008461BB20FFA88F219460092CDF8049067
:104170000246684811F010F807F1200B07F11C0304
:104180000FFA8AF20FFA8BFB0FFA83FA51468DE889
:1041900004025B465F4810F0FFFFA8F1040212B270
:1041A0005B468DE8040251465A4810F0F5FF494637
:1041B000584811F0F1FB0021564811F0F3FB7699B5
:1041C000039A5448CDF8049001EBD17302EB6303DA
:1041D0001FFA83FAAAF105020A23BDF91010009311
:1041E00012B21E2311F09CF830464B491BF0F2F836
:1041F0007E1C36B228B9494920461BF0EBF800284E
:1042000049D0AAF1040212B23146424811F0C0FB73
:1042100006981BF0FFF801463E4816F061FE0121AA
:104220003C4811F0BFFB059A3A48314611F0B0FB0B
:1042300028461BF0EFF80146364816F051FEA8F16B
:104240000A02314612B2334811F0A2FB20461BF09D
:10425000E1F801462F4816F043FE6DB0BDE8F08F3F
:104260002A493C68086809940DF12408421C8EFB19
:104270000276D417C4EB66142646622404FB162289
:10428000234B07921446069A43F82020D8F80020C2
:104290000C602A60E0E6AAF1040212B231461D4821
:1042A00011F076FB06981AF02FFA02270B46024609
:1042B0000097184816F01CFE4946164811F072FB8C
:1042C000059A1448314611F063FB28461AF01CFA8F
:1042D00000970B4602460F4816F00AFEA8F10A02A4
:1042E000314612B20B4811F053FB20461AF00CFA7B
:1042F000009702460B46074816F0FAFD6DB0BDE880
:10430000F08F00BFFCE2FF1F2CDBFF1F18DCFF1F3C
:1043100014B7FF1F80BAFF1F000020410000C842F1
:104320009D82975330B5012183B04248424D11F030
:1043300033FB01213F4811F035FB40493D48FCF774
:1043400033FA082214213B4811F022FB0C223C498D
:10435000384816F011FD14220021364811F018FBE0
:1043600005223849334816F007FD286D1AF0CCF9BC
:1043700002240B46024600942E4816F0B9FD2D4843
:1043800016F036FD1E2200212A4811F001FB0522FD
:104390002D49284816F0F0FC686D1AF0B5F9009424
:1043A0000B460246234816F0A3FD224816F020FDD6
:1043B000282200211F4811F0EBFA052223491D484D
:1043C00016F0DAFCA86D1AF09FF9009402460B462D
:1043D000184816F08DFD174816F00AFD3222012309
:1043E0008DE80C0000218023124810F0D5FE372202
:1043F0000021104811F0CCFA154B1B6813B1154B76
:104400001B788BB914490B48FCF7B6F9002211460A
:10441000084811F0BDFA074810F014FE054803B033
:10442000BDE8304010F034BC0C490248FCF7A4F958
:10443000ECE700BF80BAFF1F18A2FF1FCC4C0200A0
:10444000E04C0200F04C0200F84C0200004D02006B
:10445000C0DCFF1F00A2FF1F204D0200084D02001C
:1044600030B5012183B03F483F4D11F095FA01214D
:104470003C4811F097FA3D493A48FCF795F9082273
:104480001421384811F084FA39493648FCF78CF980
:1044900014220021334811F07BFA052235493148B6
:1044A00016F06AFC286E1AF02FF902240B46024619
:1044B00000942C4816F01CFD1E220021294811F002
:1044C00067FA05222C49274816F056FC686E1AF048
:1044D0001BF900940B460246224816F009FD2822DB
:1044E0000021204811F054FA052224491D4816F0F5
:1044F00043FCA86E1AF008F9009402460B461948CE
:1045000016F0F6FC1E491748FCF74EF9322201233B
:104510008DE80C0000218023124810F03DFE372268
:104520000021104811F034FA164B1B6813B1164BDA
:104530001B788BB915490B48FCF71EF90022114670
:10454000084811F025FA074810F07CFD054803B033
:10455000BDE8304010F09CBB0D490248FCF70CF957
:10456000ECE700BF80BAFF1F18A2FF1FCC4C02006F
:10457000384D0200F04C0200F84C0200004D0200E1
:10458000B04F0200C0DCFF1F00A2FF1F204D020041
:10459000084D020030B5012183B04548454D11F06A
:1045A000FBF90121424811F0FDF943494048FCF76D
:1045B000FBF8082214213E4811F0EAF93F493C4833
:1045C000FCF7F2F814220021394811F0E1F9052234
:1045D0003B49374816F0D0FBD5F880001AF094F824
:1045E00002240B4602460094314816F081FC304804
:1045F00016F0FEFB1E2200212D4811F0C9F90522FC
:1046000030492B4816F0B8FBD5F884001AF07CF836
:1046100000940B460246264816F06AFC244816F021
:10462000E7FB28220021224811F0B2F90522264991
:104630001F4816F0A1FBD5F888001AF065F8009421
:1046400002460B461A4816F053FC194816F0D0FBE8
:104650001E491748FCF7A8F8322201238DE80C0008
:1046600000218023124810F097FD372200211048C6
:1046700011F08EF9164B1B6813B1164B1B788BB9D2
:1046800015490B48FCF778F800221146084811F04C
:104690007FF9074810F0D6FC054803B0BDE830406C
:1046A00010F0F6BA0D490248FCF766F8ECE700BFD7
:1046B00080BAFF1F18A2FF1FCC4C02004C4D020015
:1046C000F04C0200F84C0200004D0200B04F020016
:1046D000C0DCFF1F00A2FF1F204D0200084D02009A
:1046E00030B5012183B04348434D11F055F9012104
:1046F000404811F057F941493E48FCF755F8082267
:1047000014213C4811F044F93D493A48FCF74CF873
:1047100014220021374811F03BF905223949354868
:1047200016F02AFB286B19F0EFFF02240B46024615
:104730000094304816F0DCFB2E4816F059FB1E2280
:1047400000212C4811F024F905222F49294816F0A0
:1047500013FB686B19F0D8FF00940B4602462548FE
:1047600016F0C6FB234816F043FB282200212148FF
:1047700011F00EF9052225491E4816F0FDFAA86B26
:1047800019F0C2FF009402460B461A4816F0B0FB1F
:10479000184816F02DFB1E491648FCF705F8322282
:1047A00001238DE80C0000218023124810F0F4FC56
:1047B000372200210F4811F0EBF8164B1B6813B19C
:1047C000154B1B788BB915490A48FBF7D5FF00221A
:1047D0001146084811F0DCF8064810F033FC054893
:1047E00003B0BDE8304010F053BA0D490148FBF763
:1047F000C3FFECE780BAFF1F18A2FF1FCC4C0200DA
:10480000584D0200F04C0200F84C0200004D02002E
:10481000B04F0200C0DCFF1F00A2FF1F204D0200AE
:10482000084D020030B5012183B04348434D11F0DB
:10483000B3F80121404811F0B5F841493E48FBF773
:10484000B3FF082214213C4811F0A2F83D493A4830
:10485000FBF7AAFF14220021374811F099F805222E
:104860003949354816F088FA286F19F04DFF0224AF
:104870000B4602460094304816F03AFB2E4816F0DC
:10488000B7FA1E2200212C4811F082F805222F4988
:10489000294816F071FA686F19F036FF00940B463C
:1048A0000246254816F024FB234816F0A1FA2822D8
:1048B0000021214811F06CF8052225491E4816F008
:1048C0005BFAA86F19F020FF009402460B461A48C5
:1048D00016F00EFB184816F08BFA1E491648FBF727
:1048E00063FF322201238DE80C000021802312484F
:1048F00010F052FC372200210F4811F049F8164BF6
:104900001B6813B1154B1B788BB915490A48FBF787
:1049100033FF00221146084811F03AF8064810F01B
:1049200091FB054803B0BDE8304010F0B1B90D4926
:104930000148FBF721FFECE780BAFF1F18A2FF1F19
:10494000CC4C0200684D0200F04C0200F84C020012
:10495000004D0200B04F0200C0DCFF1F00A2FF1F8D
:10496000204D0200084D020030B5012183B04348BC
:10497000434D11F011F80121404811F013F841495D
:104980003E48FBF711FF082214213C4811F000F8C3
:104990003D493A48FBF708FF14220021374810F040
:1049A000F7FF05223949354816F0E6F9286C19F069
:1049B000ABFE02240B4602460094304816F098FAEB
:1049C0002E4816F015FA1E2200212C4810F0E0FFA8
:1049D00005222F49294816F0CFF9686C19F094FE8A
:1049E00000940B460246254816F082FA234816F03A
:1049F000FFF928220021214810F0CAFF052225498D
:104A00001E4816F0B9F9A86C19F07EFE0094024613
:104A10000B461A4816F06CFA184816F0E9F91E49C8
:104A20001648FBF7C1FE322201238DE80C0000215D
:104A30008023124810F0B0FB372200210F4810F0FD
:104A4000A7FF164B1B6813B1154B1B788BB9154983
:104A50000A48FBF791FE00221146084810F098FF23
:104A6000064810F0EFFA054803B0BDE8304010F0FA
:104A70000FB90D490148FBF77FFEECE780BAFF1F35
:104A800018A2FF1FCC4C0200784D0200F04C02002F
:104A9000F84C0200004D0200B04F0200C0DCFF1FC6
:104AA00000A2FF1F204D0200084D020030B5012179
:104AB00083B04448444D10F06FFF0121414810F08D
:104AC00071FF42493F48FBF76FFE082214213D4821
:104AD00010F05EFF3E493B48FBF766FE14220021C2
:104AE000384810F055FF3B493648FBF745FE686AE9
:104AF00019F00AFE02240B4602460094314816F0D3
:104B0000F7F935492F48FBF737FE1E2200212D48C3
:104B100010F03EFF31492B48FBF72EFEA86A19F032
:104B2000F3FD00940B460246264816F0E1F90422F4
:104B30002B49244816F020F928220021214810F0A2
:104B400027FF28491F48FBF717FEE86A19F0DCFD2C
:104B5000009402460B461B4816F0CAF92249194830
:104B6000FBF70AFE0121174810F016FF322201233D
:104B70008DE80C0000218023124810F00DFB372235
:104B80000021104810F004FF184B1B6813B1184B9C
:104B90001B788BB917490B48FBF7EEFD0022114635
:104BA000084810F0F5FE074810F04CFA054803B02D
:104BB000BDE8304010F06CB80F490248FBF7DCFD4F
:104BC000ECE700BF80BAFF1F18A2FF1FCC4C020009
:104BD000884D0200944D0200A44D0200A84D020031
:104BE000B44D0200BC4D0200C84D0200C0DCFF1FE6
:104BF00000A2FF1F204D0200084D020008B5FCF77F
:104C0000E9FB134B1B68062B21D8DFE803F0080CE7
:104C10001014181C0400BDE80840FFF747BFBDE8AA
:104C20000840FFF77FBBBDE80840FFF719BCBDE8AF
:104C30000840FFF7AFBCBDE80840FFF751BDBDE835
:104C40000840FFF7EFBDBDE80840FFF78DBE08BD87
:104C50003CBAFF1F30B5374885B010F0B9FF812846
:104C600063D0344810F0F4FF334B1B6803930446C1
:104C700000230A220399314816F0F2F80121304846
:104C800015F03EFD204619F03FFD022502460B4679
:104C900000952A4816F02CF9284816F0A9F80023A8
:104CA0003022204600920A211A46FFF7B1F900216E
:104CB000244810F077FE01240A238DE81800002212
:104CC0002D2328211F4810F02BFB22462A211D48A6
:104CD00010F05EFE08221C491A4816F04DF83722E3
:104CE0000021184810F054FE2146164810F05AFED4
:104CF000164B1B78A3B916491248FBF73DFD32222B
:104D000001238DE80C00002180230E4810F044FAA6
:104D10000C4810F097F90B480FF0BAFF05B030BD02
:104D20000C490848FBF728FDE9E70B490348FBF766
:104D30003BFD96E768DDFF1FFCE2FF1FCC97FF1FDE
:104D4000B04F020080BAFF1FE84D020000A2FF1F13
:104D50000C4E0200F44D0200CC4D020070B5012152
:104D600084B00546604810F017FE01215E4810F03F
:104D700019FE5E495C48FBF717FD5D495A48FBF791
:104D800013FD5C495848FBF70FFD5B4810F020FF0E
:104D9000812800F0A480584810F05AFF0446002DE6
:104DA0007DD014220A21504810F0F2FD03214E4814
:104DB00010F0F2FD514920461AF002FB002863D0A2
:104DC00020461AF027FB0146474816F089F81422BE
:104DD0006421454810F0DCFD0121434810F0DCFD62
:104DE00047494148FBF7C8FC142264213E4810F0B3
:104DF000CFFD02213C4810F0CFFD42493A48FBF775
:104E0000BBFC0121384810F0C7FD01243222802369
:104E10008DE814000021344810F0BEF9372200213B
:104E2000314810F0B5FD21462F4810F0B5FD214660
:104E30002D4810F0B7FD372200212B4810F0A8FDB7
:104E4000314B1B7833B1002D44D130492648FBF754
:104E500093FC03E02E492448FBF78EFC0022114608
:104E6000214810F095FD322201238DE80C0000212D
:104E700080231D4810F090F91B4810F0E3F81A4801
:104E80000FF006FF04B070BD204619F03DFC02246F
:104E900002460B460094144816F02AF897E71D4B7B
:104EA0001D481B6803930A222B46039915F0D8FF6F
:104EB00010491948FBF760FC204619F025FC022632
:104EC00002460B460096144816F012F8124815F0E8
:104ED0008FFF66E711490448FBF74EFCBEE7104917
:104EE0000D48FBF761FC56E780BAFF1F244E020015
:104EF000344E0200B04F020068DDFF1F0000C842C0
:104F0000444E0200484E020000A2FF1F644E020001
:104F10007C4E0200FCE2FF1FCC97FF1F4C4E0200AC
:104F2000CC4D0200044B186820B1012801D1FFF7D5
:104F300091BE7047FFF712BF20DBFF1FF0B50E20B8
:104F400083B013F0B3FC05460F2013F0AFFC064608
:104F5000102013F0ABFC5F4904465F48FBF724FCCC
:104F60005E495D48FBF720FC5D495B48FBF704FCAC
:104F70002946594815F0B4FF574815F039FF5949EB
:104F80005548FBF7F9FB3146534815F0A9FF524845
:104F900015F02EFF54495048FBF7EEFB21464E48D2
:104FA00015F09EFF4C4815F023FF322000FB05F062
:104FB00000F50073002BB8BF00F2FF554FF0320030
:104FC00000FB06F0A8BF1D46AD12002B00F50073D4
:104FD000ACBF193D1A3D002B1F46B8BF00F2FF576A
:104FE000322000FB04F0002B4FEAA72700F50073E6
:104FF000ACBF193F1A3F002B1C464FF00106B8BF4B
:1050000000F2FF54002B4FF019031A464FEAA42474
:105010004FF0460130480096C5F11905B8BF04F1BC
:10502000FF342DB210F0C6F907F146038DE8600099
:105030001BB219224621284810F0AEF8192C38DD91
:10504000A4B2A4F119031BB2C4F132028DE84800E6
:1050500012B20A236921204810F062F901211E488A
:1050600010F09AFC01211C4810F09CFC3722002112
:10507000194810F08DFC1D4B1B7833BB1C4916489A
:10508000FBF77AFB00221146134810F081FC322214
:1050900001238DE80C00002180230F4810F07CF8DC
:1050A0000D480FF0CFFF0C4803B0BDE8F0400FF003
:1050B000EFBDC4F1190424B28DE850000A2319226F
:1050C0006921054810F02CF9C8E70A490248FBF7A6
:1050D00053FBD7E7944E020080BAFF1FFC7B02000F
:1050E000A04E0200A44E0200A84E020000A2FF1F24
:1050F000C44E0200AC4E020030B5012183B004461C
:10510000754810F049FC0121734810F04BFC7349BD
:105110007148FBF749FB01216F4810F03DFC002C62
:1051200067D06F496C48FBF727FB6E4A6E4B1268DD
:105130006E4953F822306848B1FBF3F10A2200238C
:1051400015F08EFE6A496448FBF72EFB63496248FE
:10515000FBF72AFB0121604810F024FC012C00F031
:10516000988064495C48FBF707FB634B5A48196811
:1051700015F0B6FE61495848FBF716FB57495648EB
:10518000FBF712FB0121544810F00CFC022C71D0EB
:105190005B495148FBF7F0FA5A4B4F48196815F034
:1051A0009FFE01214C4810F0FDFB01243222802398
:1051B0008DE81400002148480FF0EEFF21464648D4
:1051C00010F0EAFB37220021434810F0E1FB4E4982
:1051D0004148FBF7D1FA002211463F4810F0D8FBB6
:1051E0003D480FF02FFF3C4803B0BDE830400FF0C2
:1051F0004FBD2146384810F0D5FB012510238DE81E
:105200002800042280232146334810F089F83449CD
:105210003148FBF7B1FA334A334B1268334953F83C
:1052200022302D48B1FBF3F10A22234615F018FE77
:105230002F492948FBF7B8FA28492748FBF7B4FA61
:105240002946254810F0AEFB2A492348FBF794FA7B
:10525000294B2148196815F043FE28491E48FBF7E1
:10526000A3FA1E491C48FBF79FFA29461A4810F07A
:1052700099FB8DE70021184810F094FB10220123C0
:105280008DE80C00002180232422134810F048F8F8
:105290007EE70021104810F085FB102314228DE8D2
:1052A0001800002180230C4810F03AF811490A48F0
:1052B000FBF762FA104B0848196815F011FE0F4908
:1052C0000548FBF771FA05490348FBF76DFA2146DB
:1052D000014810F067FB5BE780BAFF1FFC7B020010
:1052E000404F0200908AFF1F5C8AFF1F40420F0060
:1052F0000C450200504F020004A2FF1F644F020041
:10530000684F0200488AFF1F7C4F020070B5304C86
:10531000304D82B02046012110F03EFB2046012195
:1053200010F040FB14222C49204615F025FD2046A4
:1053300015F05EFD2046022110F02EFB29460022CA
:10534000204615F019FD204615F052FD0522204695
:10535000224915F011FD224B2046196815F0C0FDB9
:1053600029460022204615F007FD204615F040FD95
:105370000126322280238DE84400204600210FF0D0
:105380000BFF3146204610F007FB2946002220463D
:1053900015F0F2FC204615F02BFD29460022204690
:1053A00015F0EAFC204615F023FD204614220D4995
:1053B00015F0E2FC00222046114610F0E9FA2046E2
:1053C0000FF040FE204602B0BDE870400FF060BC18
:1053D00080BAFF1FFC7B0200944F0200AC4F02001A
:1053E000488AFF1FB44F02001C491D4A2DE9F041B5
:1053F00000231C4E1C4F1D4DDFF874800B601360A2
:105400003468184B84B9FFF781FFFCF70DFB2B685C
:10541000154ABBB13B682C60012B03F1FF33EEDC76
:105420003468104B002CEED0002202201A6013F0DA
:1054300001FB3C7884420FD021460220BDE8F041B8
:1054400013F012BBD8F80020002AD9D03A68C8F867
:10545000003001323A60D3E7BDE8F0810CA2FF1FB3
:10546000C4DCFF1F18CBFF1F488AFF1F78BAFF1F3D
:10547000F8CAFF1F70B5334C334D82B0204601216E
:1054800010F08AFA2046012110F08CFA13222F49DD
:10549000204615F071FC204615F0AAFC204602219A
:1054A00010F07AFA29460022204615F065FC2046C5
:1054B00015F09EFC02222046254915F05DFC254B87
:1054C0002046196815F00CFD20460322224915F0EC
:1054D00053FC29460022204615F04EFC204615F0CC
:1054E00087FC0126322280238DE8440020460021DB
:1054F0000FF052FE3146204610F04EFA29460022A7
:10550000204615F039FC204615F072FC2946002291
:10551000204615F031FC204615F06AFC2046142286
:105520000E4915F029FC00222046114610F030FAF1
:1055300020460FF087FD204602B0BDE870400FF016
:10554000A7BB00BF80BAFF1FFC7B0200CC4F02004C
:10555000E04F020004A2FF1FE44F0200B44F02001C
:105560002D492E4A2DE9F04100232D4E2D4F2E4D71
:10557000DFF8CC800B6013603468294B8CB9FFF7DF
:1055800079FFFCF751FA2B68264A002B34D03B6890
:105590002C60012B03F1FF33EDDC3468204B002C31
:1055A000EDD0002201203C681A6013F043FAE5B206
:1055B00085421C4E04D02946012013F055FA346868
:1055C0001A4A1B4B10681B681A4D00FB03F019F0B8
:1055D000F1FC0646204619F0EDFC174919F0F2FDE2
:1055E000164919F03BFD0146304619F0EBFD19F064
:1055F00011FF2860BDE8F081D8F800200949002A91
:10560000BAD03A68C8F80030B2F57A7F02F10102E8
:10561000B2DA0A60B0E700BF0CA2FF1FC4DCFF1FB4
:1056200018CBFF1F04A2FF1F78BAFF1F488AFF1F75
:10563000448AFF1FCCA2FF1F00007A44D00F4940CC
:10564000F8CAFF1F70B52D4C2D4D82B020460121A8
:1056500010F0A2F92046012110F0A4F920462949B2
:10566000FBF7A2F82046022110F096F929462046C1
:10567000FBF79AF820460222234915F07DFB234AC6
:10568000234B1268234953F82230B1FBF3F1204633
:1056900000230A2215F0E4FB032220461E4915F0E0
:1056A0006BFB29462046FBF77FF801263222802338
:1056B0008DE84400204600210FF06EFD3146204663
:1056C00010F06AF929462046FBF76EF82946204675
:1056D000FBF76AF820461422104915F04DFB002212
:1056E0002046114610F054F920460FF0ABFC20463E
:1056F00002B0BDE870400FF0CBBA00BF80BAFF1F08
:10570000FC7B0200E84F0200E04F0200908AFF1F7E
:105710005C8AFF1F40420F000C450200B44F02009C
:105720002DE9F041214DDFF89480214C214E2F6866
:105730001E4B0A20DFB913F0F5FDFFF783FF236846
:105740001D4A1BB3D8F800302760013386FB0321C4
:10575000DA17C2EBA10202EB420102EB81022F68D1
:105760009B1AC8F800300A20104B002FE3D0002409
:1057700020461C6013F05EF998F80050854213D063
:1057800029462046BDE8F04113F06EB911680B4878
:105790000029CCD0D8F8001013604A1E002AC8F89F
:1057A0000020C4DA0360C2E7BDE8F08118CBFF1F18
:1057B00078BAFF1F4FECC44EF8CAFF1F908AFF1F34
:1057C0002DE9F0411A4F1B4EDFF8708000243D6830
:1057D000174B0120ADB913F0A5FD2046FFF78CFC57
:1057E0003368154A8BB1012C35601ED0022C19D0BC
:1057F000002CECD1FFF794FF3D680D4B0120002DEC
:10580000E9D000221A60BDE8F081611C88FB010527
:1058100010680028DBD0A5EBE17404EB44040C1BFA
:105820001360D4E7FFF7E0FDD1E7FFF799FECEE77D
:1058300078BAFF1F18CBFF1FF8CAFF1F56555555E2
:1058400000B5002183B0314810F0ACF801221E21D0
:105850002E4810F09DF801212C4810F0A3F80522E5
:105860002B492A4815F088FA37220021274810F0E2
:105870008FF80F222749254815F07EFA264B1B6822
:10588000042B0BD8DFE803F0212931390300234929
:105890001E48FAF771FF1520FDF742F80022114665
:1058A0001A4810F075F8322201238DE80C0000210F
:1058B000802316480FF070FC14480FF0C3FB134808
:1058C00003B05DF804EB0FF0E3B915490F48FAF7A0
:1058D00053FF0E20FDF724F8E0E712490B48FAF7D2
:1058E0004BFF0F20FDF71CF8D8E70F490748FAF7E0
:1058F00043FF1020FDF714F8D0E70C490348FAF7EE
:105900003BFF1420FDF70CF8C8E700BF80BAFF1F6B
:10591000005002000850020014DCFF1F2850020053
:10592000185002001C5002002050020024500200B7
:1059300008B5084B1B6833B1012B03D1BDE8084003
:10594000FFF77EBF08BDFFF7F9FABDE80840FAF798
:105950006FBF00BF20DBFF1F30B53C4D2B6883B00D
:10596000072B08D8DFE803F054585C6064686D04C6
:10597000142012F09BFF19F01DFB0023302200922F
:105980000A211A46FEF744FB0021314810F00AF8BC
:1059900001240A238DE818000022182364212C48D2
:1059A0000FF0BEFC2246682129480FF0F1FF29685C
:1059B000274815F095FA27492548FAF7DDFE072113
:1059C000234815F08DFA3722002121480FF0E0FF1F
:1059D00021461F480FF0E6FF1F491D48FAF7CCFE8D
:1059E00029681E4B1A4803EB011115F0DBF932222E
:1059F0008DE814008023002115480FF0CDFB1448DA
:105A00000FF020FB124803B0BDE830400FF040B962
:105A10000020FBF713FEAEE70120FBF70FFEAAE71D
:105A2000052013F049FCA6E7042013F045FCA2E78B
:105A3000002013F041FC9EE7094B186819F0EAFCBE
:105A400099E7152012F032FF95E700BFCCDCFF1F6D
:105A500080BAFF1FC84402002C50020030DBFF1F39
:105A60000CB7FF1F30B50A2483B000250020FBF7D8
:105A7000E5FD0544012013F055FC013CF6D1884BAF
:105A8000884883FB05230121ED17C5EBA3050FF023
:105A900083FF012183480FF085FF224614218148AE
:105AA0000FF076FF29467F4815F01AFA322303FBE0
:105AB00005F3002B1A46B8BF03F6FF72002BB8BFE0
:105AC00003F6FF731213012143F30F33C2F13202C5
:105AD00012B20191009305210C2372480FF020FCB3
