:1000000000800020BD010000698A0100218A0100F2
:10001000218A0100218A0100218A0100218A010030
:10002000218A0100218A0100218A0100698A0100D8
:10003000698A0100218A010031AA010035AA010064
:10004000698A0100698A0100698A0100698A0100E0
:10005000698A0100698A0100698A0100698A0100D0
:10006000698A0100698A0100698A0100698A0100C0
:10007000698A0100698A0100698A0100698A0100B0
:10008000698A0100698A0100698A0100698A0100A0
:10009000698A0100698A0100698A0100698A010090
:1000A000C1450100CD450100698A0100698A01004E
:1000B000698A0100698A0100698A0100698A010070
:1000C000698A0100698A0100698A0100698A010060
:1000D000698A0100698A0100698A0100698A010050
:1000E000698A0100698A0100698A0100698A010040
:1000F000698A0100698A0100698A0100698A010030
:10010000698A010069980100698A0100698A010011
:10011000698A0100698A0100698A0100698A01000F
:10012000698A0100698A0100698A0100698A0100FF
:10013000698A0100698A0100698A0100698A0100EF
:10014000698A0100698A0100698A0100698A0100DF
:1001500091AC0100A5AC0100B9AC0100CDAC01002F
:10016000698A0100DD9B0100698A0100698A01003A
:10017000698A0100698A0100698A0100698A0100AF
:10018000698A0100698A0100698A0100698A01009F
:10019000698A0100698A0100698A0100698A01008F
:1001A000698A0100698A0100698A0100698A01007F
:1001B000698A0100698A0100698A0100564B4CF284
:1001C000205210B51A804DF628121A8000BF00BFC9
:1001D00018F04EFC514B4FF010621A60504A9A6072
:1001E000504ADA60504A136813F4807304D14F49BF
:1001F0000B604FF4A85313604D4B1A78110703D5C9
:100200001A7842F008021A704A4B4B492A221A7097
:100210004A4A4B4B8B4204D252F8040F43F8040B6A
:10022000F8E7484B484900228B4202D243F8042B9E
:10023000FAE74649464A002352F8230041F82300D2
:1002400001336F2BF8D1434B434A802103F8011B44
:100250009342FBD1414B3D4A1A60414B8A221A70AE
:10026000A3F5805324225A70A0221A709A7992071B
:10027000FCD59A79D406FCD43A4A937903F00C035E
:10028000082B384BF9D103221A7140225A719A79FE
:100290009006FCD5334A9179324B4906FBD5324A58
:1002A000324911600221516020221A709A7902F0BD
:1002B0000C020C2AFAD12E4B2E4A1A602E4B2F4AD2
:1002C0001A6000225A60072243F8042C2C4AC3F813
:1002D0000C2D62B618F022FF144B1B68DA0705D507
:1002E000284818F007FF284B284A1A60284B1B782B
:1002F0005B0609D5244C254B22689A4204D121483B
:1003000018F0F8FE0023236018F0B8FB1FF084FA01
:100310001BF03CF9FEE700BF0E2005403080044092
:10032000823F04000100002B10D0034014D0034092
:1003300002D0074000E0074088A1FF1F648502004B
:100340006089FF1F88A1FF1F94E4FF1F0082FF1F29
:100350000000000000E400E05FE400E008ED00E0E1
:100360000050064000400640448004400000030165
:1003700004800440C010050014E000E0FF76010096
:1003800000002020C8FB7D631CE00340A5C3945AF5
:1003900000F00740FFFFFFFFFFFFFFFFFFFFFFFF32
:1003A000FFFFFFFFFFFFFFFFFFFFFFFFFFFFFFFF5D
:1003B000FFFFFFFFFFFFFFFFFFFFFFFFFFFFFFFF4D
:1003C000FFFFFFFFFFFFFFFFFFFFFFFFFFFFFFFF3D
:1003D000FFFFFFFFFFFFFFFFFFFFFFFFFFFFFFFF2D
:1003E000FFFFFFFFFFFFFFFFFFFFFFFFFFFFFFFF1D
:1003F000FFFFFFFFFFFFFFFFFFFFFFFFFFFFFFFF0D
:10040000FFFFFFFFFFFFFFFFFFFFFFFFDEF9FFFF23
:1004100010B5054C237833B9044B13B10448AFF33E
:1004200000800123237010BD88A1FF1F0000000081
:1004300060850200084B10B51BB108490848AFF3AE
:1004400000800848036803B910BD074B002BFBD0A0
:10045000BDE81040184700BF000000008CA1FF1F3E
:100460006085020088A1FF1F000000000020704787
:10047000704700BF704700BF0B4B0C491A680868F3
:1004800084B00192019A121A642A02D9084A012002
:1004900010601A68039203981B680293029A054B36
:1004A00008601A6004B070477CE2FF1F64DCFF1F25
:1004B00030CBFF1F00BBFF1F0B4B0C491A680868AD
:1004C00084B00192019A121A642A02D9084A0120C2
:1004D00010601A68039203981B680293029A054BF6
:1004E00008601A6004B070477CE2FF1F70DCFF1FD9
:1004F00050CBFF1F00BBFF1F0B4B0C491A6808684D
:1005000084B00192019A121A642A02D9084A012081
:1005100010601A68039203981B680293029A054BB5
:1005200008601A6004B070477CE2FF1FE8DBFF1F21
:10053000ACBAFF1F00BBFF1F027C02F0080202F0F2
:10054000FF0332B1C36A406A181A48BF6FF0004017
:1005500070471846704700BF704700BF704700BF24
:1005600008B502220449052018F0FEFC18F06CFEC4
:10057000024B186008BD00BF81050000D4DBFF1FDF
:1005800008B503220549052018F0EEFC18F05CFEC2
:10059000034B044A1B68C01A106008BD61050000C7
:1005A000D4DBFF1F44CBFF1F10300AF0E7BC00BFB5
:1005B00000B583B002AB012203F8011D10301946CB
:1005C0000AF0DCFC03B05DF804FB00BF00B583B0AB
:1005D00001220DF1070110300AF022F901280CBFA9
:1005E0009DF807004FF0FF3003B05DF804FB00BF3B
:1005F00010300AF019BC00BF2DE9F0410F46164635
:10060000804616F0D9FF044616F0C6FF054616F0E0
:10061000B3FFA4F2BC739BB27F2B02D8EAB20C2AC0
:100620002BD90023A8F8003016F076FF044616F008
:1006300083FF054616F090FFE3B2172B02D8EBB20A
:100640003B2B0BD900233B8016F086FF10F0010FE7
:1006500014BF642300233370BDE8F081C3B23B2B89
:10066000F0D8E4026B0104F4FF2403F4FF532343A6
:10067000C0F3460003439BB2E5E7C0B21F28D0D8C1
:100680006D0105F4FF55284340EA43239BB2C9E7B7
:1006900018F02ABD10300AF093B900BF0A4B0B487E
:1006A0001B6870B50A4D0B4C2A6821680A4E80FB06
:1006B00003E0DB17C3EBA01346F82230013101320F
:1006C0002A60216070BD00BFC8DBFF1FD34D6210E0
:1006D00090DCFF1FE0DCFF1FA0A7FF1F2DE9F0410A
:1006E00018F0B2FD154A164B164D174E04461C6005
:1006F00010681EF013FC15491EF064FC07462868BC
:10070000201A1EF00BFC124B804618681EF006FCE7
:10071000014640461EF056FC014638461EF006FDD6
:100720000C4B0D4A1B782C600121306011700BB905
:10073000BDE8F081BDE8F041FFF7B0BF38A2FF1F70
:10074000C8DBFF1F68BAFF1F40B7FF1FE5B6304682
:10075000488AFF1F5CDBFF1FC4DBFF1F70B5044628
:1007600008460D4620F08CF92368024629462046AB
:100770005B68BDE87040184738B505461AF0C6FA00
:10078000044628461AF0E8FA204438BD38B5044635
:1007900008460D4620F074F92368024629465B6836
:1007A00020469847054620461AF0D6FA284438BD18
:1007B000002AF0B5144FDFF858E014BF4FF0605531
:1007C0004FF06455002602E0172C08D0264637F873
:1007D000022F9EFBF2F2914206F10104F4D31A07B4
:1007E00001D545F08065094A5B0752F8262007D5F8
:1007F000130903F4706322F4704245F000751A4344
:1008000015430560F0BD00BFCA690200FC69020023
:10081000006CDC022DE9F0410E2017F0FBFF804652
:100820000F2017F0F7FF0746102017F0F3FF104CCA
:10083000104D06460121104818F050FF4146204651
:100840001AF002FB2846012118F048FF39462046DD
:100850001AF0FAFA2846012118F040FF31462046E6
:100860001AF0F2FA01210548BDE8F04118F036BF50
:10087000A497FF1F304402002C440200806B02004A
:10088000F0B504469BB0002900F09280CB6A13F4C7
:1008900000470D460AD1B64B1E68012E0ED0022E1F
:1008A00000F04181002E5AD01BB0F0BDB1490A685A
:1008B000C3F30E0313440B601BB0F0BD08681DF0BA
:1008C000D7FE042602460B46009620461AF0C4FACC
:1008D00023683B211B68204698470A223B46296A29
:1008E00020461AF071FA23683B211B68204698477E
:1008F0000A223B46696A20461AF066FA23683B21C1
:100900001B6820469847A96A3B460A2220461AF0EF
:100910005BFA23683B211B682046984768691DF0F5
:10092000A7FE022602460B46009620461AF094FACD
:1009300023683B211B6820469847298B20461AF0E4
:1009400083FA23683B211B6820469847698B204621
:100950001AF07AFA20461AF0FFF91BB0F0BD0868C9
:100960001DF086FE042702460B46009720461AF02B
:1009700073FA23683B211B68204698470A223346B6
:10098000696820461AF020FA23683B211B6820463C
:1009900098470A223346A96820461AF015FA2368B8
:1009A0003B211B682046984733460A22E968ADE799
:1009B0006F4B1B68012B00F0A781022B00F0F88021
:1009C000002B40F0AB806C49FFF7C8FE16F0A4FD89
:1009D0000A22014602A81AF011FD02A906A81AF07F
:1009E000EFFC664906A81AF0A9FD054616F0A4FD1D
:1009F0000A2201460AA81AF001FD0AA928461AF09F
:100A000095FD5F491AF09AFD054616F0B5FD0A22DC
:100A100001460EA81AF0F2FC0EA928461AF086FD2F
:100A200058491AF08BFD054616F0B6FD0A2201461C
:100A300012A81AF0E3FC12A928461AF077FD5149D2
:100A40001AF07CFD054616F0B7FD0A22014616A8ED
:100A50001AF0D4FC16A928461AF068FD0146204673
:100A6000FFF78AFE16A81AF057FC12A81AF054FCD9
:100A70000EA81AF051FC0AA81AF04EFC06A81AF0AB
:100A80004BFC02A81AF048FC3F490EA81AF084FC5F
:100A90003E4B0A2219680AA81AF0B0FC0AA90EA84F
:100AA0001AF044FD3A491AF049FD3A4B0A221968F6
:100AB000054612A81AF0A2FC12A928461AF036FD23
:100AC00035491AF03BFD354A354B1268354953F824
:100AD0002230B1FBF3F10A22054616A81AF0A2FC57
:100AE00016A928461AF022FD2F491AF027FD0146C3
:100AF0002046FFF741FE16A81AF00EFC12A81AF0C5
:100B00000BFC0AA81AF008FC0EA81AF005FC2749ED
:100B10002046FFF723FE20461AF01EF9154B00224F
:100B20001A601BB0F0BD08681DF0A2FD0427024644
:100B30000B46009720461AF08FF923683B211B686B
:100B400020469847E8691DF093FD009602460B4643
:100B500020461AF081F923683B211B6820469847FC
:100B600068691DF085FD009602460B46DDE600BF74
:100B7000E4DCFF1F88DCFF1F344402003451020014
:100B8000804A0200484402004C44020038A2FF1F81
:100B900060440200488AFF1F7C440200908AFF1FC5
:100BA0005C8AFF1F40420F008C4402009044020008
:100BB000AD49FFF7D3FD16F0AFFC0A22014602A8AB
:100BC0001AF01CFC02A906A81AF0FAFBA74906A80D
:100BD0001AF0B4FC054616F0AFFC0A2201460AA83A
:100BE0001AF00CFC0AA928461AF0A0FCA0491AF039
:100BF000A5FC054616F0C0FC0A2201460EA81AF014
:100C0000FDFB0EA928461AF091FC9A491AF096FCB1
:100C1000054616F0C1FC0A22014612A81AF0EEFBA6
:100C200012A928461AF082FC92491AF087FC054660
:100C300016F0C2FC0A22014616A81AF0DFFB16A91C
:100C400028461AF073FC01462046FFF795FD16A8CA
:100C50001AF062FB12A81AF05FFB0EA81AF05CFBF8
:100C60000AA81AF059FB06A81AF056FB02A81AF0B7
:100C700053FB0EA880491AF08FFB804B0A2219689B
:100C80000AA81AF0BBFB0AA90EA81AF04FFC7C496F
:100C90001AF054FC7B4B0A221968054612A81AF078
:100CA000ADFB12A928461AF041FC77491AF046FC20
:100CB000764A774B1268774953F82230B1FBF3F14B
:100CC0000A22054616A81AF0ADFB16A928461AF006
:100CD0002DFC71491AF032FC01462046FFF74CFD0D
:100CE00016A81AF019FB12A81AF016FB0AA81AF097
:100CF00013FB0EA81AF010FB68492046FFF72EFDE3
:100D000020461AF029F809E75749FFF727FD16F0A2
:100D100003FC0A22014602A81AF070FB02A906A8E9
:100D20001AF04EFB514906A81AF008FC054616F0C9
:100D300003FC0A2201460AA81AF060FB0AA9284609
:100D40001AF0F4FB4A491AF0F9FB054616F014FCB8
:100D50000A2201460EA81AF051FB0EA928461AF0E5
:100D6000E5FB44491AF0EAFB054616F015FC0A2299
:100D7000014612A81AF042FB12A928461AF0D6FB27
:100D80003C491AF0DBFB054616F016FC0A22014628
:100D900016A81AF033FB16A928461AF0C7FB01461D
:100DA000204619F0B3FF204619F0D6FF16A81AF016
:100DB000B3FA12A81AF0B0FA0EA81AF0ADFA0AA8FF
:100DC0001AF0AAFA06A81AF0A7FA02A81AF0A4FACA
:100DD0000EA829491AF0E0FA284B0A2219680AA835
:100DE0001AF00CFB0AA90EA81AF0A0FB24491AF06D
:100DF000A5FB244B0A221968054612A81AF0FEFA30
:100E000012A928461AF092FB1F491AF097FB1F4AB5
:100E10001F4B12681F4953F82230B1FBF3F10A222D
:100E2000054616A81AF0FEFA16A928461AF07EFB07
:100E300019491AF083FB01462046FFF79DFC16A8CE
:100E40001AF06AFA12A81AF067FA0AA81AF064FAF5
:100E50000EA81AF061FA12492046FFF77FFC2046DF
:100E600019F07AFF5AE600BF344402003451020000
:100E7000804A0200484402004C44020038A2FF1F8E
:100E800060440200488AFF1F7C440200908AFF1FD2
:100E90005C8AFF1F40420F008C440200084502009C
:100EA000D844020038B518F0CFF942F20F75044665
:100EB00019F06EFB002802DB18F0C6F9044618F0A2
:100EC000C3F9001BA842F3D938BD00BF70B5724EFC
:100ED000724D734906F11004204606220AF04EF8BE
:100EE0002946204601220AF049F820460B226D4986
:100EF0000AF044F82946204601220AF03FF820462D
:100F00000B2269490AF03AF82946204601220AF0E4
:100F100035F820460B2265490AF030F8294620466C
:100F200001220AF02BF82046072261490AF026F830
:100F30002946204601220AF021F8204607225D4971
:100F40000AF01CF82946204601220AF017F820462C
:100F5000072259490AF012F82946204601220AF0D0
:100F60000DF82046082255490AF008F8294620467F
:100F700001220AF003F820460822514909F0FEFF39
:100F800029462046012209F0F9FF204608224D4952
:100F900009F0F4FF29462046012209F0EFFF204620
:100FA0000822494909F0EAFF29462046012209F0B2
:100FB000E5FF20460822454909F0E0FF2946204682
:100FC000012209F0DBFF20460822414909F0D6FF43
:100FD00029462046012209F0D1FF20460B223D4937
:100FE00009F0CCFF29462046012209F0C7FF204620
:100FF0000B22394909F0C2FF29462046012209F097
:10100000BDFF20460B22354909F0B8FF294620468E
:10101000012209F0B3FF20460822314909F0AEFF52
:1010200029462046012209F0A9FF204608222D4921
:1010300009F0A4FF29462046012209F09FFF20461F
:101040000822294909F09AFF29462046012209F081
:1010500095FF20460E22254909F090FF294620469B
:10106000012209F08BFF20460D22214909F086FF5D
:1010700029462046012209F081FF20460B221D4906
:1010800009F07CFF20462946012209F077FF30460F
:10109000BDE8704019F060BE30DCFF1F484502001B
:1010A000404502004C4502005845020064450200DC
:1010B0007045020078450200804502008845020024
:1010C00094450200A0450200AC450200B84502006C
:1010D000C4450200D0450200DC450200E84502009C
:1010E000F4450200004602000C46020018460200C9
:1010F00028460200384602002DE9F041AC4BAD4FC6
:10110000AD4C39691B68AD4D82B004F11006C91AA7
:10111000204600230A2219F057FE294601223046B4
:1011200009F02CFF386E1DF0A3FA4FF002080B46B1
:101130000246CDF80080204619F08EFE2946012295
:10114000304609F01BFF786E1DF092FACDF8008052
:101150000B460246204619F07FFE29460122304602
:1011600009F00CFFB86E1DF083FACDF800800B4635
:101170000246204619F070FE29460122304609F049
:10118000FDFE386B1DF074FACDF800800B46024668
:10119000204619F061FE29460122304609F0EEFE94
:1011A000786B1DF065FACDF800800B4602462046AC
:1011B00019F052FE29460122304609F0DFFEB86BD5
:1011C0001DF056FACDF800800B460246204619F075
:1011D00043FE29460122304609F0D0FE386F1DF04B
:1011E00047FACDF800800B460246204619F034FE3F
:1011F00029460122304609F0C1FE786F1DF038FA09
:10120000CDF800800B460246204619F025FE2946FF
:101210000122304609F0B2FEB86F1DF029FACDF870
:1012200000800B460246204619F016FE2946012290
:10123000304609F0A3FE386D1DF01AFACDF8008093
:101240000B460246204619F007FE29460122304689
:1012500009F094FE786D1DF00BFACDF800800B4676
:101260000246204619F0F8FD29460122304609F0D1
:1012700085FEB86D1DF0FCF9CDF800800B460246E6
:10128000204619F0E9FD29460122304609F076FE94
:10129000D7F880001DF0ECF9CDF800800B4602462F
:1012A000204619F0D9FD29460122304609F066FE94
:1012B000D7F884001DF0DCF9CDF800800B4602461B
:1012C000204619F0C9FD29460122304609F056FE94
:1012D000D7F888001DF0CCF9CDF800800B46024607
:1012E000204619F0B9FD29460122304609F046FE94
:1012F000386C1DF0BDF9CDF800800B460246204643
:1013000019F0AAFD29460122304609F037FE786C13
:101310001DF0AEF9CDF800800B460246204619F0CC
:101320009BFD29460122304609F028FEB86C1DF0CD
:101330009FF9CDF800800B460246204619F08CFD3F
:1013400029460122304609F019FE786A1DF090F90D
:10135000CDF800800B460246204619F07DFD294657
:101360000122304609F00AFEB86A1DF081F9CDF875
:1013700000800B460246204619F06EFD29460122E8
:10138000304609F0FBFDF86A1DF072F9CDF80080D7
:101390000B460246204619F05FFD304629460122E1
:1013A00009F0ECFD204602B0BDE8F04119F0D4BCD4
:1013B000C0DBFF1F4CA2FF1F30DCFF1F48450200AF
:1013C000F0B5444B1B68012B83B05DD0022B08D0D5
:1013D0001B21414819F048F9404819F0BDFC03B001
:1013E000F0BD3F4D3F4C284615F016FE284615F03F
:1013F00027FFB426284615F099FE324600212046E4
:101400001EF014FE384B26601B680193019B23617C
:10141000284615F0C1FDB5F900001DF07FFD2063E1
:10142000B5F902001DF07AFD6063B5F904001DF006
:1014300075FDA968EA682B69A063286BD5F834E0CC
:10144000AF6B2167EE69296A6267A3676A6A2064E5
:1014500000232648C4F844E0C4F88410C4F8882067
:1014600023656365A365A764C4F8806015F0B2FACC
:1014700060621E4815F0D4FA1D49A0621B4815F0A1
:10148000CFFBE06203B0F0BD164C1A48214628227B
:1014900014F020FD21460822164814F01BFD2146B9
:1014A0002E22144814F016FD21461A22114814F079
:1014B00011FD214614220F4814F00CFD21460E2286
:1014C0000C4814F007FD0B4814F0F6FE1DF026FD45
:1014D000606284E768DCFF1F44460200CC97FF1F70
:1014E00098DCFF1F4CA2FF1F7CE2FF1F74BAFF1F96
:1014F00000507D44A4DBFF1FF0B5424D4249434EEE
:1015000005F1100499B01222204609F037FD16F0BB
:1015100003F80A220146684619F070FF694604A8DC
:1015200019F04EFF3A4904A81AF008F8074616F0D9
:1015300003F80A22014608A819F060FF08A93846F6
:1015400019F0F4FF334919F0F9FF074616F014F8C3
:101550000A2201460CA819F051FF0CA9384619F0CF
:10156000E5FF314619F0EAFF074616F015F80A22A2
:10157000014610A819F042FF10A9384619F0D6FF0D
:10158000314619F0DBFF064616F016F80A2201462E
:1015900014A819F033FF14A9304619F0C7FF01460B
:1015A000284619F0B3FB284619F0D6FB14A819F009
:1015B000B3FE10A819F0B0FE0CA819F0ADFE08A8F3
:1015C00019F0AAFE04A819F0A7FE684619F0A4FEB7
:1015D00020460B22104909F0D1FC204601220F4978
:1015E00009F0CCFC20460B220D4909F0C7FC002273
:1015F0000C49204609F0C2FC284619F0ADFB19B091
:10160000F0BD00BF30DCFF1F34440200484402003C
:1016100034510200804A0200604602004845020040
:101620006C460200947B020070B5800182B0C5B2A6
:1016300072B63F4C3F490423012201A8FFF7B8F8D6
:10164000E37A019ABBB172B6E37AD807194606D598
:101650003948E16806683140A161016019469B077D
:1016600006D5364823690668E17A3340E3610360B2
:101670004E0755D462B62368D968914207D03048E6
:1016800018603049DA6042F0804018611960012129
:101690000A2017F0BFFD0021092017F0BBFD2368C9
:1016A0004FF000410622D9625A63DA6A002AFCDA56
:1016B0004FF00042996BDA625D63DA6A002AFCDA65
:1016C0009D6B4FF000410022D962EDB25A63DA6A95
:1016D000002AFCDAE27A9E6B1549134682B1D007E4
:1016E00003D5194B896919601346920703D5174A28
:1016F000E169E37A11605B0702D5154B226A1A6033
:101700000121092017F086FD00210A2017F082FD33
:1017100062B605F00F00F6B246EA002002B070BDD6
:101720000C4963690868034023620B60A2E700BFAD
:10173000B48AFF1F40420F0080E100E084E100E036
:1017400001403F0000003F8000E100E004E100E0D4
:1017500008E100E088E100E02DE9F04196B068463C
:1017600058223D4916F040FE142400250220FFF7C0
:101770005BFF0544142017F089FD013CF6D1284693
:101780001DF0CCFB35491DF01DFC35491DF0CEFC8C
:10179000344907461DF0C8FD00284DD1324938466E
:1017A0001DF0AEFD00284BD1029E384631461DF09B
:1017B000A7FD00284AD0012400E02C46651C3846CD
:1017C0005DF8356031461DF09BFD0028F5D116AB64
:1017D00003EBC50503EBC40455F8545C54F8540CF2
:1017E00029461DF0E5FA3146804638461DF0E0FAFC
:1017F000014640461DF0E6FB3146074654F8580CBA
:101800001DF0D6FA014638461DF090FC29461DF021
:10181000D1FA16491DF08AFC1DF0B0FD00EB8000E6
:101820001DF07CFB002104461DF06AFD60B91049E3
:1018300020461DF083FD58B1642016B0BDE8F0814C
:10184000204616B0BDE8F0810020F6E70125BEE78E
:1018500020461DF093FDF0E7D43F02000AD7A340D5
:101860000000A04766668640CDCC4C400000A040FA
:101870000000C84270B5012182B02148214C224DA0
:1018800017F02CFF0120FFF7CFFE0146204619F08C
:10189000DBFA2846012117F021FF0020FFF7C4FEE4
:1018A0000146204619F0D0FA2846012117F016FF0C
:1018B000164B18681CF0DCFE022602460B4600960A
:1018C000204619F0C9FA2846012117F007FF142015
:1018D00016F0A0FF0146204619F0B6FA284601216D
:1018E00017F0FCFE152016F095FF0146204619F072
:1018F000ABFA0748012102B0BDE8704017F0EEBE18
:101900002C440200A497FF1F3044020040B7FF1F81
:10191000806B0200354A364B126830B553F82230DE
:10192000B3F57A7F83B0044633D3324B1B680193FF
:1019300001981DF0EFFA304B054618681DF0EAFAE1
:10194000014628461DF034FA2C491DF0EFFB2C4BC4
:1019500020601868012831D002283DD008B103B0BA
:1019600030BDFFF761FE60600120FFF75DFEA06003
:101970000220FFF759FE234BE0601B6863610520DE
:1019800017F04EFC2083042017F04AFC608303B05C
:1019900030BD17F059FC1DF0BDFA1B4B0546186809
:1019A0001DF0B8FA014628461DF002FA17491DF04D
:1019B000BDFB134B206018680128CDD10E2016F016
:1019C00029FF20620F2016F025FF6062102016F01C
:1019D00021FF0C4BA062D0E70D4814F0ABF80C4887
:1019E00014F0E8F8074BE061C7E700BF908AFF1FDB
:1019F0005C8AFF1F7CE2FF1FE4DBFF1F00007A44CC
:101A0000E4DCFF1F40B7FF1F4CCBFF1F00247449CD
:101A1000E8DCFF1F30B5012085B017F001FC244C35
:101A200010B92368002B35D0032017F0F9FB214DA6
:101A300010B92B68002B34D0012017F0F1FBB0FA5D
:101A400080F35B090320236017F0EAFB2268B0FAF9
:101A500080F35B092B604AB1174B184A1B6802934D
:101A6000029B12689B1AB3F5FA7F0FD860B9124B2C
:101A7000134A1B680393039B12689B1AB3F5FA7F02
:101A800002D9104B01221A6005B030BD0E4B012265
:101A90001A60EBE7084A094B12680092009A1A6034
:101AA000C2E7054A064B12680192019A1A60C3E721
:101AB00040A2FF1F6CDCFF1F7CE2FF1F38CBFF1F23
:101AC000DCDBFF1FACBAFF1F30CBFF1FFFFFFFFFA8
:101AD000F0B51F4C1F4B85B0012500224027802107
:101AE00006468DE8820020461146029513F0E4FC7C
:101AF00037222046322113F0FDFE2946204613F0FE
:101B0000FDFE2946204613F0FFFE2A4612492046D4
:101B100019F0E6F80223009320460BA3D3E9002333
:101B200019F09AF900221146204613F0E3FE2046F0
:101B300013F03AFA304617F0A9FB204605B0BDE88D
:101B4000F04013F057B800BF000000A09999F13F92
:101B5000B4BAFF1F2C400200C446020070B50D4C01
:101B60000D4B84B0002201264025802120468DE8BF
:101B70006200114613F0A0FC00222046114613F02B
:101B8000B9FE204613F010FA204604B0BDE87040BC
:101B900013F030B8B4BAFF1FCC61020070B50D4C21
:101BA0000D4B84B0002201264025802120468DE87F
:101BB0006200114613F080FC00222046114613F00B
:101BC00099FE204613F0F0F9204604B0BDE87040BD
:101BD00013F010B8B4BAFF1FCC65020010B5012194
:101BE00084B00446184813F089FE0121164813F00A
:101BF0008BFE00220120402180230290019100935E
:101C00001146124B104813F057FC0C2226210E48A7
:101C100013F070FE0E4B1B788BB90E490A48FEF785
:101C2000B5FD00221146084813F064FE064813F083
:101C3000BBF9204604B0BDE8104017F027BB0649A9
:101C40000148FEF7A3FDECE7B4BAFF1FCC59020030
:101C500034A2FF1FCC460200C846020010B5012185
:101C60000446124813F04AFE282226210F4813F09A
:101C700041FE0F4B1B68A3B904220E490B4819F013
:101C80002FF80A4819F068F800221146074813F0A7
:101C900031FE064813F088F92046BDE8104017F0E1
:101CA000F5BA05490148FEF771FDEDE7B4BAFF1F2B
:101CB00068DCFF1FCC460200C846020010B50121B7
:101CC0000446124813F01AFE0C2264210F4813F048
:101CD00011FE0F4B1B78A3B904220E490B4818F0D4
:101CE000FFFF0A4819F038F800221146074813F0A0
:101CF00001FE064813F058F92046BDE8104017F0E1
:101D0000C5BA05490148FEF741FDEDE7B4BAFF1F2A
:101D1000D8DBFF1FCC460200C846020010B50121E7
:101D200084B00446174813F0E9FD282264211548C1
:101D300013F0E0FD144B1B78FBB914491148FEF772
:101D400025FD13210A2201238DE80E000D48104BBA
:101D500036226C2113F0B0FB00221146094813F023
:101D6000C9FD084813F020F9204617F08FFA0548FE
:101D700004B0BDE8104012F03DBF06490148FEF72F
:101D800005FDDEE7B4BAFF1F94DCFF1FCC4602005E
:101D9000AC550200C846020070B5574E574D584921
:101DA00006F110042046042209F0E8F829462046EE
:101DB000012209F0E3F820460F22524909F0DEF82B
:101DC00029462046012209F0D9F8204611224E4921
:101DD00009F0D4F829462046012209F0CFF8204620
:101DE0000F224A4909F0CAF829462046012209F083
:101DF000C5F820460F22464909F0C0F8294620467A
:101E0000012209F0BBF820460522424909F0B6F844
:101E100029462046012209F0B1F8204605223E4914
:101E200009F0ACF829462046012209F0A7F820461F
:101E300007223A4909F0A2F829462046012209F072
:101E40009DF820460322364909F098F82946204695
:101E5000012209F093F820460A22324909F08EF84F
:101E600029462046012209F089F8204608222E49F9
:101E700009F084F829462046012209F07FF820461F
:101E80000F222A4909F07AF829462046012209F052
:101E900075F820460A22264909F070F8294620469E
:101EA000012209F06BF820460D22224909F066F85C
:101EB00029462046012209F061F820460E221E49DB
:101EC00009F05CF829462046012209F057F820461F
:101ED0000E221A4909F052F829462046012209F03B
:101EE0004DF820460922164909F048F83046BDE869
:101EF000704018F031BF00BF30DCFF1F48450200C2
:101F00002047020028470200384702004C470200E1
:101F10005C4702006C470200744702007C470200E5
:101F2000844702008847020094470200A04702004D
:101F3000B0470200BC470200CC470200DC47020069
:101F4000EC4702002DE9F041744B754C1B68754D50
:101F500084B004F11006039307460023039920463A
:101F60000A2218F031FF29460122304609F006F80E
:101F700038681CF07DFB4FF002080B460246CDF896
:101F80000080204618F068FF29460122304608F0FC
:101F9000F5FF78681CF06CFBCDF800800B4602461C
:101FA000204618F059FF29460122304608F0E6FF86
:101FB000B8681CF05DFBCDF800800B460246204659
:101FC00018F04AFF29460122304608F0D7FFF8688A
:101FD0001CF04EFBCDF800800B460246204618F060
:101FE0003BFF29460122304608F0C8FF38691CF043
:101FF0003FFBCDF800800B460246204618F02CFF30
:1020000029460122304608F0B9FF78691CF030FB00
:10201000CDF800800B460246204618F01DFF2946E9
:102020000122304608F0AAFFB8691CF021FBCDF868
:1020300000800B460246204618F00EFF294601227A
:10204000304608F09BFFF969204618F0FDFE29464E
:102050000122304608F092FF386A1CF009FBCDF8E7
:1020600000800B460246204618F0F6FE2946012263
:10207000304608F083FF786A1CF0FAFACDF8008049
:102080000B460246204618F0E7FE2946012230465C
:1020900008F074FFB86A1CF0EBFACDF800800B462C
:1020A0000246204618F0D8FE29460122304608F0A4
:1020B00065FF796B204618F0C7FE2946012230469D
:1020C00008F05CFFB96B204618F0BEFE29460122DD
:1020D000304608F053FF142016F09CFB01462046C2
:1020E00018F0B2FE29460122304608F047FF1520BD
:1020F00016F090FB0146204618F0A6FE0122294664
:10210000304608F03BFFF96B204618F09DFE204654
:1021100018F022FE04B0BDE8F08100BF7CE2FF1F92
:1021200030DCFF1F484502002DE9F041354E364FA7
:10213000B46B3868201A1CF0F1FE34491CF042FFE1
:1021400033491CF03FFF33491CF0F0FF1DF016F936
:10215000804620461CF0E2FE2C491CF033FF2C493F
:102160001CF030FF2B491CF0E1FF2B491CF0DEFF77
:102170002A4BB8F1090F0546186027DC284BF66A90
:10218000D3F80080274B18681CF0C8FE31461CF0BD
:102190000FFE2549044628461DF0B2F800282CD130
:1021A000414620461CF0C2FF204B214918602046C2
:1021B0001CF008FF1F49204C1CF0B8FF00211CF048
:1021C000F9FD1DF0DBF82060BDE8F0811B4BF66ADD
:1021D000A3F12400014653F8042D5A608B42FAD132
:1021E000416A066030461CF0E3FD0F491CF09EFF7B
:1021F0000B4B3C6080461860C4E7114920461CF038
:1022000095FFD1E7F0DBFF1F74DCFF1F00002043C8
:10221000D00F49400010244700007A4444A2FF1F19
:1022200048CBFF1F588AFF1FCDCCCC3D34CBFF1FBE
:102230000000C8420000B4423CA2FF1F2CCBFF1F8D
:1022400000003041174B2DE9F0411E68002E25DDBE
:10225000154B044618680D461CF060FE13491CF02F
:10226000B1FE13491CF0AEFE124B074618681CF075
:1022700055FE04EB8606043D8046236854F8040F9F
:10228000C01A1CF04BFE41461CF09CFE014638462D
:102290001CF04CFFA64245F8040FEED10020BDE82B
:1022A000F08100BF00A3FF1F38A2FF1FD00F4940DD
:1022B00066666640488AFF1F70B50A4E3368002B79
:1022C0000EDD041F002554F8040F1CF0D1F919F09D
:1022D000E7FA1CF019FD336820600135AB42F2DCEF
:1022E000002070BD00A3FF1F08B516460C4605462A
:1022F00008461B49FEF732FA31462046FEF746FAF9
:10230000D5F86C344BB15B7B3BB9EB7903B1FEE79D
:1023100020461449FEF73AFAF9E713492046FEF73A
:102320001DFAD5F86C34B3B1597B00231022204636
:1023300018F04AFD0D492046FEF710FAD5F86C3426
:102340005BB1197C00231022204618F03DFD204689
:1023500018F002FDDBE72A21E7E71946F2E700BFA4
:10236000F847020010480200004802000C48020032
:1023700070B538488AB008F057F8374B1B68012B06
:1023800052D0022B4AD0A3B3344E741E00252B46E4
:10239000324A33498DF8045001A88DF805508DF864
:1023A000065008F0DBF950B32E212C481EF0E8F857
:1023B000002844D0431EB34216D310F8012CA2F1DA
:1023C0003001092910D8392A0BD1302003F801092E
:1023D000A34209D01A78A2F13001092904D8392A78
:1023E000F4D001321A70D1E71E4A1F491C48FFF78A
:1023F0007BFF1E4B194C0FCB07C42380C4E740F270
:1024000002221649134808F0B1F998B14FF0804103
:10241000104808F0DDF9B8B10AB070BD144B0F4C8C
:102420000FCB07C42380AFE7124B0C4C0FCB07C474
:102430002380A9E7104A0C490948FFF755FF0F4AC6
:1024400009490748FFF750FF0D4A07490448FFF7BD
:102450004BFF00BF10A2FF1FE4DCFF1F948AFF1F89
:1024600004A3FF1F24480200CC97FF1F78480200F6
:102470008848020098480200504802003C48020088
:102480006448020010B52948047C8EB0002C39D075
:1024900004A91030282209F037FE04A82E211EF0CE
:1024A0006FF800283DD004222149013015F09CFF2F
:1024B00040F2016204A91F4808F058F9044658B3D5
:1024C000FEF7F0FC04A9684618F066FF69461A4852
:1024D00018F0ECFF684618F01FFF0921174818F0A4
:1024E000C3F804A81EF0CCFA014604A818F0BCF802
:1024F0001D21134818F0B8F8124818F02DFC20469A
:102500000EB010BD1621104818F0AEF80D4818F0A6
:1025100023FC20460EB010BD0C4A0A490C48FFF7B8
:10252000E3FE0C4A07490A48FFF7DEFE00A2FF1F40
:10253000C04802007CDBFF1F78DCFF1FD848020088
:10254000E4480200CC97FF1FA8480200C4480200DC
:1025500004A3FF1F3C48020030B5014683B0054686
:1025600000221F4808F002F9002833D00A211D4834
:102570001D4C18F079F81D4818F0EEFB28461EF0A7
:102580007FFA0146284618F06FF8184818F0E4FB67
:102590002546237C1B070BD40A21124818F064F847
:1025A000124818F0D9FB0E4807F03EFF03B030BDCB
:1025B000EA6A6B6A9A42EFD001220DF107010848DE
:1025C00008F02EF901280CBF9DF80700FF2018F035
:1025D000CFF8DEE7064A05490648FFF785FE00BF4B
:1025E00040DCFF1F1049020030DCFF1FCC97FF1FAB
:1025F0000449020004A3FF1F30B5124D8BB0002424
:102600000023104A10498DF8044001A88DF80540B8
:102610008DF8064008F0A2F868B16B79392B02D02A
:1026200001336B71ECE72B79392B06D00133302263
:102630002B716A71E4E70BB030BD044A04490248CB
:10264000FFF752FEA48AFF1F04A3FF1F24480200C5
:10265000CC97FF1F10B51C21044618F0A1FF20469F
:1026600010BD00BF2DE9F043644A654B10681B683C
:10267000644C654D654EDFF80C828FB000FB03F0B3
:102680001CF04CFC624B074618681CF047FC614983
:102690001CF04CFD60491CF095FC014638461CF0CE
:1026A00045FD1CF06BFE206016F032F95B485C4F74
:1026B000002413F037F901235A4A0493029301933B
:1026C000039228230094214628464FF0FF3213F04E
:1026D000B3FA3246544928461BF060FE5348544D25
:1026E00013F0F0FD2146482252481DF09FFC52484D
:1026F000524BC0F878342923022180F87D34504BA6
:10270000C471324680F8484480F8494480F84A440D
:10271000C0F86C4480F8814480F8884480F898447C
:102720000172C0F8703447491BF038FE464B474AE7
:102730001C714FF47A791C731C745C749C74C3F81C
:1027400008901F60424B14711C71C3F808901C73F1
:102750001C745C749C742146C2F808901473147441
:102760005474947440461F60176018F015FE32468A
:10277000404638491BF012FE2B68079307992B68D7
:102780000893DDF820C02B680993099A2B680A93F7
:10279000314B0A981F60C3F808901C711C731C749D
:1027A0005C749C742D4BD5F800E019602C49CDF871
:1027B0002CE02C4BDDF82CE0C1F800C02C682A4935
:1027C0000C941A60294C2A4B0C9A08600421294861
:1027D000C4F800E01A60284C12F0F4F92B680D934D
:1027E000264B0D9A1A60204614F026FF32462046EA
:1027F00023491BF0D3FD0FB0BDE8F083488AFF1FCB
:10280000448AFF1F00A3FF1FA4DBFF1F3C8AFF1F9A
:1028100038A2FF1F00007A44D00F4940E8DCFF1FB8
:10282000B83F0200C02709005D05000074BAFF1F11
:102830007CE2FF1F98DCFF1F04A3FF1F011001387B
:10284000C06B02005905000000A2FF1F6CDBFF1FD8
:10285000A8A1FF1F19B3010030DCFF1F00BBFF1F41
:10286000E8DBFF1F70DCFF1F64DCFF1F38CBFF1F9E
:10287000DCDBFF1FB4BAFF1FE0A1FF1F64DBFF1FFB
:102880003D76010078DCFF1F2DE9F0476C4D6D4C63
:102890006D4E6E4F642382B080462B6016F0D4FCE0
:1028A0005FFA88F82060A24606F58059404615F088
:1028B000B1FF1BF0CBFE00220023E7E90223E6E98B
:1028C000020116F0C1FC22682B68801A9842F8D3E6
:1028D00013444E45CAF80030E8D1012423464FF492
:1028E00000725B495B48009415F052F84FF4007396
:1028F000594A57495748009415F006F84FF40073A9
:10290000554A5349534815F015F84BA1D1E9000138
:102910004FF40072CDE900014D494E4815F0B4FA6C
:1029200006460F464D48214612F0E8FF21464B4827
:1029300012F0EAFF00225A21484812F0DBFF30462D
:102940003946002200231CF06DF9002869D00022CE
:10295000434B304639461BF02DFD1CF08DF90146E6
:102960003E48DFF8EC80DFF8049118F06DFA0022A1
:1029700073213A4812F0BEFF3A493848FDF7EEFE9F
:1029800000221146354812F0B5FF012519E000205C
:1029900035491BF00DFD1CF06FF9394604B2304685
:1029A0001CF06AF900B201210B4600900191224609
:1029B00029B22A481D4412F065FC802D08F1100848
:1029C0002CD000220023D8E904011BF0F3FCD8E945
:1029D00006231BF0EFFC0022234B1BF09DFED9E9E0
:1029E00000231BF0C3FF002200231BF0E3FC0022A6
:1029F000002306460F461CF001F9002204461A4B3C
:102A000048B9304639461CF017F932463B46002893
:102A1000BDD03220C7E700203224C4E702B0BDE8B1
:102A2000F08700220E4B304639461BF0C1FC1CF0EB
:102A300023F994E7AFF30080000000000088C34052
:102A400044B7FF1F68DBFF1F50CBFF1F00BBFF1FFA
:102A500058CBFF1FE0A1FF1F08BBFF1FB4BAFF1F29
:102A60000000E03F1C49020000004940508AFF1F5F
:102A700070B5184C82B00122222305460E4620462E
:102A8000019200930F2268230A2112F0FBFB00221F
:102A90001C23204601920093122262230D2112F082
:102AA000F1FB20461822172112F024FF28461DF0C2
:102AB000E7FF29460246204618F012F9204612F098
:102AC00073FA304616F0E2FB204602B0BDE87040D3
:102AD00012F090B8B4BAFF1F2DE9F043514CDFF863
:102AE0008091DFF88081504F8BB0642016F0CEFBD0
:102AF00022780023C9F80030C8F800303B60002A73
:102B00006FD0FFF72BF83B68002B5CD000244FF010
:102B10000A0E464E8DF8054003948DF804E00296A7
:102B200001AB93E8070004AB83E807008DF810E0E1
:102B30008DF811400596069493E8070007AB83E8EB
:102B400007003B4DC9F8004005F58E690ECB48469D
:102B5000C8F800403C6085F88CE485F88D44C5F8E1
:102B60009064C5F894440AF0CDFA95F87D34C5F820
:102B70006C948BB12F4B304800220C211A7017F047
:102B800073FD2E4818F0E8F82D484FF47A710BB019
:102B9000BDE8F043FFF76CBF49460122284609F023
:102BA0005DFC0028E6D005F5896007F03DFC29466C
:102BB00005F5896007F006FE0028DBD0214B1D607B
:102BC0000BB0BDE8F08340F6D8640320FEF72CFD7F
:102BD000A0421D489ADD10F007F93B68002B95D103
:102BE000F3E719480EF0B4FA01230A2117482370BD
:102BF0000BF05CFC034650B90E4A15490F481370A0
:102C0000FDF7C4FD13490D48FDF7C0FD79E7124AF1
:102C10000E490D4810F0BCFA10490848FDF7B6FD02
:102C2000F0E700BF40CBFF1F30CBFF1F80F0FA0260
:102C300004A3FF1F34A2FF1F74490200CC97FF1F9B
:102C40008449020020DDFF1FF08AFF1F34DDFF1FD3
:102C50005C4902006849020020490200284902003C
:102C6000ACBAFF1F50CBFF1F2DE9F0430A208BB0F9
:102C700015F09CFD084D0948094C0A4FDFF82890D3
:102C80004FF4E13117F0DEFE044815F091F940F2FF
:102C9000EE282E680FE000BF7CE2FF1FA497FF1F05
:102CA00004E4FF1F1CE4FF1F8CE4FF1FB3F5FA6F61
:102CB00015D818F08DFC18F08BFC237843B13B78C5
:102CC000DB0705D52B68D9F800209B1A0E2B06D8F8
:102CD0002B6822789B1B002AE8D14345E9D9B948E3
:102CE00015F06CF9002015F059FEB74B0C28024680
:102CF000A8BF0C2201201A6015F050FEB34B00282B
:102D000014BF0246012202201A6015F047FE002877
:102D100000F0398264280346A8BF6423AC4AAD4C56
:102D200013600221102016F089FA10230E220F21C1
:102D3000A94812F0FFFDFA2016F0A8FAA64812F0F2
:102D4000F9FE812800F018820123A4499D482370D0
:102D5000FDF71CFD2478002C00F0018200211420D6
:102D600016F06CFA0021152016F068FA02210120F5
:102D700016F064FA0221084616F060FA02210320D8
:102D800016F05CFA0221002016F058FA0221052004
:102D900016F054FA0221042016F050FA032290494A
:102DA000012016F0E1F803228E49022016F0DCF82B
:102DB000032210468C4916F0D7F802228B490020D6
:102DC00016F0D2F802228A49052016F0CDF801212A
:102DD0000A2016F033FA0121092016F02FFA0121FA
:102DE0000A2016F017FA0121092016F013FA012320
:102DF0003C2202217F4811F075FF7E4811F0FAFE57
:102E00007D4814F0F3FB14F0E9FB02280BD07B495A
:102E10007848FDF7BBFC79496A48FDF7B7FC4FF4E9
:102E2000FA7016F033FA6420FEF752FE16F00CFA30
:102E3000734B744E186000250A2705F071FA8DF85F
:102E400004708DF805500395029601AB93E80700D6
:102E500004AB83E807008DF810708DF811500596CB
:102E6000069593E8070007AB83E80700664C04F576
:102E70008E680ECB404684F88C7484F88D54C4F868
:102E80009064C4F894540AF03DF994F87D34C4F881
:102E90006C84002B00F016815C4D5D49494800238D
:102EA0002B70FDF773FC5B4805F0AAF901220023A3
:102EB00059496846FDF77CFC0099564805F002FA2E
:102EC0000320FEF7B1FB40F6D864A042534BD4BFB9
:102ED0000022012203201A70FEF7A6FBA04203DDA8
:102EE0002B78002B40F0E4806420FEF777FE0C2165
:102EF0004B4813F04DF90446002800F0B1804949D1
:102F00003048FDF743FC484B01221A60474C6420CF
:102F1000FEF7A4FE204615F019FA0346002845D016
:102F2000204615F013FAC82016F0B0F9204615F027
:102F30000DFA206A3E493F4C1BF03AFF3E491CF017
:102F400041F84FF078511CF03DF800211BF032FFA2
:102F50003A491CF037F838491CF0E8F81CF00EFA32
:102F6000374B20600122374916481A70FDF70EFCD6
:102F7000354B04221A606420FEF7A0FE334E344D18
:102F8000344C6420FEF7CAFE002333602B602360BC
:102F90000A2016F07BF923682E4A002BF8D0002374
:102FA00033602B6013600BB0BDE8F083244A2A49DC
:102FB00004481370FDF7EAFB4FF4E131274817F09E
:102FC00041FDD8E7CC97FF1F908AFF1F38A2FF1F53
:102FD000488AFF1F94DCFF1FE8DCFF1FA4490200A2
:102FE00079040000B9040000F9040000DD060000C7
:102FF00081050000B4BAFF1F91060000B849020025
:1030000068BAFF1F80F0FA0204A3FF1F34A2FF1F5B
:10301000544A0200B48AFF1F00093D0048A2FF1F66
:10302000A4DBFF1FE849020068DCFF1FF0DBFF1F85
:1030300000000842588AFF1F0000C8420000B44246
:10304000D8DBFF1F304A0200ECDBFF1FACBAFF1FCA
:1030500050CBFF1F30CBFF1F404A0200A497FF1F39
:103060006B4813F053FE054628B36A496A48FDF7DA
:103070008DFB6A4B6648022201211A6013F026FF7D
:103080002146634813F036FF2146614813F046FF9E
:1030900021465F4813F060FF7621614813F08CFBF6
:1030A00000283FF433AF5F495B48FDF76FFB2DE726
:1030B000FFF712FD18E75C495748FDF767FB574BD0
:1030C0001D6023E741460122204609F0C7F9002888
:1030D0003FF4E2AE04F5896007F0A6F9214604F555
:1030E000896007F06FFB00283FF4D6AE4F4B504D80
:1030F000504949481C6001262E70FDF747FB4E4A97
:10310000D4F86C04092109F0D9FD4C4BD4F86C04B7
:10311000E2791A6010B1077E002F55D0484809F0B7
:103120005FF9064630461BF0F5FE46491BF04AFFA4
:1031300033460746444A207913601BF0EFFE3946B8
:103140001BF040FF3C4B41491A78086012F0C00266
:103150001BD0402A4BD000203D4B1860A3E62146EF
:103160000E2016F06BF821460F2016F067F8214666
:10317000102016F063F8F1E5002336492648237045
:10318000FDF704FBE6E50123C8E5587ADA799C7976
:103190009F7A59791E7A00F00300920004F003032D
:1031A000400001F00F0142EA832340EAD7100844AF
:1031B00043EA96130133073803FA00F01BF0AAFE26
:1031C00020491BF0FFFEC7E7314609F0ADFF58B1BB
:1031D000204609F005F90646D4F86C0420B13946BA
:1031E00009F0A2FF00289DD100270023A2E7D9798A
:1031F0005A7A187A531C01F03F0203EB024303EBA7
:10320000002080021BF086FE0E491BF0DBFEA3E7C8
:1032100098DCFF1FF8490200CC97FF1F68DCFF1FF6
:1032200074BAFF1F0C4A02001C4A020020DDFF1F77
:1032300034A2FF1FD4490200F0BAFF1F3CCBFF1F8E
:1032400004A3FF1FBD37063A60DBFF1FA4A1FF1FC9
:10325000B0BAFF1F9049020070B5314C82B02046D1
:10326000012112F04BFB13222E49204617F038FDA6
:10327000204617F071FD2046012112F045FB204643
:10328000022112F03BFB284A284B16681D6828498A
:1032900000222046642303FB06F3013593FBF5F57A
:1032A00017F01EFD204617F057FD01222046214948
:1032B00017F016FD2946204617F0C6FD02222046CB
:1032C0001D4917F00DFD1D4B18681BF0D1F90226A2
:1032D0000B4602460096204617F0BEFD204617F02A
:1032E0003BFD00221146204612F004FB144BED0179
:1032F00083FB0523ED17C5EB6313012108221BB2E5
:103300002046019100920021342211F0BBFF20469B
:1033100011F04AFE204602B0BDE8704011F06ABCD0
:10332000B4BAFF1F704A0200E0DCFF1F00A3FF1FBA
:10333000947B0200E84E0200844A020040B7FF1F5F
:103340001F85EB5170B5234C82B00126282305461A
:103350000A222046009301968023002111F092FF5B
:103360002046022112F0CAFA2046002112F0CCFABF
:1033700000221949204617F0B3FC204617F0ECFC58
:1033800008221649204617F0ABFC204617F0E4FC53
:103390003146204612F0B2FA0A221149204617F0AF
:1033A0009FFC28461DF06CFB29460246204617F07C
:1033B00097FC204617F0D0FC00222046114612F060
:1033C00099FA204611F0F0FD204602B0BDE87040A9
:1033D00011F010BCB4BAFF1F947B0200884A0200AF
:1033E000944A02002DE9F04F8FB002AFFFF704F9C5
:1033F000644809F0D3FF40F601226349634807F0AF
:10340000B5F9002800F0B383142261495F48DFF862
:10341000B89107F0B3FD12225E495C4807F0AEFD9B
:1034200014F07AF80A22014607F1200017F0E6FFAF
:1034300007F12001584817F069FC07F1200017F048
:103440006BFF01225549514807F098FD14F074F8BC
:103450000A22014607F1200017F0D0FF07F12001F2
:103460004D4817F053FC07F1200017F055FF0122DB
:103470004B49464807F082FD14F07EF80A220146C7
:1034800007F1200017F0BAFF07F12001424817F0BA
:103490003DFC07F1200017F03FFF012241493B4866
:1034A00007F06CFD14F078F80A22014607F12000BD
:1034B00017F0A4FF07F12001374817F027FC07F1A8
:1034C000200017F029FF01223649304807F056FD49
:1034D00014F072F80A22014607F1200017F08EFF5F
:1034E00007F120012C4817F011FC07F1200017F01C
:1034F00013FF294817F030FC10222B49234807F00E
:103500003DFD2A4B2448196817F09EFC29222849C2
:103510001E4807F033FD01211F4817F095FC1E4897
:1035200017F01AFC1C222349184807F027FD224BEC
:103530001948196817F088FC20222049134807F021
:103540001DFD1F4B1448196817F07EFC124817F038
:1035500003FCD9F80020960006F10A0323F00703C4
:10356000ADEB030D02A9ADEB030D02AB002AB9616F
:10357000FB6138DD134DD5F800800E4440460C4603
:1035800026E000BFF9050000A48AFF1F40DCFF1FF2
:10359000A04A02003444020030DCFF1F3451020014
:1035A000B84A0200484402007846020038A2FF1FD1
:1035B000BC4A0200E84A0200408AFF1F084B020092
:1035C000488AFF1FA0A7FF1F00A3FF1F55F8040F85
:1035D000C8EB00001BF0A2FCAF491BF0A7FD44F8AC
:1035E000040BB442F2D1F969AC48FEF72BFED9F8CE
:1035F0000040002C40F36482BE69A5004FF0000A31
:1036000006EB0508504656F8041B1BF0D3FB464555
:10361000F9D1824620461BF081FCFB69B860014667
:1036200050461D441BF082FDD7F81C80064600233F
:1036300058F8041B18461BF0BDFBA8450346F7D1FC
:10364000BB69B968043B1D463B61FB69043B7B6178
:103650001BF06CFDD7F814A07E60AB465646F860B0
:103660004FF000080025DA4656F8041F5AF8040FF8
:103670001BF0A8FC014640461BF09CFB0135A5420F
:103680008046F1DB7E684FF0000A002531465BF88A
:10369000040F1BF08DFB01461BF094FC01465046C5
:1036A0001BF088FB0135A5428246EFDBB868314646
:1036B0001BF088FCD7F80CB059461BF083FC014680
:1036C00040461BF075FB51461BF030FD0546014698
:1036D000786030461BF076FC014658461BF068FBCC
:1036E0002946B86028461BF06DFCD7F8108082464A
:1036F0004FF0000B0025314658F8040F1BF058FB23
:1037000001461BF05FFC014658461BF053FB013598
:10371000A5428346EFDB51461BF054FC7E69D7F887
:103720000CB082464FF000080025594656F8040FA9
:103730001BF03EFB01461BF045FC014640461BF0DA
:1037400039FB0135A5428046EFDB414650461BF070
:10375000EDFC1AF08DFF18F099FA044650480D461A
:1037600017F0FAFA0F224F494F4807F007FC4C4870
:1037700017F0F2FA03224D494B4807F0FFFB786837
:103780001AF076FF04260B4602460096444817F0CE
:1037900063FB434817F0E0FA03224549424807F02B
:1037A000EDFBB8681AF064FF4FF0030ECDF800E0AF
:1037B0000B4602463A4817F04FFB394817F0CCFA4F
:1037C00032463C49384807F0D9FB22462B46204672
:1037D00029461AF0A1FF1BF097FA1AF049FF0524B9
:1037E00002460B4600942E4817F036FB2C4817F083
:1037F000B3FAF869FEF760FDD9F80040002C40F3F9
:103800008A81BE69A5004FF0000A06EB0508504604
:1038100056F8041B1BF0CEFA4645F9D182462046E5
:103820001BF07CFBFB69F860014650461D441BF011
:103830007DFCD7F81C800646002358F8041B184668
:103840001BF0B8FAA8450346F7D1BB69F968043BF9
:103850001D463B61FB69043B7B611BF067FCD7F8AD
:1038600014A07E60AB465646B8604FF000080025B5
:10387000DA4656F8041F5AF8040F1BF0A3FB014662
:1038800040461BF097FA0135A5428046F1DB7E6881
:103890004FF0000A00250FE000007A44A0A7FF1FA8
:1038A00030DCFF1F2C4B020040DCFF1F3C4B0200B2
:1038B000404B0200444B020031465BF8040F1BF002
:1038C00077FA01461BF07EFB014650461BF072FA68
:1038D0000135A5428246EFDBF96830461BF072FBEA
:1038E000D7F808B059461BF06DFB014640461BF067
:1038F0005FFA51461BF01AFC05460146F860304657
:103900001BF060FB014658461BF052FA29467860CE
:1039100028461BF057FBD7F81080824600254FF051
:10392000000B314658F8040F1BF042FA01461BF019
:1039300049FB014658461BF03DFA0135A542834636
:10394000EFDB51461BF03EFBD7F81480D7F808B0E8
:10395000824600260025594658F8040F1BF028FA25
:1039600001461BF02FFB014630461BF023FA0135C0
:10397000A5420646EFDB314650461BF0D7FB1AF056
:1039800077FE18F083F904467B480D4617F0E4F9FA
:1039900013227A497A4807F0F1FA774817F0DCF9F0
:1039A00003227849764807F0E9FAF8681AF060FED1
:1039B00004260B46024600966F4817F04DFA6E48F3
:1039C00017F0CAF9032270496D4807F0D7FA7868F2
:1039D0001AF04EFE17F0E8FE4FF0030ECDF800E0AF
:1039E0000B460246644817F037FA634817F0B4F9FB
:1039F00032466649624807F0C1FA22462B46204605
:103A000029461AF089FE1BF07FF91AF031FE0524D1
:103A10000B4602460094584817F01EFA564817F015
:103A20009BF9554817F098F90F225949544807F067
:103A3000A5FA514817F090F9D9F80030002B29DD8C
:103A4000BB69A3F10408FB6900241E1F58F8040F8A
:103A50001AF00EFE03250B4602460095464817F065
:103A6000FBF901224B49464807F088FA56F8040F43
:103A70001AF0FEFD17F098FE009502460B463E48F0
:103A800017F0EAF93C4817F067F9D9F8003001342B
:103A9000A342DBDC384817F05FF924223E4938485E
:103AA00007F06CFA364806F0BFFC3C48FFF74AFCCA
:103AB0004FF4FA6015F0EAFB3437BD46BDE8F08FED
:103AC00020461BF02BFA0546014600201BF02EFB7A
:103AD0000446214628461BF075FA21461BF072FA6F
:103AE0000146002080461BF063F941461BF01EFB97
:103AF0002146054678601BF065FA014620461BF01A
:103B000057F92946B86028461BF05CFA41461BF07D
:103B100059FA824619E620461BF000FA054601468E
:103B2000002006461BF002FB0446014628461BF017
:103B300049FA21461BF046FA014630461BF038F997
:103B400031461BF0F3FA05460146F86020461BF0AB
:103B500039FA014620461BF02BF9294678602846A1
:103B60001BF030FA31461BF02DFA824603E70C4A6F
:103B70000C490D48FEF7B8FB30DCFF1F4C4B020030
:103B800040DCFF1F3C4B0200404B0200444B020054
:103B9000604B020048450200704B0200A48AFF1FE0
:103BA00004490200CC97FF1F04A3FF1F10B51D4C52
:103BB00082B0012228232046019200930A2280230A
:103BC000002111F05FFB2046022111F097FE2046F4
:103BD000002111F099FE00221349204617F080F8C9
:103BE000204617F0B9F809221049204617F078F856
:103BF000204617F0B1F807220D49204617F070F85B
:103C0000204617F0A9F800222046114611F072FE56
:103C1000204611F0C9F9204602B0BDE8104010F06E
:103C2000E9BF00BFB4BAFF1F947B0200984B0200AB
:103C3000A44B020008B5642015F028FB0A4B1B6852
:103C400033B90A4B1B7813B1094B1B7843B908BD34
:103C5000FFF7ACFF4FF47A70BDE8084015F016BBD3
:103C6000BDE80840FFF7BEBBA0DBFF1F34A2FF1F6B
:103C700018DDFF1F2DE9F0410C4682B0012180467E
:103C80003C48164611F03AFE01213A4811F03CFE3C
:103C900005220A21374811F02DFE731EA34260DC75
:103CA00001270C2312228DE888000021732331485C
:103CB00011F0E8FAC4EB041500212E4811F024FE9F
:103CC000BD4014220A212B4811F014FE08EB050117
:103CD0002848FCF75BFD3946264811F015FE2322E3
:103CE0000A21244811F006FE002C05DDA5F11E0175
:103CF00041442048FCF74AFD2E2292FBF6F2002AAE
:103D00002BDC01212D23321B012403FB02F292FB49
:103D1000F6F2224405238DE8120012B278211548EC
:103D200011F0B0FA37220021124811F0E3FD1422FD
:103D30001149104816F0D4FF32228DE81400802378
:103D400000210C4811F0DAF90A4811F02DF9094860
:103D500002B0BDE8F04110F04DBFC2F12E0311B228
:103D6000D1E7611CC1EB011108EB41010148FCF7EF
:103D70000DFD95E7B4BAFF1FAC4B02002DE9F04FE3
:103D80006E4BADF5BC5D93E8030087B000906C48C6
:103D90008DF8041006F048FB6A4901F5896006F0C9
:103DA00011FD002800F0C58000226749674806F031
:103DB000DDFC002800F0B8800025654C02E0654875
:103DC00006F032FB00226149624806F0DFFF074639
:103DD00050B3237C1A07F2D502A91E225D4808F0D1
:103DE00093F902A81CF04CFE02AB011F194468466F
:103DF0001CF03AFC0028E2D1C72DE0DC0DF5BC53E5
:103E00001833C5EB051203EB4202A2F5BB52113A7F
:103E10000DF107030DF1250013F8011F02F8011F32
:103E20008342F9D10135CAE7484806F0FDFA05F1A9
:103E3000FF3B002D61D00AAFCBEB0B1407EB440422
:103E40005E4620461CF01CFE0146204616F00CFC87
:103E5000013E414816F080FF731CA4F11E04F0D10E
:103E6000DFF80C91DFF8F8803C4E0023C9F80030F1
:103E7000C8F800303360002D4CD05C464FF0000A8B
:103E800005E0022015F002FAD9F800301BBB2A46E3
:103E900021463846FFF7EEFE336833B1013C25D4A6
:103EA000AC42A8BF2C46C6F800A0D8F80030002BC2
:103EB000E7D0FDF773FEC4EB041007EB4000FEF7FC
:103EC0004BFB274B0220C3F800A015F0DFF9D9F80F
:103ED0000030002BDBD00023C9F80030C8F80030D8
:103EE00033600DF5BC5D07B0BDE8F08FBBF1FF3F5F
:103EF00008BF0024D7D05C46D2E7DFF87490DFF823
:103F00006080164EC9F80070C8F8007037600DB1B7
:103F10000AAFB2E713491048FCF738FC4FF47A7146
:103F20001048FEF7A5FDD6E70F4A0B490548FEF7F6
:103F3000DBF90E4A08490348FEF7D6F9FC4B0200AC
:103F40004CA7FF1F04A3FF1F48440200B8A1FF1F96
:103F500030DCFF1F40DCFF1FCC97FF1F30CBFF1F63
:103F600050CBFF1FEC4B0200DC4B0200C44B0200A5
:103F7000ACBAFF1F2DE9F04FBB4FBC4D3C68DFF8DA
:103F800004E3EDB006904FF47A7000FB01F1089461
:103F90008EFB0160089C2E680593C917A41BC1EB1A
:103FA0006011769B04928C42A3F1080A00F20A8108
:103FB000AF4AB04B126807920DF124081B68AD4F51
:103FC00003931C461D4607F5C2793E464E452946D9
:103FD00010D056F804BF58461BF0B0F9214600B186
:103FE0005D4658461BF08CF90028EFD04E455C46E4
:103FF0002946EED150461AF091FF214683462846C5
:104000001AF0D6FE0646039801E057F8040F214641
:104010001AF0CEFE59461AF0D5FF31461BF086F84D
:1040200000211AF0C7FE1BF0A9F94F45C0EB0A00AA
:1040300048F8040FE9D1BDF81430039303F1040AE2
:10404000079BDFF840920794013B1FFA8AFA1E2172
:104050000DF1280B0EE001F1010889FB07321FFA70
:1040600088F1FB17C3EB62137F294FF0620202FB5A
:10407000137317D0602B03F10107ECDC5BF82320EE
:104080005BF827307C48534401F1010852441BB2CD
:104090000124009312B209B20FFA88F3019411F0CF
:1040A0002DF8DAE7039B7699BDF81070079C03EBB7
:1040B0000108BDF9141005911FFA88F807F11E03D5
:1040C0004FF0010908461BB20FFA88F21946009218
:1040D000CDF804900246684811F010F807F1200B63
:1040E00007F11C030FFA8AF20FFA8BFB0FFA83FA1F
:1040F00051468DE804025B465F4810F0FFFFA8F1CF
:10410000040212B25B468DE8040251465A4810F090
:10411000F5FF4946584811F0F1FB0021564811F0CF
:10412000F3FB7699039A5448CDF8049001EBD173D0
:1041300002EB63031FFA83FAAAF105020A23BDF911
:104140001010009312B21E2311F09CF830464B4918
:104150001BF0F4F87E1C36B228B9494920461BF002
:10416000EDF8002849D0AAF1040212B231464248C3
:1041700011F0C0FB06981BF001F901463E4816F00D
:1041800063FE01213C4811F0BFFB059A3A483146D5
:1041900011F0B0FB28461BF0F1F80146364816F046
:1041A00053FEA8F10A02314612B2334811F0A2FBC5
:1041B00020461BF0E3F801462F4816F045FE6DB08F
:1041C000BDE8F08F2A493C68086809940DF124087D
:1041D000421C8EFB0276D417C4EB6614264662247A
:1041E00004FB1622234B07921446069A43F820201C
:1041F000D8F800200C602A60E0E6AAF1040212B2AE
:1042000031461D4811F076FB06981AF031FA022764
:104210000B4602460097184816F01EFE49461648FF
:1042200011F072FB059A1448314611F063FB2846E1
:104230001AF01EFA00970B4602460F4816F00CFEC5
:10424000A8F10A02314612B20B4811F053FB204686
:104250001AF00EFA009702460B46074816F0FCFDCE
:104260006DB0BDE8F08F00BF7CE2FF1F64DBFF1F75
:10427000D0DBFF1F48B7FF1FB4BAFF1F000020416B
:104280000000C8429D82975330B5012183B0424857
:10429000424D11F033FB01213F4811F035FB4049FD
:1042A0003D48FCF773FA082214213B4811F022FB29
:1042B0000C223C49384816F013FD142200213648E0
:1042C00011F018FB05223849334816F009FD286D16
:1042D0001AF0CEF902240B46024600942E4816F03E
:1042E000BBFD2D4816F038FD1E2200212A4811F092
:1042F00001FB05222D49284816F0F2FC686D1AF0E2
:10430000B7F900940B460246234816F0A5FD224853
:1043100016F022FD282200211F4811F0EBFA052299
:1043200023491D4816F0DCFCA86D1AF0A1F9009491
:1043300002460B46184816F08FFD174816F00CFD84
:10434000322201238DE80C0000218023124810F056
:10435000D5FE37220021104811F0CCFA154B1B680E
:1043600013B1154B1B788BB914490B48FCF7F6F9C0
:1043700000221146084811F0BDFA074810F014FE5B
:10438000054803B0BDE8304010F034BC0C49024889
:10439000FCF7E4F9ECE700BFB4BAFF1F4CA2FF1F23
:1043A000044C0200184C0200284C0200304C020061
:1043B000384C020068DCFF1F34A2FF1F584C02007B
:1043C000404C020030B5012183B03F483F4D11F011
:1043D00095FA01213C4811F097FA3D493A48FCF71B
:1043E000D5F908221421384811F084FA39493648A1
:1043F000FCF7CCF914220021334811F07BFA052296
:104400003549314816F06CFC286E1AF031F9022457
:104410000B46024600942C4816F01EFD1E22002179
:10442000294811F067FA05222C49274816F058FC54
:10443000686E1AF01DF900940B460246224816F0E9
:104440000BFD28220021204811F054FA05222449AE
:104450001D4816F045FCA86E1AF00AF900940246B1
:104460000B46194816F0F8FC1E491748FCF78EF960
:10447000322201238DE80C0000218023124810F025
:104480003DFE37220021104811F034FA164B1B680C
:1044900013B1164B1B788BB915490B48FCF75EF925
:1044A00000221146084811F025FA074810F07CFD5B
:1044B000054803B0BDE8304010F09CBB0D490248F0
:1044C000FCF74CF9ECE700BFB4BAFF1F4CA2FF1F8A
:1044D000044C0200704C0200284C0200304C0200D8
:1044E000384C0200E84E020068DCFF1F34A2FF1FB8
:1044F000584C0200404C020030B5012183B04548C1
:10450000454D11F0FBF90121424811F0FDF94349F5
:104510004048FCF73BF9082214213E4811F0EAF923
:104520003F493C48FCF732F914220021394811F088
:10453000E1F905223B49374816F0D2FBD5F8800057
:104540001AF096F802240B4602460094314816F001
:1045500083FC304816F000FC1E2200212D4811F08B
:10456000C9F9052230492B4816F0BAFBD5F884006A
:104570001AF07EF800940B460246264816F06CFCB2
:10458000244816F0E9FB28220021224811F0B2F954
:10459000052226491F4816F0A3FBD5F888001AF01B
:1045A00067F8009402460B461A4816F055FC194865
:1045B00016F0D2FB1E491748FCF7E8F83222012317
:1045C0008DE80C0000218023124810F097FD37225F
:1045D0000021104811F08EF9164B1B6813B1164BD1
:1045E0001B788BB915490B48FCF7B8F80022114627
:1045F000084811F07FF9074810F0D6FC054803B0D1
:10460000BDE8304010F0F6BA0D490248FCF7A6F8B4
:10461000ECE700BFB4BAFF1F4CA2FF1F044C02001E
:10462000844C0200284C0200304C0200384C02003E
:10463000E84E020068DCFF1F34A2FF1F584C020046
:10464000404C020030B5012183B04348434D11F086
:1046500055F90121404811F057F941493E48FCF70E
:1046600095F8082214213C4811F044F93D493A4894
:10467000FCF78CF814220021374811F03BF9052291
:104680003949354816F02CFB286B19F0F1FF02244C
:104690000B4602460094304816F0DEFB2E4816F01A
:1046A0005BFB1E2200212C4811F024F905222F4922
:1046B000294816F015FB686B19F0DAFF00940B46D9
:1046C0000246254816F0C8FB234816F045FB282271
:1046D0000021214811F00EF9052225491E4816F047
:1046E000FFFAA86B19F0C4FF009402460B461A4863
:1046F00016F0B2FB184816F02FFB1E491648FCF7BF
:1047000045F8322201238DE80C0000218023124855
:1047100010F0F4FC372200210F4811F0EBF8164B93
:104720001B6813B1154B1B788BB915490A48FCF768
:1047300015F800221146084811F0DCF8064810F080
:1047400033FC054803B0BDE8304010F053BA0D49C2
:104750000148FCF703F8ECE7B4BAFF1F4CA2FF1FB7
:10476000044C0200904C0200284C0200304C020025
:10477000384C0200E84E020068DCFF1F34A2FF1F25
:10478000584C0200404C020030B5012183B0434830
:10479000434D11F0B3F80121404811F0B5F84149FB
:1047A0003E48FBF7F3FF082214213C4811F0A2F821
:1047B0003D493A48FBF7EAFF14220021374811F03F
:1047C00099F805223949354816F08AFA286F19F008
:1047D0004FFF02240B4602460094304816F03CFB83
:1047E0002E4816F0B9FA1E2200212C4811F082F84A
:1047F00005222F49294816F073FA686F19F038FF1F
:1048000000940B460246254816F026FB234816F076
:10481000A3FA28220021214811F06CF8052225492D
:104820001E4816F05DFAA86F19F022FF00940246A8
:104830000B461A4816F010FB184816F08DFA1E4960
:104840001648FBF7A3FF322201238DE80C0000215C
:104850008023124810F052FC372200210F4811F03B
:1048600049F8164B1B6813B1154B1B788BB91549CA
:104870000A48FBF773FF00221146084811F03AF886
:10488000064810F091FB054803B0BDE8304010F039
:10489000B1B90D490148FBF761FFECE7B4BAFF1F5E
:1048A0004CA2FF1F044C0200A04C0200284C020046
:1048B000304C0200384C0200E84E020068DCFF1F5A
:1048C00034A2FF1F584C0200404C020030B50121B9
:1048D00083B04348434D11F011F80121404811F0D5
:1048E00013F841493E48FBF751FF082214213C4888
:1048F00011F000F83D493A48FBF748FF1422002127
:10490000374810F0F7FF05223949354816F0E8F925
:10491000286C19F0ADFE02240B4602460094304884
:1049200016F09AFA2E4816F017FA1E2200212C488B
:1049300010F0E0FF05222F49294816F0D1F9686CE4
:1049400019F096FE00940B460246254816F084FAAC
:10495000234816F001FA28220021214810F0CAFF4E
:10496000052225491E4816F0BBF9A86C19F080FEF7
:10497000009402460B461A4816F06EFA184816F0D4
:10498000EBF91E491648FBF701FF322201238DE89F
:104990000C0000218023124810F0B0FB37220021C8
:1049A0000F4810F0A7FF164B1B6813B1154B1B786F
:1049B0008BB915490A48FBF7D1FE00221146084879
:1049C00010F098FF064810F0EFFA054803B0BDE874
:1049D000304010F00FB90D490148FBF7BFFEECE77E
:1049E000B4BAFF1F4CA2FF1F044C0200B04C0200DF
:1049F000284C0200304C0200384C0200E84E020005
:104A000068DCFF1F34A2FF1F584C0200404C02001C
:104A100030B5012183B04348434D10F06FFF0121B1
:104A2000404810F071FF41493E48FBF7AFFE0822B5
:104A300014213C4810F05EFF3D493A48FBF7A6FEC2
:104A400014220021374810F055FF3A493548FBF74A
:104A500085FE686A19F00CFE02240B46024600949B
:104A6000304816F0F9F934492E48FBF777FE1E223C
:104A700000212C4810F03EFF30492A48FBF76EFE1B
:104A8000A86A19F0F5FD00940B460246254816F079
:104A9000E3F92B492348FBF761FE28220021214836
:104AA00010F028FF27491F48FBF758FEE86A19F065
:104AB000DFFD009402460B461A4816F0CDF9224954
:104AC0001848FBF74BFE0121164810F017FF322261
:104AD00001238DE80C0000218023124810F00EFB0A
:104AE000372200210F4810F005FF184B1B6813B147
:104AF000174B1B788BB917490A48FBF72FFE00228A
:104B00001146084810F0F6FE064810F04DFA054828
:104B100003B0BDE8304010F06DB80F490148FBF715
:104B20001DFEECE7B4BAFF1F4CA2FF1F044C0200AD
:104B3000C04C0200CC4C0200DC4C0200E04C0200F5
:104B4000EC4C0200F44C0200004D020068DCFF1F38
:104B500034A2FF1F584C0200404C020008B5FCF77D
:104B60002FFC134B1B68062B21D8DFE803F0080C41
:104B70001014181C0400BDE80840FFF749BFBDE849
:104B80000840FFF781BBBDE80840FFF71BBCBDE84C
:104B90000840FFF7B1BCBDE80840FFF753BDBDE8D2
:104BA0000840FFF7F1BDBDE80840FFF78FBE08BD24
:104BB00070BAFF1F30B5374885B010F0BBFF8128B1
:104BC00063D0344810F0F6FF334B1B680393044660
:104BD00000230A220399314816F0F6F801213048E3
:104BE00015F042FD204619F043FD022502460B4612
:104BF00000952A4816F030F9284816F0ADF8002341
:104C00003022204600920A211A46FFF7B3F900210C
:104C1000244810F079FE01240A238DE818000022B0
:104C20002D2328211F4810F02DFB22462A211D4844
:104C300010F060FE08221C491A4816F051F837227D
:104C40000021184810F056FE2146164810F05CFE70
:104C5000164B1B78A3B916491248FBF77FFD322289
:104C600001238DE80C00002180230E4810F046FA45
:104C70000C4810F099F90B480FF0BCFF05B030BD9F
:104C80000C490848FBF76AFDE9E70B490348FBF7C5
:104C90007DFD96E7E8DCFF1F7CE2FF1FCC97FF1F3E
:104CA000E84E0200B4BAFF1F204D020034A2FF1FDD
:104CB000444D02002C4D0200044D020070B501214C
:104CC00084B00546604810F019FE01215E4810F0DE
:104CD0001BFE5E495C48FBF759FD5D495A48FBF7EE
:104CE00055FD5C495848FBF751FD5B4810F022FF29
:104CF000812800F0A480584810F05CFF0446002D85
:104D00007DD014220A21504810F0F4FD03214E48B2
:104D100010F0F4FD514920461AF006FB002863D03C
:104D200020461AF02BFB0146474816F08DF8142256
:104D30006421454810F0DEFD0121434810F0DEFDFE
:104D400047494148FBF70AFD142264213E4810F010
:104D5000D1FD02213C4810F0D1FD42493A48FBF711
:104D6000FDFC0121384810F0C9FD012432228023C6
:104D70008DE814000021344810F0C0F937220021DA
:104D8000314810F0B7FD21462F4810F0B7FD2146FD
:104D90002D4810F0B9FD372200212B4810F0AAFD54
:104DA000314B1B7833B1002D44D130492648FBF7F5
:104DB000D5FC03E02E492448FBF7D0FC0022114625
:104DC000214810F097FD322201238DE80C000021CC
:104DD00080231D4810F092F91B4810F0E5F81A489E
:104DE0000FF008FF04B070BD204619F041FC02240A
:104DF00002460B460094144816F02EF897E71D4B18
:104E00001D481B6803930A222B46039915F0DCFF0B
:104E100010491948FBF7A2FC204619F029FC02268C
:104E200002460B460096144816F016F8124815F084
:104E300093FF66E711490448FBF790FCBEE7104971
:104E40000D48FBF7A3FC56E7B4BAFF1F5C4D020008
:104E50006C4D0200E84E0200E8DCFF1F0000C84273
:104E60007C4D0200804D020034A2FF1F9C4D0200C9
:104E7000B44D02007CE2FF1FCC97FF1F844D02005F
:104E8000044D0200044B186820B1012801D1FFF73E
:104E900091BE7047FFF712BF58DBFF1FF0B50E2021
:104EA00083B013F0B7FC05460F2013F0B3FC0646A1
:104EB000102013F0AFFC5F4904465F48FBF766FC27
:104EC0005E495D48FBF762FC5D495B48FBF746FCC9
:104ED0002946594815F0B8FF574815F03DFF594984
:104EE0005548FBF73BFC3146534815F0ADFF52489F
:104EF00015F032FF54495048FBF730FC21464E482C
:104F000015F0A2FF4C4815F027FF322000FB05F0FA
:104F100000F50073002BB8BF00F2FF554FF03200D0
:104F200000FB06F0A8BF1D46AD12002B00F5007374
:104F3000ACBF193D1A3D002B1F46B8BF00F2FF570A
:104F4000322000FB04F0002B4FEAA72700F5007386
:104F5000ACBF193F1A3F002B1C464FF00106B8BFEB
:104F600000F2FF54002B4FF019031A464FEAA42415
:104F70004FF0460130480096C5F11905B8BF04F15D
:104F8000FF342DB210F0C8F907F146038DE8600038
:104F90001BB219224621284810F0B0F8192C38DD30
:104FA000A4B2A4F119031BB2C4F132028DE8480087
:104FB00012B20A236921204810F064F901211E4829
:104FC00010F09CFC01211C4810F09EFC37220021AF
:104FD000194810F08FFC1D4B1B7833BB1C49164839
:104FE000FBF7BCFB00221146134810F083FC322271
:104FF00001238DE80C00002180230F4810F07EF87B
:105000000D480FF0D1FF0C4803B0BDE8F0400FF0A1
:10501000F1BDC4F1190424B28DE850000A2319220D
:105020006921054810F02EF9C8E70A490248FBF744
:1050300095FBD7E7CC4D0200B4BAFF1F947B02006A
:10504000D84D0200DC4D0200E04D020034A2FF1FEB
:10505000FC4D0200E44D020030B5012183B004464E
:10506000754810F04BFC0121734810F04DFC73495A
:105070007148FBF78BFB01216F4810F03FFC002CBF
:1050800067D06F496C48FBF769FB6E4A6E4B12683C
:105090006E4953F822306848B1FBF3F10A2200232D
:1050A00015F092FE6A496448FBF770FB6349624859
:1050B000FBF76CFB0121604810F026FC012C00F08E
:1050C000988064495C48FBF749FB634B5A48196870
:1050D00015F0BAFE61495848FBF758FB5749564846
:1050E000FBF754FB0121544810F00EFC022C71D048
:1050F0005B495148FBF732FB5A4B4F48196815F092
:10510000A3FE01214C4810F0FFFB01243222802332
:105110008DE81400002148480FF0F0FF2146464872
:1051200010F0ECFB37220021434810F0E3FB4E491E
:105130004148FBF713FB002211463F4810F0DAFB11
:105140003D480FF031FF3C4803B0BDE830400FF060
:1051500051BD2146384810F0D7FB012510238DE8BA
:105160002800042280232146334810F08BF834496C
:105170003148FBF7F3FA334A334B1268334953F89B
:1051800022302D48B1FBF3F10A22234615F01CFE14
:105190002F492948FBF7FAFA28492748FBF7F6FA7E
:1051A0002946254810F0B0FB2A492348FBF7D6FAD8
:1051B000294B2148196815F047FE28491E48FBF77E
:1051C000E5FA1E491C48FBF7E1FA29461A4810F097
:1051D0009BFB8DE70021184810F096FB102201235D
:1051E0008DE80C00002180232422134810F04AF897
:1051F0007EE70021104810F087FB102314228DE871
:105200001800002180230C4810F03CF811490A488E
:10521000FBF7A4FA104B0848196815F015FE0F4962
:105220000548FBF7B3FA05490348FBF7AFFA2146F7
:10523000014810F069FB5BE7B4BAFF1F947B0200E2
:10524000784E0200908AFF1F5C8AFF1F40420F00C9
:105250008C440200884E020038A2FF1F9C4E0200C0
:10526000A04E0200488AFF1FB44E020070B5304CB9
:10527000304D82B02046012110F040FB2046012134
:1052800010F042FB14222C49204615F029FD20463F
:1052900015F062FD2046022110F030FB2946002265
:1052A000204615F01DFD204615F056FD052220462E
:1052B000224915F015FD224B2046196815F0C4FD52
:1052C00029460022204615F00BFD204615F044FD2E
:1052D0000126322280238DE84400204600210FF071
:1052E0000DFF3146204610F009FB294600222046DA
:1052F00015F0F6FC204615F02FFD29460022204629
:1053000015F0EEFC204615F027FD204614220D492D
:1053100015F0E6FC00222046114610F0EBFA20467C
:105320000FF042FE204602B0BDE870400FF062BCB4
:10533000B4BAFF1F947B0200CC4E0200E44E020080
:10534000488AFF1FEC4E02001C491D4A2DE9F0411E
:1053500000231C4E1C4F1D4DDFF874800B60136042
:105360003468184B84B9FFF781FFFCF753FB2B68B7
:10537000154ABBB13B682C60012B03F1FF33EEDC17
:105380003468104B002CEED0002202201A6013F07B
:1053900005FB3C7884420FD021460220BDE8F04155
:1053A00013F016BBD8F80020002AD9D03A68C8F804
:1053B000003001323A60D3E7BDE8F08140A2FF1F20
:1053C0006CDCFF1F50CBFF1F488AFF1FACBAFF1FCA
:1053D00030CBFF1F70B5334C334D82B020460121D6
:1053E00010F08CFA2046012110F08EFA13222F497A
:1053F000204615F075FC204615F0AEFC2046022133
:1054000010F07CFA29460022204615F069FC20465F
:1054100015F0A2FC02222046254915F061FC254B1F
:105420002046196815F010FD20460322224915F088
:1054300057FC29460022204615F052FC204615F064
:105440008BFC0126322280238DE844002046002177
:105450000FF054FE3146204610F050FA2946002243
:10546000204615F03DFC204615F076FC294600222A
:10547000204615F035FC204615F06EFC204614221F
:105480000E4915F02DFC00222046114610F032FA8C
:1054900020460FF089FD204602B0BDE870400FF0B5
:1054A000A9BB00BFB4BAFF1F947B0200044F0200E7
:1054B000184F020038A2FF1F1C4F0200EC4E0200E2
:1054C0002D492E4A2DE9F04100232D4E2D4F2E4D12
:1054D000DFF8CC800B6013603468294B8CB9FFF780
:1054E00079FFFCF797FA2B68264A002B34D03B68EB
:1054F0002C60012B03F1FF33EDDC3468204B002CD2
:10550000EDD0002201203C681A6013F047FAE5B2A2
:1055100085421C4E04D02946012013F059FA346804
:105520001A4A1B4B10681B681A4D00FB03F019F058
:10553000F5FC0646204619F0F1FC174919F0F6FD76
:10554000164919F03FFD0146304619F0EFFD19F0FC
:1055500015FF2860BDE8F081D8F800200949002A2D
:10556000BAD03A68C8F80030B2F57A7F02F1010289
:10557000B2DA0A60B0E700BF40A2FF1F6CDCFF1F79
:1055800050CBFF1F38A2FF1FACBAFF1F488AFF1F76
:10559000448AFF1F00A3FF1F00007A44D00F494038
:1055A00030CBFF1F70B52D4C2D4D82B02046012110
:1055B00010F0A4F92046012110F0A6F9204629494F
:1055C000FBF7E4F82046022110F098F9294620461E
:1055D000FBF7DCF820460222234915F081FB234A21
:1055E000234B1268234953F82230B1FBF3F12046D4
:1055F00000230A2215F0E8FB032220461E4915F07D
:105600006FFB29462046FBF7C1F801263222802392
:105610008DE84400204600210FF070FD3146204601
:1056200010F06CF929462046FBF7B0F829462046D1
:10563000FBF7ACF820461422104915F051FB00226C
:105640002046114610F056F920460FF0ADFC2046DA
:1056500002B0BDE870400FF0CDBA00BFB4BAFF1F72
:10566000947B0200204F0200184F0200908AFF1F17
:105670005C8AFF1F40420F008C440200EC4E020087
:105680002DE9F041214DDFF89480214C214E2F6807
:105690001E4B0A20DFB913F0F9FDFFF783FF2368E3
:1056A0001D4A1BB3D8F800302760013386FB032165
:1056B000DA17C2EBA10202EB420102EB81022F6872
:1056C0009B1AC8F800300A20104B002FE3D00024AA
:1056D00020461C6013F062F998F80050854213D000
:1056E00029462046BDE8F04113F072B911680B4815
:1056F0000029CCD0D8F8001013604A1E002AC8F840
:105700000020C4DA0360C2E7BDE8F08150CBFF1F80
:10571000ACBAFF1F4FECC44E30CBFF1F908AFF1F67
:105720002DE9F0411A4F1B4EDFF8708000243D68D0
:10573000174B0120ADB913F0A9FD2046FFF78CFCF3
:105740003368154A8BB1012C35601ED0022C19D05C
:10575000002CECD1FFF794FF3D680D4B0120002D8C
:10576000E9D000221A60BDE8F081611C88FB0105C8
:1057700010680028DBD0A5EBE17404EB44040C1B9B
:105780001360D4E7FFF7E0FDD1E7FFF799FECEE71E
:10579000ACBAFF1F50CBFF1F30CBFF1F56555555DE
:1057A00000B5002183B0314810F0AEF801221E216F
:1057B0002E4810F09FF801212C4810F0A5F8052282
:1057C0002B492A4815F08CFA37220021274810F07F
:1057D00091F80F222749254815F082FA264B1B68BD
:1057E000042B0BD8DFE803F02129313903002349CA
:1057F0001E48FAF7B3FF1520FDF746F800221146C0
:105800001A4810F077F8322201238DE80C000021AD
:10581000802316480FF072FC14480FF0C5FB1348A4
:1058200003B05DF804EB0FF0E5B915490F48FAF73E
:1058300095FF0E20FDF728F8E0E712490B48FAF72C
:105840008DFF0F20FDF720F8D8E70F490748FAF73A
:1058500085FF1020FDF718F8D0E70C490348FAF748
:105860007DFF1420FDF710F8C8E700BFB4BAFF1F92
:10587000384F0200404F0200CCDBFF1F604F020098
:10588000504F0200544F0200584F02005C4F02007C
:1058900008B5084B1B6833B1012B03D1BDE80840A4
:1058A000FFF77EBF08BDFFF7F9FABDE80840FAF739
:1058B000B1BF00BF58DBFF1F10B5002082B0FBF75F
:1058C000B3FE19F02BFB0023302200920A211A4666
:1058D000FEF750FB00211F4810F016F801240A23A0
:1058E0008DE8180000222D2328211A480FF0CAFC49
:1058F00022462A2117480FF0FDFF072216491548B6
:1059000015F0EEF93722002112480FF0F3FF21467F
:1059100010480FF0F9FF114B1B78B3B9152210494D
:105920000C4815F0DDF9322201238DE80C0000212E
:10593000802308480FF0E2FB06480FF035FB0548CE
:1059400002B0BDE810400FF055B906490148FAF71A
:1059500005FFE8E7B4BAFF1F644F020034A2FF1F3F
:10596000844F02006C4F020010B5012082B0FBF79B
:105970005BFE19F0D3FA0023302200920A211A4666
:10598000FEF7F8FA00211F480FF0BEFF01240A239A
:105990008DE8180000222D2328211A480FF072FCF0
:1059A00022462A2117480FF0A5FF0722164915485D
:1059B00015F096F9214613480FF0A6FF3722002173
:1059C00010480FF097FF114B1B78B3B915221049FF
:1059D0000C4815F085F9322201238DE80C000021D6
:1059E000802308480FF08AFB06480FF0DDFA0548CF
:1059F00002B0BDE810400FF0FDB806490148FAF7C3
:105A0000ADFEE8E7B4BAFF1F9C4F020034A2FF1FAF
:105A1000BC4F0200A44F020030B50A2483B0002519
:105A20000020FBF701FE0544012013F02FFC013C90
:105A3000F6D1884B884883FB05230121ED17C5EB80
:105A4000A3050FF05BFF012183480FF05DFF2246A5
:105A5000142181480FF04EFF29467F4815F0F4F9D4
:105A6000322303FB05F3002B1A46B8BF03F6FF727F
:105A7000002BB8BF03F6FF731213012143F30F335A
:105A8000C2F1320212B20191009305210C23724837
:105A90000FF0F8FBB5F5006FCCBF002301231922EE
:105AA0008DE80C00052111236B480FF027FB0A2419
:105AB00000250120FBF7B8FD0544012013F0E6FBAB
:105AC000013CF6D1634A6448EB1782FB0525C3EB22
:105AD000A505322303FB05F3002B1A46B8BF03F6D6
